:020000040800F2
:1000000000060030A1020008610F0008650F00081B
:10001000BD0F0008650F0008910F0008A30200083B
:10002000A3020008A3020008A30200086D2800082C
:10003000A3020008A3020008A3020008A30200080C
:10004000A3020008A3020008A3020008A3020008FC
:10005000A3020008A30200089D3C0008C93C000858
:10006000F53C0008213D00084D3D0008A3020008B2
:10007000A3020008A3020008A3020008A3020008CC
:10008000A3020008A3020008A3020008A3020008BC
:10009000A3020008A3020008A3020008793D00089B
:1000A000A3020008A3020008A3020008A30200089C
:1000B000A3020008A3020008A3020008A30200088C
:1000C000A3020008A3020008A3020008A30200087C
:1000D000A3020008A3020008A3020008A30200086C
:1000E000DD3D0008A3020008A3020008A3020008E7
:1000F000A3020008A3020008A3020008A30200084C
:10010000A3020008A3020008653E0008A30200083D
:10011000A3020008A3020008A3020008A30200082B
:10012000A3020008A3020008A3020008A30200081B
:10013000A3020008A3020008A3020008A30200080B
:10014000A3020008A3020008A3020008A3020008FB
:10015000A3020008A3020008A3020008A3020008EB
:10016000A3020008A3020008A3020008A3020008DB
:10017000A3020008D9330008A3020008A302000864
:10018000A3020008A3020008513E0008A3020008D1
:10019000A3020008A3020008A3020008A3020008AB
:1001A000A3020008A3020008A3020008A30200089B
:1001B000A3020008A3020008A3020008A30200088B
:1001C000A3020008A3020008A3020008A30200087B
:1001D000A3020008C5330008A3020008A302000818
:1001E000A3020008A3020008A3020008A30200085B
:1001F000A3020008A3020008A3020008A30200084B
:10020000A3020008A3020008A3020008A30200083A
:10021000A3020008A3020008A3020008A30200082A
:10022000A3020008A3020008A3020008A30200081A
:10023000A3020008A3020008A3020008A30200080A
:10024000A3020008A3020008A3020008A3020008FA
:10025000A3020008A3020008A3020008A3020008EA
:10026000A3020008A3020008A3020008A3020008DA
:10027000A3020008A3020008A3020008A3020008CA
:10028000A3020008A3020008A3020008A3020008BA
:10029000A3020008A3020008A3020008A3020008AA
:1002A00002E000F000F8FEE772B63A4880F30888F2
:1002B000394880F3098839484EF60851CEF20001DA
:1002C000086040F20000CCF200004EF63471CEF22D
:1002D00000010860BFF34F8FBFF36F8F40F2000043
:1002E000C0F2F0004EF68851CEF200010860BFF374
:1002F0004F8FBFF36F8F4FF00000E1EE100A4EF604
:100300003C71CEF200010860062080F31488BFF330
:100310006F8F02F069FB02F00BFB03F0A5FA4FF0C0
:1003200055301F491B4A91423CBF41F8040BFAE784
:100330001C49194A91423CBF41F8040BFAE71A499B
:100340001A4A1B4B9A423EBF51F8040B42F8040B69
:10035000F8E700201749184A91423CBF41F8040BC6
:10036000FAE702F023FB03F0F7FA144C144DAC4209
:1003700003DA54F8041B8847F9E700F041F8114C00
:10038000114DAC4203DA54F8041B8847F9E702F038
:100390000BBB000000060030002200300000000807
:1003A00000000030000600308042000800220030CB
:1003B0005822003058220030F0460030A0020008D9
:1003C000A0020008A0020008A00200082DE9F04FDA
:1003D0002DED108AC1F80CD0D0F80CD0BDEC108AED
:1003E000BDE8F08F002383F311882846A047002042
:1003F00001F030FEFEE701F0C5FD00DFFEE7000082
:1004000038B500F0CFFC30B1164B00220E211A7225
:100410005A729972DA7202F0EBF9054602F020FA8C
:100420000446D0B9104B9D4219D001339D4241F290
:10043000883512BF044600250124002002F0E2F9AD
:100440000CB100F059F800F031FD00F0F1FB284646
:1004500000F004F900F050F8F9E70025EDE7054653
:10046000EBE700BF00220030010007B008B500F044
:10047000ABFBA0F120035842584108BD07B541F23B
:100480001203022101A8ADF8043000F0BBFB03B059
:100490005DF804FB202310B583F311881248C3686C
:1004A0000BB101F05DFE0023104A4FF47A710E4843
:1004B00001F01AFE002383F311880D4C236813B159
:1004C0002368013B2360636813B16368013B636089
:1004D000084B1B7833B9636823B9022000F068FC2D
:1004E0003223636010BD00BF58220030950400081D
:1004F000742300306C220030F8B5514B514A1C4631
:100500001968013100F09B8004339342F8D162688E
:100510004D4B9A4240F293804C4B9B6803F1006331
:1005200003F500339A4280F08A80002000F09AFBA5
:100530000220474B187000F039FC464B0021D3F8DD
:10054000E820C3F8E810D3F81021C3F81011D3F84D
:100550001021D3F8EC20C3F8EC10D3F81421C3F821
:100560001411D3F81421D3F8F020C3F8F010D3F805
:100570001821C3F81811D3F81821D3F8802042F0BD
:100580000062C3F88020D3F8802022F00062C3F814
:100590008020D3F88020D3F8802042F00072C3F886
:1005A0008020D3F8802022F00072C3F88020D3F896
:1005B000803072B64FF0E023C3F8084DD4E9000450
:1005C000BFF34F8FBFF36F8F234AC2F88410BFF37E
:1005D0004F8F536923F480335361BFF34F8FD2F8A9
:1005E000803043F6E076C3F3C905C3F34E335B01B5
:1005F00003EA060C29464CEA81770139C2F8747285
:10060000F9D2203B13F1200FF2D1BFF34F8FBFF38C
:100610006F8FBFF34F8FBFF36F8F536923F4003396
:1006200053610023C2F85032BFF34F8FBFF36F8F77
:10063000202383F31188854680F308882047F8BD7E
:100640000000020820000208FFFF0108002200301D
:100650006C2200300044025800ED00E02DE9F04F1C
:1006600093B0BA4B2022FF2100900AA89D6800F0A9
:10067000C7FBB74A1378A3B90121B6481170C3600C
:10068000202383F31188C3680BB101F069FD0023B7
:10069000B14A4FF47A71AF4801F026FD002383F38D
:1006A0001188009BAD4A03B113600023AC49009C44
:1006B00098469B461E469A460B705360012000F0F8
:1006C00075FB24B1A54B1B68002B00F00A820020AB
:1006D00000F07AFA0390039B002BF2DB012000F07C
:1006E00063FB039B213B122BE8D801A252F823F0B5
:1006F0003D07000865070008F3070008BD0600086D
:10070000BD060008BD06000887080008570A000853
:1007100071090008D3090008FB090008210A000834
:10072000BD060008330A0008BD060008A50A000837
:10073000AB070008BD060008E90A00080220FFF721
:1007400095FE002840F0F781009B022105A8B8F132
:10075000000F08BF1C4641F21233ADF8143000F010
:1007600051FAABE74FF47A7000F02EFA071EEBDB7C
:100770000220FFF77BFE0028E6D0013F042F00F2A5
:10078000DC81DFE807F0031D202326000523042178
:1007900005A8059300F036FA01204FF0000A00FA90
:1007A00007F747EA0B0B5FFA8BFB00F075FB26B1EE
:1007B0000BF00B030B2B08BF0024FFF75FFE7DE758
:1007C00004216248E6E704216648E3E7042166481D
:1007D000E0E74FF01C09484609F1040900F044FA2B
:1007E0000421059005A800F00DFAB9F12C0FF2D103
:1007F000D2E7002EA8D00BF00B030B2BA4D10220C4
:10080000FFF734FE074600289ED00120544E00F02A
:1008100029FA4FF000080220307000F0C7FA5FFAA2
:1008200088F9484600F02EFA044690B1484608F18F
:10083000010800F037FA0028F1D1B846044641F229
:100840001213022105A83E46ADF8143000F0DAF983
:1008500034E7012325460220337000F0A5FA3B4B14
:100860009B68AB4207D9284600F0FEF9013040F002
:1008700067810435F3E70025394BB8463E461D70C5
:10088000364B5D6091E7002E3FF45EAF0BF00B033B
:100890000B2B7FF459AF0220314B187000F086FA11
:1008A000322000F091F9B0F10009FFF64DAF19F0D8
:1008B00003077FF449AF254A09EB05039268934289
:1008C0003FF642AFB9F5807F3FF73EAF274BB945C2
:1008D00001930EDD4FF47A7000F076F90390039ADD
:1008E000002AFFF631AF039A0137019B03F8012B71
:1008F000EDE7C820FFF7BAFD074600283FF424AF14
:100900001F2D11D8C5F120020AAB25F003001749AD
:100910004A45184428BF4A46019200F04BFA019A12
:10092000FF21124800F06CFA4FEAA903C9F38702CD
:100930000E492846019300F06BFA064600283FF462
:100940007EAF019B05EB83052FE700BF002200303F
:1009500070230030582200309504000874230030C2
:100960006C22003004220030082200307022003057
:100970000220FFF77BFD00283FF4E6AE00F0AEF961
:1009800000283FF4E1AE0027B9466F4B9B68BB429D
:1009900018D91F2F11D80A9B01330ED027F003035B
:1009A00012AA134453F8203C05934846042205A993
:1009B000043700F017FB8146E7E7384600F054F9AA
:1009C0000590F2E7CDF81490042105A800F01AF97B
:1009D000EBE60023642104A8049300F009F9002841
:1009E0007FF4B2AE0220FFF741FD00283FF4ACAE29
:1009F000049800F069F90590E6E70023642104A853
:100A0000049300F0F5F800287FF49EAE0220FFF773
:100A10002DFD00283FF498AE049800F057F9EAE75E
:100A20000220FFF723FD00283FF48EAE00F066F9A8
:100A3000E1E70220FFF71AFD00283FF485AE05A983
:100A4000142000F061F907460421049004A800F086
:100A5000D9F83946B9E7322000F0B6F8071EFFF69C
:100A600073AEBB077FF470AE374A07EB0A03926898
:100A700093423FF669AE0220FFF7F8FC00283FF4EE
:100A800063AE27F003075744BA453FF48EAE504695
:100A90000AF1040A00F0E8F80421059005A800F026
:100AA000B1F8F1E74FF47A70FFF7E0FC00283FF46B
:100AB0004BAE00F013F9002844D00A9B01330BD051
:100AC00008220AA9002000F0A3F900283AD0202229
:100AD000FF210AA800F094F9FFF7D0FC1B4801F0B1
:100AE000BFFA13B0BDE8F08F002E3FF42DAE0BF02F
:100AF0000B030B2B7FF428AE0023642105A805937C
:100B000000F076F8074600287FF41EAE0220FFF7BB
:100B1000ADFC814600283FF417AEFFF7AFFC41F271
:100B2000883001F09DFA059800F0FAF94E463C46EF
:100B300000F0B2F9C2E5064637E64FF0000A03E6D8
:100B4000B8467CE637467AE600220030A0860100EF
:100B5000F7B50C46184E4FF47A71054602FB01F3C7
:100B600096F90020501C0BD11448294601930268C5
:100B7000176A2246B8478442019B03D1002310E044
:100B8000002AF1D096F90020511C01D0012A0DD184
:100B90000B4829460268166A2246B047844205D1AE
:100BA0000123084A0120137003B0F0BD4FF4FA701E
:100BB00001F056FA0020F7E70C220030E829003057
:100BC000C4230030C0230030002307B502460121B2
:100BD0000DF107008DF80730FFF7BAFF20B19DF83F
:100BE000070003B05DF804FB4FF0FF30F9E70000A9
:100BF0000A46042108B5FFF7ABFF80F00100C0B240
:100C0000404208BD074B0A4630B41978064B53F8EA
:100C10002140014623682046DD69044BAC4630BCC8
:100C2000604700BFC0230030583F0008A086010085
:100C300070B50A4E00240A4D01F0C0FC30802868CF
:100C40003388834208D901F0B5FC2B680444013392
:100C5000B4F5003F2B60F2D370BD00BFC22300305B
:100C60007C23003001F07ABD00F1006000F5003017
:100C70000068704700F10060920000F5003001F05C
:100C8000F9BC0000054B1A68054B1B889B1A834270
:100C900002D9104401F08EBC002070477C23003044
:100CA000C223003038B5074D04462868204401F0BF
:100CB00087FC28B928682044BDE8384001F092BC80
:100CC00038BD00BF7C2300300020704700F1FF508A
:100CD00000F58F10D0F8000870470000064991F821
:100CE000243033B100230822086A81F82430FFF74A
:100CF000C1BF0120704700BF80230030014B18683E
:100D0000704700BF0010005C244BF0B51A68044621
:100D1000234BC2F30B06120C1F885868BE4293F98E
:100D2000085028D09F89BE4206D101200C2505FB22
:100D30000033586893F9085041F201039A421CD0DD
:100D400041F203039A421AD042F201039A4218D0A8
:100D500042F203039A4208BF5625621E0B46441E08
:100D60000A4493420FD214F9016F581C6EB1034626
:100D700000F8016CF5E70020D8E75A25EDE7592582
:100D8000EBE75825E9E7184605E02C2482421C7061
:100D900001D9981C5D70401AF0BD00BF0010005CC6
:100DA000102200300020704770470000704700009C
:100DB00070470000002310B5934203D0CC5CC454AC
:100DC0000133F9E710BD0000013810B510F9013FFB
:100DD0003BB191F900409C4203D11AB10131013A73
:100DE000F4E71AB191F90020981A10BD1046FCE7FB
:100DF00003460246D01A12F9011B0029FAD17047A6
:100E000002440346934202D003F8011BFAE77047FD
:100E10002DE9F8431F4D14460746884695F82420CF
:100E200052BBDFF870909CB395F824302BB9202288
:100E3000FF2148462F62FFF7E3FF95F82400414663
:100E4000C0F1080205EB8000A24228BF2246D6B2BC
:100E50009200FFF7AFFF95F82430A41B17441E44FF
:100E60009044E4B2F6B2082E85F82460DBD1FFF797
:100E700035FF0028D7D108E02B6A03EB82038342B9
:100E8000CFD0FFF72BFF0028CBD10020BDE8F8839F
:100E90000120FBE780230030024B1A78024B1A70C6
:100EA000704700BFC02300300C22003038B5164C0C
:100EB000164D204600F0FAFB2946204600F022FCA1
:100EC0002D681348D5F89020D2F8043843F0020377
:100ED000C2F8043801F0C4F80E49284600F020FD9D
:100EE000D5F890200C48D2F804380C49A04223F0E1
:100EF0000203C2F804384FF4E1330B6003D0BDE8BD
:100F0000384000F031BB38BDE829003060400008AF
:100F100040420F0068400008C4230030A82300307E
:100F200038B50B4B04461A780A4B53F822500A4B3B
:100F30009D420CD0094B002118221846FFF760FF94
:100F4000046001462846BDE8384000F00DBB38BDBE
:100F5000C0230030583F0008E8290030A8230030A3
:100F6000FEE7000000B59BB0EFF3098168226846F8
:100F7000FFF720FFEFF30583044B9A6BDA6A9A6A56
:100F80009A6A9A6A9A6A9A6A9B6AFEE700ED00E09A
:100F900000B59BB0EFF3098168226846FFF70AFFAE
:100FA000EFF30583044B9A6B9A6A9A6A9A6A9A6A73
:100FB0009A6A9B6AFEE700BF00ED00E000B59BB0B7
:100FC000EFF3098168226846FFF7F4FEEFF305832B
:100FD000034B5A6B9A6A9A6A9A6A9A6A9B6AFEE704
:100FE00000ED00E030B50A44084D91420DD011F8F3
:100FF000013B5840082340F30004013B2C4013F010
:10100000FF0384EA5000F6D1EFE730BD2083B8ED4E
:10101000026843681143016003B11847704700003C
:10102000024A136843F0C003136070470078004021
:1010300013B50E4C204600F08BFA04F11400002387
:101040004FF400720A49009400F04CF9094B4FF438
:101050000072094904F13800009400F0C5F9074A0C
:10106000074BC4E9172302B010BD00BFC4230030F2
:101070003024003021100008302600300078004075
:1010800000E1F505037C30B5244C002918BF0C465F
:10109000012B11D1224B98420ED1224BD3F8E820DC
:1010A00042F08042C3F8E820D3F8102142F0804299
:1010B000C3F81021D3F810312268036EC16D03EB21
:1010C00052038466B3FBF2F36268150442BF23F057
:1010D000070503F0070343EA4503CB60A36843F029
:1010E00040034B60E36843F001038B6042F4967366
:1010F00043F001030B604FF0FF330B62510505D540
:1011000012F0102205D0B2F1805F04D080F8643074
:1011100030BD7F23FAE73F23F8E700BF603F0008B8
:10112000C4230030004402582DE9F047C66D05463F
:101130003768F4692107346219D014F0080118BF28
:101140008021E20748BF41F02001A3074FF02003B0
:1011500048BF41F04001600748BF41F4807183F30C
:101160001188281DFFF754FF002383F31188E2053F
:101170000AD5202383F311884FF40071281DFFF74F
:1011800047FF002383F311884FF020094FF0000A36
:1011900014F0200838D13B0616D54FF0200905F190
:1011A000380A200610D589F31188504600F050F90E
:1011B000002836DA0821281DFFF72AFF27F08003D0
:1011C0003360002383F31188790614D5620612D5A3
:1011D000202383F31188D5E913239A4208D12B6C7D
:1011E00033B127F040071021281DFFF711FF3760AA
:1011F000002383F31188E30618D5AA6E1369ABB1F7
:101200005069BDE8F047184789F31188736A28468A
:1012100095F86410194000F0B5F98AF31188F46963
:10122000B6E7B06288F31188F469BAE7BDE8F087E1
:10123000F8B51546826804460B46AA4200D2856876
:10124000A1692669761AB5420BD218462A46FFF7DD
:10125000B1FDA3692B44A3612846A3685B1BA3606F
:10126000F8BD0CD9AF1B18463246FFF7A3FD3A462E
:10127000E1683044FFF79EFDE3683B44EBE7184626
:101280002A46FFF797FDE368E5E70000836893428D
:10129000F7B50446154600D28568D4E90460361ACD
:1012A000B5420BD22A46FFF785FD63692B44636183
:1012B0002846A3685B1BA36003B0F0BD0DD932467E
:1012C000AF1B0191FFF776FD01993A46E068314482
:1012D000FFF770FDE3683B44E9E72A46FFF76AFD44
:1012E000E368E4E710B50A440024C361029B84600C
:1012F000C16002610362C0E90000C0E9051110BDD0
:1013000008B5D0E90532934201D1826882B982687A
:10131000013282605A1C426119700021D0E9043206
:101320009A4224BFC368436100F0B6FE002008BDA6
:101330004FF0FF30FBE7000070B5202304460E4657
:1013400083F31188A568A5B1A368A269013BA360D6
:10135000531CA36115782269934224BFE368A361FB
:10136000E3690BB120469847002383F31188284690
:1013700007E03146204600F07FFE0028E2DA85F3E0
:10138000118870BD2DE9F74F04460E461746984662
:10139000D0F81C904FF0200A8AF311884FF0000B10
:1013A000154665B12A4631462046FFF741FF034600
:1013B00060B94146204600F05FFE0028F1D00023CE
:1013C00083F31188781B03B0BDE8F08FB9F1000FEB
:1013D00003D001902046C847019B8BF31188ED1A7A
:1013E0001E448AF31188DCE7C160C361009B826000
:1013F0000362C0E905111144C0E9000001617047B2
:10140000F8B504460D461646202383F31188A768D5
:10141000A7B1A368013BA36063695A1C62611D7098
:10142000D4E904329A4224BFE3686361E3690BB1F3
:1014300020469847002080F3118807E03146204677
:1014400000F01AFE0028E2DA87F31188F8BD0000E8
:10145000D0E9052310B59A4201D182687AB9826831
:101460000021013282605A1C82611C7803699A4211
:1014700024BFC368836100F00FFE204610BD4FF00B
:10148000FF30FBE72DE9F74F04460E461746984616
:10149000D0F81C904FF0200A8AF311884FF0000B0F
:1014A000154665B12A4631462046FFF7EFFE034652
:1014B00060B94146204600F0DFFD0028F1D000234E
:1014C00083F31188781B03B0BDE8F08FB9F1000FEA
:1014D00003D001902046C847019B8BF31188ED1A79
:1014E0001E448AF31188DCE70268436811430160F7
:1014F00003B11847704700001430FFF743BF0000E6
:101500004FF0FF331430FFF73DBF00003830FFF7D6
:10151000B9BF00004FF0FF333830FFF7B3BF000012
:101520001430FFF709BF00004FF0FF311430FFF710
:1015300003BF00003830FFF763BF00004FF0FF32F9
:101540003830FFF75DBF000000207047FFF770BD27
:10155000044B036000234360C0E90233012303749A
:10156000704700BF783F000810B52023044683F37E
:101570001188FFF787FD02232374002383F311886A
:1015800010BD000038B5C36904460D461BB90421DF
:101590000844FFF7A9FF294604F11400FFF7B0FE45
:1015A000002806DA201D4FF48061BDE83840FFF7BF
:1015B0009BBF38BD026843681143016003B11847FF
:1015C0007047000013B5406B00F58054D4F8A43880
:1015D0001A681178042914D1017C022911D11979D2
:1015E000012312898B4013420BD101A94C3002F028
:1015F0003BF8D4F8A4480246019B2179206800F00A
:10160000DFF902B010BD0000143001F0BDBF0000D2
:101610004FF0FF33143001F0B7BF00004C3002F040
:101620008FB800004FF0FF334C3002F089B8000053
:10163000143001F08BBF00004FF0FF31143001F087
:1016400085BF00004C3002F05BB800004FF0FF3265
:101650004C3002F055B800000020704710B500F57E
:101660008054D4F8A4381A681178042917D1017C61
:10167000022914D15979012352898B4013420ED18A
:10168000143001F01DFF024648B1D4F8A4484FF4CD
:10169000407361792068BDE8104000F07FB910BD4B
:1016A000406BFFF7DBBF0000704700007FB5124BB7
:1016B00001250426044603600023057400F184021A
:1016C00043602946C0E902330C4B02901430019369
:1016D0004FF44073009601F0CFFE094B04F694429C
:1016E000294604F14C000294CDE900634FF44073A5
:1016F00001F096FF04B070BDA03F0008A1160008DD
:10170000C51500080A68202383F311880B790B3371
:1017100042F823004B79133342F823008B7913B13D
:101720000B3342F8230000F58053C3F8A4180223BA
:101730000374002383F311887047000038B5037FDA
:10174000044613B190F85430ABB90125201D022195
:10175000FFF730FF04F114006FF00101257700F06E
:10176000A7FC04F14C0084F854506FF00101BDE86F
:10177000384000F09DBC38BD10B50121044604304E
:10178000FFF718FF0023237784F8543010BD0000C2
:1017900038B504460025143001F086FE04F14C00F3
:1017A000257701F055FF201D84F854500121FFF7E3
:1017B00001FF2046BDE83840FFF750BF90F8803069
:1017C00003F06003202B06D190F881200023212A0A
:1017D00003D81F2A06D800207047222AFBD1C0E96F
:1017E0001D3303E0034A426707228267C367012073
:1017F000704700BF2822003037B500F58055D5F876
:10180000A4381A68117804291AD1017C022917D149
:101810001979012312898B40134211D100F14C0434
:10182000204601F0D5FF58B101A9204601F01CFF68
:10183000D5F8A4480246019B2179206800F0C0F841
:1018400003B030BD01F10B03F0B550F8236085B053
:1018500004460D46FEB1202383F3118804EB85076F
:10186000301D0821FFF7A6FEFB6806F14C005B69FE
:101870001B681BB1019001F005FF019803A901F05D
:10188000F3FE024648B1039B2946204600F098F833
:10189000002383F3118805B0F0BDFB685A69126814
:1018A000002AF5D01B8A013B1340F1D104F18002DC
:1018B000EAE70000133138B550F82140ECB120239D
:1018C00083F3118804F58053D3F8A4281368527960
:1018D00003EB8203DB689B695D6845B104216018F6
:1018E000FFF768FE294604F1140001F0F3FD2046DD
:1018F000FFF7B4FE002383F3118838BD7047000062
:1019000001F0E6B801234022002110B5044600F89A
:10191000303BFFF775FA0023C4E9013310BD000026
:1019200010B52023044683F311882422416000214E
:101930000C30FFF765FA204601F0ECF80223237023
:10194000002383F3118810BD70B500EB81030546B9
:1019500050690E461446DA6018B110220021FFF7D4
:101960004FFAA06918B110220021FFF749FA314659
:101970002846BDE8704001F0DFB9000083682022EE
:10198000002103F0011310B5044683601030FFF707
:1019900037FA2046BDE8104001F05ABAF0B40125EC
:1019A00000EB810447898D40E4683D43A46945818B
:1019B00023600023A2606360F0BC01F077BA0000EE
:1019C000F0B4012500EB810407898D40E4683D43B4
:1019D0006469058123600023A2606360F0BC01F0AC
:1019E000EDBA000070B502230025044624220370DE
:1019F0002946C0F888500C3040F8045CFFF700FA24
:101A0000204684F8705001F02BF963681B6823B1FD
:101A100029462046BDE87040184770BD037880F81D
:101A20008C300523037043681B6810B504460BB166
:101A3000042198470023A36010BD000090F88C207B
:101A4000436802701B680BB10521184770470000FE
:101A500070B590F87030044613B1002380F87030F0
:101A600004F18002204601F017FA63689B68B3B95D
:101A700094F8803013F0600535D00021204601F045
:101A8000C1FC0021204601F0B1FC63681B6813B162
:101A9000062120469847062384F8703070BD204602
:101AA00098470028E4D0B4F88630A26F9A4288BFE5
:101AB000A36794F98030A56F002B4FF0200380F2CC
:101AC0000381002D00F0F280092284F8702083F356
:101AD000118800212046D4E91D23FFF771FF002360
:101AE00083F31188DAE794F8812003F07F0343EA57
:101AF000022340F20232934200F0C58021D8B3F5B0
:101B0000807F48D00DD8012B3FD0022B00F093806E
:101B1000002BB2D104F1880262670222A267E36758
:101B2000C1E7B3F5817F00F09B80B3F5407FA4D17E
:101B300094F88230012BA0D1B4F8883043F002032E
:101B400032E0B3F5006F4DD017D8B3F5A06F31D0A8
:101B5000A3F5C063012B90D86368204694F88220D7
:101B60005E6894F88310B4F88430B047002884D0BD
:101B7000436863670368A3671AE0B3F5106F36D054
:101B800040F6024293427FF478AF5C4B63670223D6
:101B9000A3670023C3E794F88230012B7FF46DAF75
:101BA000B4F8883023F00203A4F88830C4E91D5546
:101BB000E56778E7B4F88030B3F5A06F0ED194F8FC
:101BC0008230204684F88A3001F0A8F863681B68E8
:101BD00013B1012120469847032323700023C4E951
:101BE0001D339CE704F18B0363670123C3E723786C
:101BF000042B10D1202383F311882046FFF7BEFE6B
:101C000085F311880321636884F88B5021701B6869
:101C10000BB12046984794F88230002BDED084F830
:101C20008B300423237063681B68002BD6D00221FD
:101C300020469847D2E794F8843020461D0603F0EA
:101C40000F010AD501F01AF9012804D002287FF407
:101C500014AF2B4B9AE72B4B98E701F001F9F3E710
:101C600094F88230002B7FF408AF94F8843013F09E
:101C70000F01B3D01A06204602D501F0DBFBADE719
:101C800001F0CCFBAAE794F88230002B7FF4F5AE8C
:101C900094F8843013F00F01A0D01B06204602D523
:101CA00001F0B0FB9AE701F0A1FB97E7142284F85A
:101CB000702083F311882B462A4629462046FFF7D9
:101CC0006DFE85F31188E9E65DB1152284F8702078
:101CD00083F3118800212046D4E91D23FFF75EFE1F
:101CE000FDE60B2284F8702083F311882B462A46E8
:101CF00029462046FFF764FEE3E700BFD03F000817
:101D0000C83F0008CC3F000838B590F87030044652
:101D1000002B3ED0063BDAB20F2A34D80F2B32D834
:101D2000DFE803F0373131082232313131313131DE
:101D300031313737856FB0F886309D4214D2C36891
:101D40001B8AB5FBF3F203FB12556DB9202383F315
:101D500011882B462A462946FFF732FE85F3118863
:101D60000A2384F870300EE0142384F870302023A6
:101D700083F31188002320461A461946FFF70EFE0A
:101D8000002383F3118838BDC36F03B19847002344
:101D9000E7E70021204601F035FB0021204601F055
:101DA00025FB63681B6813B106212046984706236C
:101DB000D7E7000010B590F870300446142B29D0F6
:101DC00017D8062B05D001D81BB110BD093B022B3B
:101DD000FBD80021204601F015FB0021204601F030
:101DE00005FB63681B6813B106212046984706234C
:101DF00019E0152BE9D10B2380F87030202383F3F1
:101E0000118800231A461946FFF7DAFD002383F3F1
:101E10001188DAE7C3689B695B68002BD5D1C36F73
:101E200003B19847002384F87030CEE7024B0022BC
:101E3000C3E900339A60704730280030002382687D
:101E40000374054B1B6899689142FBD25A68036082
:101E500042601060586070473028003008B5202379
:101E600083F31188037C032B05D0042B0DD02BB9F1
:101E700083F3118808BD436900221A604FF0FF33D5
:101E80004361FFF7DBFF0023F2E7D0E90032136084
:101E90005A60F3E7002382680374054B1B68996856
:101EA0009142FBD85A6803604260106058607047E6
:101EB00030280030054B19690874186802685360AF
:101EC0001A60186101230374FEF780BA30280030CD
:101ED0004B1C30B5044687B00A4D10D02B6901A8C1
:101EE000094A00F001F92046FFF7E4FF049B13B113
:101EF00001A800F035F92B69586907B030BDFFF72C
:101F0000D9FFF8E7302800305D1E000838B50C4DC9
:101F1000044641612B6981689A68914203D8BDE803
:101F20003840FFF78BBF1846FFF7B4FF01232C6141
:101F3000014623742046BDE83840FEF747BA00BF8B
:101F400030280030044B1A681B6990689B689842DF
:101F500094BF0020012070473028003010B5084C95
:101F6000236820691A6854602260012223611A7470
:101F7000FFF790FF01462069BDE81040FEF726BA42
:101F800030280030FFF7EABFFEE7000010B50C4C28
:101F9000FFF74CFF00F09AF880220A49204600F033
:101FA00021F8012344F8180C037400F06FFC00239F
:101FB00083F3118862B60448BDE8104000F032B8DF
:101FC00058280030D43F0008E43F000800F002B970
:101FD000034A516853685B1A9842FBD8704700BFA8
:101FE000001000E082600222028270478368A3F141
:101FF0007C0243F80C2C026943F83C2C426943F8FC
:10200000382C074A43F81C2CC268A3F1180043F887
:10201000102C022203F8082C002203F8072C70472A
:10202000E503000810B5202383F31188FFF7DEFFD6
:1020300000210446FFF76AFF002383F3118820463E
:1020400010BD0000024B1B6958610F20FFF732BF23
:1020500030280030202383F31188FFF7F3BF0000FE
:1020600008B50146202383F311880820FFF730FFCD
:10207000002383F3118808BD49B1064B42681B69F0
:1020800018605A60136043600420FFF721BF4FF0CF
:10209000FF307047302800300368984206D01A6835
:1020A0000260506018465961FFF7C8BE70470000D3
:1020B00038B504460D462068844200D138BD036817
:1020C00023605C604561FFF7B9FEF4E7054B4FF014
:1020D000FF3103F11402C3E905220022C3E907120C
:1020E000704700BF3028003070B51C4E05460C46C6
:1020F000C0E9032301F0A2FB334653F8142F9A42A0
:102100000DD13062022C2CBF001902302A60C5E9C3
:102110000124C6E90555BDE8704001F079BB316A7C
:10212000431AE31838BF1C469368A34202D9081922
:1021300001F07EFB73699A6894420CD85A68AC60CF
:102140002B606A6015609A685D60121B9A604FF0A0
:10215000FF33F36170BDA41A1B68ECE73028003030
:1021600038B51B4C636998420DD08168D0E90032C4
:1021700013605A600022C2609A680A449A604FF065
:10218000FF33E36138BD03682246002142F8143F63
:1021900093425A60C16003D1BDE8384001F042BBB0
:1021A0009A688168256A0A449A6001F047FB63696E
:1021B000411B9A688A42E5D9AB181D1A206A012D85
:1021C00098BF8A1CBDE83840104401F031BB00BF05
:1021D000302800302DE9F041184C002704F1140696
:1021E000656901F02BFB236AAA68C11A8A4215D8D7
:1021F0001344D5F80C802362D5E9003213605A608D
:102200006369EF60B34201D101F00CFB87F31188E1
:102210002869C047202383F31188E1E76169B1424F
:1022200009D013441B1ABDE8F041022B2CBFC01883
:10223000023001F0FDBABDE8F08100BF3028003067
:1022400000207047FEE70000704700004FF0FF30AD
:102250007047000002290CD0032904D00129074847
:1022600018BF00207047032A05D8054800EBC200BC
:102270007047044870470020704700BFC440000802
:10228000382200307840000870B59AB005460846FC
:10229000144601A900F0C2F801A8FEF7A9FD431CED
:1022A0000022C6B25B001046C5E900342370032348
:1022B000023404F8013C01ABD1B202348E4201D8A1
:1022C0001AB070BD13F8011B013204F8010C04F8B8
:1022D000021CF1E708B5202383F311880348FFF7B8
:1022E0008BFA002383F3118808BD00BFE829003072
:1022F00090F8803003F01F02012A07D190F8812066
:102300000B2A03D10023C0E91D3315E003F060035D
:10231000202B08D1B0F884302BB990F88120212AE5
:1023200003D81F2A04D8FFF749BA222AEBD0FAE7CC
:10233000034A426707228267C3670120704700BFD4
:102340002F22003007B5052917D8DFE801F019164C
:1023500003191920202383F31188104A01210190C9
:10236000FFF7F2FA019802210D4AFFF7EDFA0D4846
:10237000FFF70EFA002383F3118803B05DF804FB26
:10238000202383F311880748FFF7D8F9F2E72023C9
:1023900083F311880348FFF7EFF9EBE718400008D3
:1023A0003C400008E829003038B50C4D0C4C2A465A
:1023B0000C4904F10800FFF767FF05F1CA0204F1B8
:1023C00010000949FFF760FF05F5CA7204F1180013
:1023D0000649BDE83840FFF757BF00BFC042003094
:1023E00038220030FC3F0008064000080E4000087C
:1023F00070B5044608460D46FEF7FAFCC6B2204604
:10240000013403780BB9184670BD32462946FEF7F1
:10241000DBFC0028F3D10120F6E700002DE9F047AE
:1024200005460C46FEF7E4FC2C49C6B22846FFF7E9
:10243000DFFF08B10836F6B229492846FFF7D8FF72
:1024400008B11036F6B2632E0BD8DFF89080DFF8B3
:102450009090244FDFF898A02E7846B92670BDE8FA
:10246000F08729462046BDE8F04701F05FBD252EE4
:1024700030D1072241462846FEF7A6FC80B91A4B08
:10248000224603F10C0153F8040B8B4242F8040B73
:10249000F9D1198807359B780F3411809370DBE7E9
:1024A000082249462846FEF78FFC98B9A21C0F4B1C
:1024B000197802320909C95D02F8041C13F8011BDE
:1024C00001F00F015345C95D02F8031CF0D1183427
:1024D0000835C1E7013504F8016BBDE7E4400008A9
:1024E0000E400008FC400008EC40000800E8F11F26
:1024F0000CE8F11FBFF34F8F044B1A695107FCD151
:10250000D3F810215207F8D1704700BF00200052C5
:1025100008B50D4B1B78ABB9FFF7ECFF0B4BDA6836
:10252000D10704D50A4A5A6002F188325A60D3F8BA
:102530000C21D20706D5064AC3F8042102F18832DD
:10254000C3F8042108BD00BF1E4500300020005222
:102550002301674508B5114B1B78F3B9104B1A6975
:10256000510703D5DA6842F04002DA60D3F810214F
:10257000520705D5D3F80C2142F04002C3F80C21D4
:10258000FFF7B8FF064BDA6842F00102DA60D3F8D1
:102590000C2142F00102C3F80C2108BD1E45003099
:1025A000002000520F289ABF00F5806040040020F0
:1025B000704700004FF40030704700001020704753
:1025C0000F2808B50BD8FFF7EDFF00F500330268C0
:1025D000013204D104308342F9D1012008BD00202A
:1025E000FCE700000F2838B505463FD8FFF782FF0B
:1025F0001F4CFFF78DFF4FF0FF3307286361C4F8CE
:1026000014311DD82361FFF775FF030243F0240343
:10261000E360E36843F08003E36023695A07FCD476
:102620002846FFF767FFFFF7BDFF4FF4003100F0CA
:10263000F7F82846FFF78EFFBDE83840FFF7C0BF28
:10264000C4F81031FFF756FFA0F108031B0243F056
:102650002403C4F80C31D4F80C3143F08003C4F8DF
:102660000C31D4F810315B07FBD4D9E7002038BD1A
:10267000002000522DE9F84F05460C46104645EA69
:102680000203DB065DD122F003022B462A4493426B
:1026900009D120F01F00DFF8BCB0DFF8BCA0FFF7C5
:1026A00037FF271844E0196801314AD10433EEE7B7
:1026B00005F1784324492548B3F5801F244B38BFE2
:1026C000184603F1F80339BF8846D9469846D146E3
:1026D000FFF710FF4FF0FF33A5EB040C04F11C01D2
:1026E0000360D8F8003043F00203C8F80030231F1D
:1026F000D9F8006016F00506FAD153F8042F994274
:102700004CF80320F4D1BFF34F8FFFF7F3FE4FF0E7
:10271000FF332022214603602846D8F8003023F0FA
:102720000203C8F8003001F0F1FB40B92035203435
:10273000BC42BDD10120FFF70DFFBDE8F88F304648
:10274000F9E70020F9E700BF0C20005214210052E5
:1027500014200052102000521021005210B5084CD5
:10276000237828B11BB9FFF7D3FE0123237010BDD6
:10277000002BFCD02070BDE81040FFF7EBBE00BF7F
:102780001E4500300244074BD2B210B5904200D132
:1027900010BD441C00B253F8200041F8040BE0B215
:1027A000F4E700BF504000580E4B30B51C6F2404B6
:1027B00005D41C6F1C671C6F44F400441C670A4C52
:1027C00002442368D2B243F480732360074B9042E3
:1027D00000D130BD441C51F8045B00B243F82050D6
:1027E000E0B2F4E700440258004802585040005854
:1027F00007B5012201A90020FFF7C4FF019803B02B
:102800005DF804FB13B50446FFF7F2FFA04205D0C4
:10281000012201A900200194FFF7C6FF02B010BDFC
:102820000144BFF34F8F064B884204D3BFF34F8F51
:10283000BFF36F8F7047C3F85C022030F4E700BF2E
:1028400000ED00E0044BD3F8D0345B0142BF034BF2
:1028500001221A70704700BF004002581F45003027
:10286000014B1878704700BF1F450030EFF3098314
:10287000054968334A6B22F001024A6383F30988F1
:10288000002383F31188704700EF00E0202080F3DD
:10289000118862B60D4B0E4AD96821F4E061090433
:1028A000090C0A430B49DA60D3F8FC2042F080722D
:1028B000C3F8FC20084AC2F8B01F116841F00101BA
:1028C00011601022DA7783F82200704700ED00E0F3
:1028D0000003FA0555CEACC5001000E0202310B56A
:1028E00083F311880E4B5B6813F4006314D0F1EE90
:1028F000103AEFF309844FF08073683CE361094BB1
:10290000DB6B236684F30988FFF71CFB10B1064BD1
:10291000A36110BD054BFBE783F31188F9E700BF06
:1029200000ED00E000EF00E0F7030008FA03000804
:1029300070B5BFF34F8FBFF36F8F1A4A0021C2F8F3
:102940005012BFF34F8FBFF36F8F536943F40033BF
:102950005361BFF34F8FBFF36F8FC2F88410BFF383
:102960004F8FD2F8803043F6E074C3F3C900C3F34D
:102970004E335B0103EA0406014646EA81750139DC
:10298000C2F86052F9D2203B13F1200FF2D1BFF30D
:102990004F8F536943F480335361BFF34F8FBFF3BD
:1029A0006F8F70BD00ED00E0FEE700000A4B0B48A2
:1029B0000B4A90420BD30B4BC11EDA1C121A22F0A9
:1029C00003028B4238BF00220021FEF719BA53F8E8
:1029D000041B40F8041BECE7D8420008F046003026
:1029E000F0460030F04600307047000070B5D0E986
:1029F000244300224FF0FF359E6804EB421351013F
:102A0000D3F80009002805DAD3F8000940F0804027
:102A1000C3F80009D3F8000B002805DAD3F8000B3F
:102A200040F08040C3F8000B013263189642C3F8AF
:102A30000859C3F8085BE0D24FF00113C4F81C3802
:102A400070BD000000EB8103D3F80CC02DE9F0430A
:102A5000DCF814204E1CD0F89050D2F800E005EBC2
:102A6000063605EB4118506870450AD30122D5F8A7
:102A7000343802FA01F123EA0101C5F83418BDE83F
:102A8000F083AEEB0003BCF81040A34228BF2346FE
:102A9000D8F81849A4B2B3EB840FF0D89468A4F125
:102AA000040959F8047F3760A4EB09071F44042F79
:102AB000F7D81C44034494605360D4E7890141F083
:102AC0002001016103699B06FCD41220FFF780BA44
:102AD00010B50A4C2046FEF715FF094BC4F890309C
:102AE000084BC4F89430084C2046FEF70BFF074B08
:102AF000C4F89030064BC4F8943010BD2045003027
:102B00000000084034410008BC450030000004408B
:102B10004041000870B503780546012B5DD1494B53
:102B2000D0F89040984259D1474B0E216520D3F8F8
:102B3000D82042F00062C3F8D820D3F8002142F038
:102B40000062C3F80021D3F80021D3F8802042F0BE
:102B50000062C3F88020D3F8802022F00062C3F81E
:102B60008020D3F8803000F071FC384BE360384BA4
:102B7000C4F800380023D5F89060C4F8003EC023A4
:102B800023604FF40413A3633369002BFCDA0123A1
:102B90000C203361FFF71CFA3369DB07FCD41220E9
:102BA000FFF716FA3369002BFCDA00262846A660E8
:102BB000FFF71CFF6B68C4F81068DB68C4F8146882
:102BC000C4F81C68002B3AD1224BA3614FF0FF33AD
:102BD0006361A36843F00103A36070BD1E4B98427C
:102BE000C8D1194B0E214D20D3F8D82042F00072E5
:102BF000C3F8D820D3F8002142F00072C3F80021B6
:102C0000D3F80021D3F8802042F00072C3F880206E
:102C1000D3F8802022F00072C3F88020D3F88020FF
:102C2000D3F8D82022F08062C3F8D820D3F800214E
:102C300022F08062C3F80021D3F8003193E7074BFC
:102C4000C3E700BF20450030004402584014004054
:102C500003002002003C30C0BC450030083C30C0BE
:102C6000F8B5D0F89040054600214FF000662046A8
:102C7000FFF724FFD5F8941000234FF001128F685E
:102C80004FF0FF30C4F83438C4F81C2804EB43126A
:102C900001339F42C2F80069C2F8006BC2F808090C
:102CA000C2F8080BF2D20B68D5F89020C5F898301E
:102CB000636210231361166916F01006FBD112200F
:102CC000FFF786F9D4F8003823F4FE63C4F800381F
:102CD000A36943F4402343F01003A3610923C4F81C
:102CE0001038C4F814380B4BEB604FF0C043C4F8F5
:102CF000103B094BC4F8003BC4F81069C4F8003914
:102D0000D5F8983003F1100243F48013C5F89820E9
:102D1000A362F8BD1041000840800010D0F8902058
:102D200090F88A10D2F8003823F4FE6343EA0113C6
:102D3000C2F80038704700002DE9F84300EB81032A
:102D4000D0F890500C468046DA680FFA81F94801B5
:102D5000166806F00306731E022B05EB41134FF0B5
:102D6000000194BFB604384EC3F8101B4FF00101A8
:102D700004F1100398BF06F1805601FA03F391693C
:102D800098BF06F5004600293AD0578A04F1580149
:102D9000374349016F50D5F81C180B430021C5F883
:102DA0001C382B180127C3F81019A7405369611E5E
:102DB0009BB3138A928B9B08012A88BF5343D8F890
:102DC0009820981842EA034301F140022146C8F8CE
:102DD0009800284605EB82025360FFF76FFE08EB70
:102DE0008900C3681B8A43EA845348341E43640144
:102DF0002E51D5F81C381F43C5F81C78BDE8F88360
:102E000005EB4917D7F8001B21F40041C7F8001B58
:102E1000D5F81C1821EA0303C0E704F13F030B4A6D
:102E20002846214605EB83035A60FFF747FE05EB72
:102E30004910D0F8003923F40043C0F80039D5F820
:102E40001C3823EA0707D7E70080001000040002BF
:102E5000D0F894201268C0F89820FFF7C7BD000092
:102E60005831D0F8903049015B5813F4004004D039
:102E700013F4001F0CBF0220012070474831D0F826
:102E8000903049015B5813F4004004D013F4001F44
:102E90000CBF02200120704700EB8101CB68196A4A
:102EA0000B6813604B6853607047000000EB8103B0
:102EB00030B5DD68AA691368D36019B9402B84BFA7
:102EC000402313606B8A1468D0F890201C4402EBF6
:102ED0004110013C09B2B4FBF3F46343033323F024
:102EE000030343EAC44343F0C043C0F8103B2B68DC
:102EF00003F00303012B0ED1D2F8083802EB411086
:102F000013F4807FD0F8003B14BF43F0805343F0AC
:102F10000053C0F8003B02EB4112D2F8003B43F0F3
:102F20000443C2F8003B30BD2DE9F041D0F8906079
:102F300005460C4606EB4113D3F8087B3A07C3F865
:102F4000087B08D5D6F814381B0704D500EB81039D
:102F5000DB685B689847FA071FD5D6F81438DB079B
:102F60001BD505EB8403D968CCB98B69488A5A68AC
:102F7000B2FBF0F600FB16228AB91868DA689042B4
:102F80000DD2121AC3E90024202383F311882146AD
:102F90002846FFF78BFF84F31188BDE8F0810123F9
:102FA00003FA04F26B8923EA02036B81CB68002BDE
:102FB000F3D021462846BDE8F041184700EB8103D5
:102FC0004A0170B5DD68D0F890306C692668E6601B
:102FD00056BB1A444FF40020C2F810092A6802F0C8
:102FE0000302012A0AB20ED1D3F8080803EB4214F7
:102FF00010F4807FD4F8000914BF40F0805040F0F6
:103000000050C4F8000903EB4212D2F8000940F066
:103010000440C2F800090122D3F8340802FA01F191
:103020000143C3F8341870BD19B9402E84BF402045
:10303000206020681A442E8A8419013CB4FBF6F4FF
:1030400040EAC44040F00050C6E700002DE9F041DE
:10305000D0F8906004460D4606EB4113D3F808798A
:10306000C3F80879FB071CD5D6F81038DA0718D54D
:1030700000EB8103D3F80CC0DCF81430D3F800E087
:10308000DA6896451BD2A2EB0E024FF000081A60D8
:10309000C3F80480202383F31188FFF78FFF88F3A0
:1030A00011883B0618D50123D6F83428AB401342CB
:1030B00012D029462046BDE8F041FFF7C3BC0123EA
:1030C00003FA01F2038923EA02030381DCF80830E2
:1030D000002BE6D09847E4E7BDE8F0812DE9F84FF2
:1030E000D0F8905004466E69AB691E4016F48058C3
:1030F0006E6103D0BDE8F84FFEF774BC002E12DA03
:10310000D5F8003E9F0705D0D5F8003E23F0030315
:10311000C5F8003ED5F80438204623F00103C5F871
:103120000438FEF78BFC300505D52046FFF75EFC22
:103130002046FEF773FCB1040CD5D5F8083813F01F
:10314000060FEB6823F470530CBF43F4105343F4A1
:10315000A053EB60320704D56368DB680BB12046EF
:103160009847F30200F1BA80B70226D5D4F89090C0
:1031700000274FF0010A09EB4712D2F8003B03F495
:103180004023B3F5802F11D1D2F8003B002B0DDA8C
:1031900062890AFA07F322EA0303638104EB8703D7
:1031A000DB68DB6813B13946204698470137D4F80D
:1031B0009430FFB29B689F42DDD9F00619D5D4F850
:1031C0009000026AC2F30A1702F00F0302F4F01231
:1031D000B2F5802F00F0CC80B2F5402F09D104EB7E
:1031E0008303002200F58050DB681B6A974240F0A1
:1031F000B2803003D5F8185835D5E90303D500213E
:103200002046FFF791FEAA0303D501212046FFF7D0
:103210008BFE6B0303D502212046FFF785FE2F03AB
:1032200003D503212046FFF77FFEE80203D50421E2
:103230002046FFF779FEA90203D505212046FFF7B6
:1032400073FE6A0203D506212046FFF76DFE2B02AE
:1032500003D507212046FFF767FEEF0103D50821BC
:103260002046FFF761FE700340F1A980E90703D50E
:1032700000212046FFF7EAFEAA0703D501212046D8
:10328000FFF7E4FE6B0703D502212046FFF7DEFEC1
:103290002F0703D503212046FFF7D8FEEE0603D5FE
:1032A00004212046FFF7D2FEA80603D505212046BB
:1032B000FFF7CCFE690603D506212046FFF7C6FEC0
:1032C0002A0603D507212046FFF7C0FEEB0576D579
:1032D00020460821BDE8F84FFFF7B8BED4F890901B
:1032E00000274FF0010AD4F894305FFA87FB9B68FF
:1032F0009B453FF639AF09EB4B13D3F8002902F495
:103300004022B2F5802F24D1D3F80029002A20DAF8
:10331000D3F8002942F09042C3F80029D3F80029DD
:10332000002AFBDB5946D4F89000FFF7C7FB22893F
:103330000AFA0BF322EA0303238104EB8B03DB6815
:103340009B6813B159462046984759462046FFF7D7
:1033500079FB0137C7E7910701D1D0F80080072A30
:1033600002F101029CBF03F8018B4FEA18283DE7E8
:1033700004EB830300F58050DA68D2F818C0DCF85B
:103380000820DCE9001CA1EB0C0C00218F4208D1C5
:10339000DB689B699A683A449A605A683A445A6072
:1033A00027E711F0030F01D1D0F800808C4501F11F
:1033B000010184BF02F8018B4FEA1828E6E7BDE857
:1033C000F88F000008B50348FFF788FEBDE8084005
:1033D000FFF784BA2045003008B50348FFF77EFEAA
:1033E000BDE80840FFF77ABABC450030D0F890300D
:1033F00003EB4111D1F8003B43F40013C1F8003B4B
:1034000070470000D0F8903003EB4111D1F800393B
:1034100043F40013C1F8003970470000D0F8903031
:1034200003EB4111D1F8003B23F40013C1F8003B3A
:1034300070470000D0F8903003EB4111D1F800390B
:1034400023F40013C1F8003970470000090100F1AE
:103450006043012203F56143C9B283F8001300F011
:103460001F039A4043099B0003F1604303F5614346
:10347000C3F880211A60704730B50433039C017291
:10348000002104FB0325C160C0E90653049B0363CC
:10349000059BC0E90000C0E90422C0E90842C0E978
:1034A0000A11436330BD00000022416AC260C0E9D6
:1034B0000411C0E90A226FF00101FEF7F9BD000016
:1034C000D0E90432934201D1C2680AB9181D70478D
:1034D00000207047036919600021C2680132C26090
:1034E000C269134482699342036124BF436A036142
:1034F000FEF7D2BD38B504460D46E3683BB16269BC
:103500000020131D1268A3621344E36207E0237ACC
:1035100033B929462046FEF7AFFD0028EDDA38BD65
:103520006FF00100FBE70000C368C269013BC360A4
:103530004369134482699342436124BF436A4361F0
:1035400000238362036B03B11847704770B52023D3
:10355000044683F31188866A3EB9FFF7CBFF054620
:1035600018B186F31188284670BDA36AE26A13F881
:10357000015B9342A36202D32046FFF7D5FF0023ED
:1035800083F31188EFE700002DE9F84F04460E465B
:10359000174698464FF0200989F311880025AA465E
:1035A000D4F828B0BBF1000F09D141462046FFF7FF
:1035B000A1FF20B18BF311882846BDE8F88FD4E92C
:1035C0000A12A7EB050B521A934528BF9346BBF18D
:1035D000400F1BD9334601F1400251F8040B9142D0
:1035E00043F8040BF9D1A36A403640354033A36257
:1035F000D4E90A239A4202D32046FFF795FF8AF3C3
:103600001188BD42D8D289F31188C9E730465A469D
:10361000FDF7D0FBA36A5E445D445B44A362E7E729
:1036200010B5029C0433017204FB0321C460C0E99D
:1036300006130023C0E90A33039B0363049BC0E91C
:103640000000C0E90422C0E90842436310BD000045
:10365000026A6FF00101C260426AC0E904220022DE
:10366000C0E90A22FEF724BDD0E904239A4201D121
:10367000C26822B9184650F8043B0B60704700201E
:1036800070470000C3680021C2690133C360436909
:10369000134482699342436124BF436A4361FEF746
:1036A000FBBC000038B504460D46E3683BB1236916
:1036B00000201A1DA262E2691344E36207E0237A44
:1036C00033B929462046FEF7D7FC0028EDDA38BD8D
:1036D0006FF00100FBE7000003691960C268013A5E
:1036E000C260C269134482699342036124BF436A82
:1036F000036100238362036B03B118477047000026
:1037000070B520230D460446114683F31188866A5E
:103710002EB9FFF7C7FF10B186F3118870BDA36AF9
:103720001D70A36AE26A01339342A36204D3E16984
:1037300020460439FFF7D0FF002080F31188EDE721
:103740002DE9F84F04460D46904699464FF0200A61
:103750008AF311880026B346A76A4FB94946204626
:10376000FFF7A0FF20B187F311883046BDE8F88F3E
:10377000D4E90A073A1AA8EB0607974228BF17466A
:10378000402F1BD905F1400355F8042B9D4240F80A
:10379000042BF9D1A36A40364033A362D4E90A234B
:1037A0009A4204D3E16920460439FFF795FF8BF371
:1037B00011884645D9D28AF31188CDE729463A4681
:1037C000FDF7F8FAA36A3D443E443B44A362E5E7B3
:1037D000D0E904239A4217D1C3689BB1836A8BB1A5
:1037E000043B9B1A0ED01360C368013BC360C369DE
:1037F0001A4483699A42026124BF436A0361002329
:1038000083620123184670470023FBE700F0B2B83B
:10381000034B002258631A610222DA60704700BF2E
:10382000000C0040014B0022DA607047000C0040A1
:10383000014B5863704700BF000C0040014B586AB1
:10384000704700BF000C00404B6843608B6883608A
:10385000CB68C3600B6943614B6903628B69436248
:103860000B6803607047000008B5364B40F2FF71EB
:103870003548D3F888200A43C3F88820D3F8882035
:1038800022F4FF6222F00702C3F88820D3F88820D0
:10389000D3F8E0200A43C3F8E020D3F808210A4314
:1038A000C3F80821294AD3F808311146FFF7CCFFA5
:1038B00000F5806002F11C01FFF7C6FF00F5806093
:1038C00002F13801FFF7C0FF00F5806002F15401FA
:1038D000FFF7BAFF00F5806002F17001FFF7B4FF57
:1038E00000F5806002F18C01FFF7AEFF00F580600B
:1038F00002F1A801FFF7A8FF00F5806002F1C40102
:10390000FFF7A2FF00F5806002F1E001FFF79CFFE6
:1039100000F5806002F1FC01FFF796FF02F58C7163
:1039200000F58060FFF790FF00F0D8F8084B052203
:10393000C3F898204FF06052C3F89C20054AC3F8A2
:10394000A02008BD00440258000002584C41000865
:1039500000ED00E01F00080308B500F0B7FAFEF71D
:1039600015FBFEF76FFFBDE80840FEF71DBD000028
:1039700070470000114BD3F8E82042F00802C3F86A
:10398000E820D3F8102142F00802C3F810210C4AB5
:10399000D3F81031D36B43F00803D363C722094B2C
:1039A0009A624FF0FF32DA6200229A615A63DA605B
:1039B0005A6001225A611A60704700BF00440258E1
:1039C0000010005C000C0040094A08B51169D3687A
:1039D0000B40D9B29B076FEA0101116107D5202383
:1039E00083F31188FEF7F2FA002383F3118808BDF0
:1039F000000C0040384B4FF0FF31D3F88020C3F863
:103A00008010D3F880200022C3F88020D3F88000F3
:103A1000D3F88400C3F88410D3F88400C3F884205A
:103A2000D3F88400D86F40F0FF4040F4FF0040F42A
:103A30003F5040F03F00D867D86F20F0FF4020F49F
:103A4000FF0020F43F5020F03F00D867D86FD3F834
:103A500088006FEA40506FEA5050C3F88800D3F8EE
:103A60008800C0F30A00C3F88800D3F88800D3F8B0
:103A70009000C3F89010D3F89000C3F89020D3F8CA
:103A80009000D3F89400C3F89410D3F89400C3F8CE
:103A90009420D3F89400D3F89800C3F89810D3F882
:103AA0009800C3F89820D3F89800D3F88C00C3F896
:103AB0008C10D3F88C00C3F88C20D3F88C00D3F88A
:103AC0009C00C3F89C10D3F89C10C3F89C20D3F83A
:103AD0009C3000F0CFB900BF00440258604B012277
:103AE000C3F808215F4BD3F8F42042F00202C3F878
:103AF000F420D3F81C2142F00202C3F81C21022258
:103B0000D3F81C31584BDA605A689104FCD5574AF7
:103B10001A6001229A60564ADA6000221A614FF454
:103B200040429A61504B9A699204FCD51A6842F45B
:103B300080721A604B4B1A6F12F4407F04D04FF41E
:103B400080321A6700221A671A6842F001021A606E
:103B5000444B1A685007FCD500221A611A6912F00A
:103B60003802FBD1012119604FF0804159605A673A
:103B7000404ADA62404A1A611A6842F480321A6096
:103B8000384B1A689103FCD51A6842F480521A60C7
:103B90001A689204FCD5394A39499A6200225A635C
:103BA00019633849DA6399635A64374A1A64374AA1
:103BB000DA621A6842F0A8521A602A4B1A6802F0B8
:103BC0002852B2F1285FF9D148229A614FF48862F5
:103BD000DA6140221A624FF00052DA641A652C4A08
:103BE0005A652C4A9A6532232B4A1360136803F0F6
:103BF0000F03022BFAD11B4B1A6942F003021A6120
:103C00001A6902F03802182AFAD1D3F8DC2042F0FF
:103C10000052C3F8DC20D3F8042142F00052C3F86C
:103C20000421D3F80421D3F8DC2042F08042C3F809
:103C3000DC20D3F8042142F08042C3F80421D3F8F9
:103C40000421D3F8DC2042F00042C3F8DC20D3F892
:103C5000042142F00042C3F80421D3F80431704734
:103C600000800051004402580048025800C000F093
:103C7000020000010000FF0100889008322060006F
:103C8000630207011D02040047040508FD0BFF0144
:103C90000010E00000010100002000524FF0B0428F
:103CA00008B5D2F8883003F00103C2F8883023B198
:103CB000044A13680BB150689847BDE80840FEF706
:103CC0000DBE00BF704600304FF0B04208B5D2F8CC
:103CD000883003F00203C2F8883023B1044A9368A5
:103CE0000BB1D0689847BDE80840FEF7F7BD00BFAC
:103CF000704600304FF0B04208B5D2F8883003F07B
:103D00000403C2F8883023B1044A13690BB1506927
:103D10009847BDE80840FEF7E1BD00BF704600309F
:103D20004FF0B04208B5D2F8883003F00803C2F86B
:103D3000883023B1044A93690BB1D0699847BDE834
:103D40000840FEF7CBBD00BF704600304FF0B042D8
:103D500008B5D2F8883003F01003C2F8883023B1D8
:103D6000044A136A0BB1506A9847BDE80840FEF751
:103D7000B5BD00BF704600304FF0B04310B5D3F86A
:103D8000884004F47872C3F88820A30604D5124A48
:103D9000936A0BB1D06A9847600604D50E4A136B3C
:103DA0000BB1506B9847210604D50B4A936B0BB1AE
:103DB000D06B9847E20504D5074A136C0BB1506CE1
:103DC0009847A30504D5044A936C0BB1D06C98476F
:103DD000BDE81040FEF782BD704600304FF0B043A2
:103DE00010B5D3F8884004F47C42C3F888206205FB
:103DF00004D5164A136D0BB1506D9847230504D5B1
:103E0000124A936D0BB1D06D9847E00404D50F4A68
:103E1000136E0BB1506E9847A10404D50B4A936EF4
:103E20000BB1D06E9847620404D5084A136F0BB1EA
:103E3000506F9847230404D5044A936F0BB1D06F99
:103E40009847BDE81040FEF749BD00BF70460030FE
:103E500008B50348FDF768F9BDE80840FEF73EBD28
:103E6000C423003008B5FFF7AFFDBDE80840FEF7FA
:103E700035BD0000062108B50846FFF7E7FA062120
:103E80000720FFF7E3FA06210820FFF7DFFA0621F3
:103E90000920FFF7DBFA06210A20FFF7D7FA0621EF
:103EA0001720FFF7D3FA06212820FFF7CFFA0921C0
:103EB0007A20FFF7CBFA07213220FFF7C7FA0C214F
:103EC0005220BDE80840FFF7C1BA000008B5FFF76F
:103ED00091FD00F00DF8FDF739FBFDF711FDFDF741
:103EE000E3FBFFF745FDBDE80840FFF78FBC00008E
:103EF0000023054A19460133102BC2E9001102F1D3
:103F00000802F8D1704700BF7046003010B5013983
:103F10000244904201D1002005E0037811F8014FDE
:103F2000A34201D0181B10BD0130F2E7034611F87F
:103F3000012B03F8012B002AF9D1704753544D335C
:103F40003248373F3F3F0053544D333248373433C4
:103F50002F37353300000000E8290030C42300303B
:103F600000960000000000000000000000000000BB
:103F7000000000000000000000000000151500080F
:103F8000011500083D150008291500083515000821
:103F9000211500080D150008F9140008491500083E
:103FA0000000000025160008111600084D16000834
:103FB0003916000845160008311600081D160008BD
:103FC0000916000859160008000000000100000052
:103FD000000000006D61696E0000000069646C659E
:103FE00000000000DC3F000870280030E8290030A5
:103FF00001000000891F0008000000004375626591
:1040000050696C6F74004A6F65792D424C002553DE
:10401000455249414C25000002000000000000000C
:1040200045180008B51800084000400090420030D4
:10403000A042003002000000000000000300000069
:1040400000000000FD180008000000001000000043
:10405000B04200300000000001000000000000003D
:1040600020450030010102004523000855220008C8
:10407000F1220008D522000843000000804000081B
:1040800009024300020100C03209040000010202DB
:10409000010005240010010524010001042402028E
:1040A0000524060001070582030800FF090401003A
:1040B000020A000000070501024000000705810216
:1040C0004000000012000000CC4000081201100166
:1040D00002000040AE2D5610000201020301000054
:1040E0000403090425424F4152442500437562658B
:1040F0004F72616E67652D6A6F65790030313233BA
:1041000034353637383941424344454600000000D3
:1041100000000000511A0008091D0008B51D000824
:104120004000400058460030584600300100000072
:1041300068460030800000004001000008000000D8
:104140000001000000040000080000000000812AB7
:1041500000000000AAAAAAAA00000000FFFF0000B9
:104160000000000000A00A000001000000000000A4
:10417000AAAAAAAA00000000FFFF00000000000099
:10418000000000001400005400000000AAAAAAAA1F
:1041900014000054FFFF00000000000000000000B9
:1041A0000040100000000000AAAA8AAA00401000E7
:1041B000FFFF00000000000000000000408102003E
:1041C00000000000AAAAAAAA00410100F7FF00000F
:1041D0000000007007000000000000000000000068
:1041E000AAAAAAAA00000000FFFF00000000000029
:1041F000000000000000000000000000AAAAAAAA17
:1042000000000000FFFF00000000000000000000B0
:104210000000000000000000AAAAAAAA00000000F6
:10422000FFFF000000000000000000000000000090
:1042300000000000AAAAAAAA00000000FFFF0000D8
:10424000000000000000000000000000000000006E
:10425000AAAAAAAA00000000FFFF000000000000B8
:10426000000000000000000000000000AAAAAAAAA6
:1042700000000000FFFF0000000000000000000040
:10428000090400000000000000001E00FF00000004
:10429000000000003C3F00083F0000005004000008
:1042A000473F00083F0000000096000000000800A3
:1042B000960000000008000004000000E040000834
:1042C00000000000000000000000000000000000EE
:0842D0000000000000000000E6
:00000001FF
