:020000040800F2
:1000000000050020D50600082D65000831650008B0
:10001000856500083165000859650008D7060008A5
:10002000D7060008D7060008D70600081DD000082C
:10003000D7060008D7060008D7060008D70600082C
:10004000D7060008D7060008D7060008D70600081C
:10005000D7060008D7060008492D0108792D0108A8
:10006000A92D0108D92D0108092E010899D30008EE
:10007000C5D30008F5D3000825D4000855D40008DE
:1000800081D40008B1D40008D706000881340008E4
:10009000B134000899340008C9340008392E010829
:1000A000D7060008D7060008D7060008D7060008BC
:1000B000D7060008D7060008D7060008D7060008AC
:1000C000D7060008D7060008D7060008D70600089C
:1000D000D7060008D7060008D7060008D5E80008AC
:1000E000A52E0108D7060008D7060008D706000885
:1000F000D7060008D7060008D7060008E1D4000894
:10010000D706000825DA000861350108D70600087F
:10011000D7060008D7060008D7060008D70600084B
:1001200011D500083DD500086DD500089DD5000803
:10013000CDD50008D7060008D7060008D706000866
:10014000D7060008D7060008D7060008D70600081B
:10015000F9D5000829D6000859D60008D7060008A6
:10016000D7060008D7060008D7060008D7060008FB
:10017000D7060008D5290108D7060008D7060008C9
:10018000D7060008D7060008EDE80008D7060008E3
:100190000DE100082DE100084DE10008D706000838
:1001A000D7060008D7060008D7060008D7060008BB
:1001B000D7060008D7060008D7060008D7060008AB
:1001C000D7060008D7060008D7060008D70600089B
:1001D000D7060008BD290108D7060008D706000881
:1001E000D7060008D7060008D7060008D70600087B
:1001F000D7060008D7060008D7060008D70600086B
:10020000D7060008D7060008D7060008D70600085A
:10021000D7060008D7060008D7060008D70600084A
:10022000D7060008D7060008D7060008D70600083A
:10023000D7060008D7060008D7060008D70600082A
:10024000D7060008B11C0108DD1C01080D1D0108BE
:100250003D1D01086D1D01089D1D0108CD1D0108F2
:10026000FD1D0108D7060008D7060008D7060008BC
:10027000D7060008D7060008D7060008D7060008EA
:10028000D7060008D7060008D7060008D7060008DA
:10029000D7060008D7060008D7060008D7060008CA
:1002A000450900081D160008353B00088942000872
:1002B0008161000849640008C1680008E97200080B
:1002C00065730008D57E0008999000082591000804
:1002D00051910008D9910008D0400B1CD1409C4698
:1002E000203AD34018435242634693401843704724
:1002F000D0400B1C1141203A03D49C4613411843B3
:100300006346524293401843704700BF9140031C1C
:1003100090409C46203A9340194352426346D34052
:10032000194370477BB972B90029BEBF00204FF056
:10033000004106E008BF00281CBF6FF000414FF0ED
:10034000FF3000F0C5B9ADF1080C6DE904CE00290D
:1003500009DB002B1ADB00F04DF8DDF804E0DDE9E5
:10036000022304B07047404261EB4101002B1BDBCC
:1003700000F040F8DDF804E0DDE9022304B040427B
:1003800061EB4101524263EB43037047524263EB1E
:10039000430300F02FF8DDF804E0DDE9022304B0A8
:1003A000404261EB41017047524263EB430300F06E
:1003B00021F8DDF804E0DDE9022304B0524263EBEA
:1003C0004303704753B94AB9002908BF00281CBF2E
:1003D0004FF0FF314FF0FF3000F07AB9ADF1080C6B
:1003E0006DE904CE00F006F8DDF804E0DDE9022353
:1003F00004B070472DE9F0478C460D460446089E30
:10040000002B51D18A4217466DD9B2FA82FEBEF155
:10041000000F0BD0CEF1200C01FA0EF520FA0CFCE7
:1004200002FA0EF74CEA050C00FA0EF44FEA174AEE
:10043000250CBCFBFAF81FFA87F90AFB18CC45EA31
:100440000C4508FB09F3AB420AD9ED1908F1FF325C
:1004500080F02381AB4240F22081A8F102083D44A4
:10046000ED1AA4B2B5FBFAF00AFB105544EA0544B4
:1004700000FB09F9A14509D9E41900F1FF3380F027
:100480000A81A14540F2078102383C44A4EB0904EB
:1004900040EA08400021002E61D024FA0EF4002327
:1004A00034607360BDE8F0878B4207D9002E54D0CA
:1004B000002186E821000846BDE8F087B3FA83F101
:1004C000002940F08E80AB4202D3824200F2FA80D3
:1004D000841A65EB03050120AC46002E3FD086E868
:1004E0001010BDE8F08712B90127B7FBF2F7B7FA91
:1004F00087FEBEF1000F34D1EB1B3A0C1FFA87FCCC
:100500000121B3FBF2F8250C02FB183345EA034541
:100510000CFB08F3AB4207D9ED1908F1FF3002D20A
:10052000AB4200F2D1808046ED1AA3B2B5FBF2F0E7
:1005300002FB105543EA05440CFB00FCA44507D917
:10054000E41900F1FF3302D2A44500F2B880184646
:10055000A4EB0C0440EA08409DE731463046BDE874
:10056000F087CEF1200405FA0EF307FA0EF720FA11
:1005700004F83A0C25FA04F448EA0308B4FBF2F153
:100580004FEA184502FB11441FFA87FC45EA04456F
:1005900001FB0CF3AB4200FA0EF409D9ED1901F19D
:1005A000FF3080F08A80AB4240F2878002393D44C0
:1005B000EB1A1FFA88F5B3FBF2F002FB103345EAA1
:1005C000034500FB0CF3AB4207D9ED1900F1FF38EE
:1005D0006FD2AB426DD902383D44EB1A40EA01417B
:1005E0008FE7C1F1200722FA07F88B4005FA01F4E2
:1005F00048EA030320FA07FE4FEA134CFD404EEA97
:10060000040EB5FBFCF94FEA1E440CFB19551FFA0A
:1006100083F844EA054509FB08F4AC4202FA01F20A
:1006200000FA01FA08D9ED1809F1FF3043D2AC42C3
:1006300041D9A9F102091D442D1B1FFA8EFEB5FBFD
:10064000FCF00CFB10554EEA054400FB08F8A045F1
:1006500007D9E41800F1FF3529D2A04527D902387F
:100660001C4440EA0940A4EB0804A0FB02894C4565
:10067000C6464D4615D312D056B1BAEB0E0364EB05
:10068000050404FA07F7CB401F43CC403760746081
:100690000021BDE8F0871846F8E69046E0E6C2453E
:1006A000EAD2B8EB020E69EB03050138E4E728460D
:1006B000D7E7404691E78146BEE7014678E7023832
:1006C0003C4445E7084608E7A8F102083D442BE70B
:1006D000704700BF02E000F000F8FEE772B639484C
:1006E00080F30888384880F3098838484EF6085166
:1006F000CEF20001086040F20000CCF200004EF69D
:100700003471CEF200010860BFF34F8FBFF36F8FDB
:1007100040F20000C0F2F0004EF68851CEF2000127
:100720000860BFF34F8FBFF36F8F4FF00000E1EE13
:10073000100A4EF63C71CEF200010860062080F3EC
:100740001488BFF36F8F11F055FA10F049FB4FF08A
:1007500055301F491B4A91423CBF41F8040BFAE750
:100760001C49194A91423CBF41F8040BFAE71A4967
:100770001A4A1B4B9A423EBF51F8040B42F8040B35
:10078000F8E700201749184A91423CBF41F8040B92
:10079000FAE711F073FA10F097FB144C144DAC42C9
:1007A00003DA54F8041B8847F9E700F045F8114CC8
:1007B000114DAC4203DA54F8041B8847F9E711F0F5
:1007C0005BBA0000000500200025002000000008A2
:1007D0000001002000050020D84B03080025002060
:1007E000182700201827002094970020A002000856
:1007F000D8020008D8020008D80200082DE9F04FFE
:100800002DED108AC1F80CD0D0F80CD0BDEC108AB8
:10081000BDE8F08F0FF054FF002383F311882846C2
:10082000A047002010F0F8F80FF044FF0FF07AFE18
:100830000FF046FF00DFFEE7F8B53E4C6FF07603A1
:10084000002523701323A57063701C23E5702571A8
:100850006571A571E57125726572A372E57200F08C
:1008600049FF20B10C2325726572A372E57211F065
:1008700069F8064611F0B2F90546A0BB2E4B9E4220
:1008800031D001339E4231D026F0FF022B4B9A42E9
:100890002FD12C4642F21077F0B200F0EFFA00F0C0
:1008A0002BFD00F0F1FA78B33FBB2DB1244B9E42F3
:1008B00002D0002411F08AF9002011F04DF814B193
:1008C000002400F047F800F03BFD00F0BBFE05F00F
:1008D00077FE0546F4B105F073FE401BA04219D91E
:1008E00000F038F8F3E72C460027D8E70746012444
:1008F000D5E7044641F28837D1E795B900204FF497
:100900007A7411F029F8DCE77DB90020002411F099
:1009100023F8D8E700F058FD4FF47A7010F09CF8F7
:10092000D8E7074B9E42C4D1E8E7054B9E42C0D1B1
:10093000EBE700BF18270020010007B0000008B057
:10094000263A09B008B505F0ABFF014B186008BDA9
:1009500024270020584B59492DE9F04153F8042F22
:10096000013201D1BDE8F0818B42F7D1544D554B96
:100970002A689A4240F29E80534B9B6803F10063C1
:1009800003F580239A4280F0958011F0F3F811F07E
:1009900005F9002000F072FE02204C4B187000F0A8
:1009A000CFFE4B4BD3F8E8200022C3F8E820D3F861
:1009B0001011C3F81021D3F81011D3F8EC10C3F8BC
:1009C000EC20D3F81411C3F81421D3F81411D3F880
:1009D000F010C3F8F020D3F81811C3F81821D3F899
:1009E0001811D3F8801041F00061C3F88010D3F8DB
:1009F000801021F00061C3F88010D3F88010D3F884
:100A0000801041F00071C3F88010D3F8801021F0FD
:100A10000071C3F88010D3F8803072B62D4B2E4988
:100A20000B601C682D68BFF34F8FBFF36F8F2B4B8C
:100A3000C3F88420BFF34F8F5A6922F480325A6181
:100A4000BFF34F8FD3F8802043F6E07EC2F3C90690
:100A5000C2F34E32B707520102EA0E083846314659
:100A6000013948EA000C00F14040B1F1FF3FC3F802
:100A700074C2F5D1203A12F1200FEDD1BFF34F8FA0
:100A8000BFF36F8FBFF34F8FBFF36F8F5A6922F49D
:100A900000325A610022C3F85022BFF34F8FBFF3D8
:100AA0006F8F202383F311880FF004FEA54684F393
:100AB00008882847BDE8F081FCFF03081C000408F3
:100AC00004000408FFFF030818270020282700203F
:100AD000004402580000040808ED00E000ED00E0CA
:100AE000094949F269000B689AB21B0C00FB0233FA
:100AF000064A0B6044F25061136898B21B0C01FB6C
:100B00000030106080B270470425002000250020CE
:100B100010B500211022044600F04CFE034B03CB1D
:100B2000206061601868A06010BD00BF00E8F11F80
:100B3000F0B51F4CBBB005F043FDA368C31AF92BF9
:100B40002FD906AD2346A06028220021284609F0AF
:100B5000F1F804F10E0000F025FE0023C6B2591D85
:100B60005F1CDBB2C900B34207DA0E330822284605
:100B7000234409F0DFF83B46F1E70123207BC1F372
:100B8000CF01049503930823059101460293094B75
:100B9000094801933023009303A3D3E9002308F00D
:100BA0009BFE3BB0F0BD00BF78F6339F93CACD8D5E
:100BB000004C00200D4C00206437002038B50B4B52
:100BC0000446036041F23403C21812793AB9C55899
:100BD0002DB1284600F06AFF284612F00DFD04F5FD
:100BE000815000F063FF204638BD00BFC43D0108BE
:100BF00070B50D4614461E4608F014FE50B9022E7C
:100C00000ED1012C0CD112A3D3E90023C5E9002396
:100C1000012070BD052C14D003D8012C09D0002070
:100C200070BD282C09D0302CF9D10BA3D3E90023B7
:100C3000ECE70BA3D3E90023E8E70BA3D3E90023F8
:100C4000E4E70BA3D3E90023E0E700BFAFF30080A4
:100C5000401DA12026812A0B78F6339F93CACD8DA3
:100C60009E6AC421818A46EE26417272DF25D7B77B
:100C7000F017304A39059E5638B50D4604460346EE
:100C800020222846002109F055F8227923462846DB
:100C9000032A4FF0200128BF032203F8042F022269
:100CA00009F048F8627923462846072A4FF02201C6
:100CB00028BF072203F8052F032209F03BF8A27989
:100CC00023462846072A4FF0250128BF072203F8AC
:100CD000062F032209F02EF8284604F108031022FB
:100CE000282109F027F8382038BD00002DE9F04F01
:100CF000FFB040F2791280460F461FAE0CAD0021C6
:100D00000DF15209304600F055FD482200212846D9
:100D100000F050FD05F054FC4FF47A72554BB0FBD7
:100D2000F2F0186093E8070001232B74002385E894
:100D300007000DF152006B74FFF7EAFE13234E49D2
:100D400085F82030892385F8213006AB184612F04B
:100D5000F3FD152228643146284685F83C20FFF72C
:100D60008BFF10AB044601460822304608F0E2FF34
:100D700008220DF141033046A11804F1880A08F059
:100D8000D9FF0DF14203082204F11001304604F5A9
:100D9000847B08F0CFFF11AB202204F1180130460C
:100DA00008F0C8FF12AB402204F13801304608F0C9
:100DB000C1FF14AB082204F17801304608F0BAFFF5
:100DC0000DF15103082204F18001304608F0B2FF12
:100DD00051460AF1080A4B460822304609F101093A
:100DE00008F0A8FFD345F3D104F588744FF000094B
:100DF00019AB08225946304608F09CFF95F834306C
:100E00004B4510D84FF0000995F83C304B4515D9AB
:100E10002B6C2146082230464B44083408F08AFFE8
:100E200009F10109F0E7AB6B2146082230464B443B
:100E3000083408F07FFF09F10109DFE7E31DF97EBF
:100E400004961937C3F3CF03404605930023039359
:100E50007B78019702930123009304A3D3E9002335
:100E600008F03AFD7FB0BDE8F08F00BF9E6AC42154
:100E7000818A46EE2C2700203C3C0108014B18706B
:100E8000704700BF58270020304BF0B51C7B85B061
:100E900034B10E222E4B1A810024204605B0F0BD3D
:100EA0002C4A02AB1068516803C308232A492B4817
:100EB0000DEB030212F0B6FC054630B90A22244BB2
:100EC00027481A8105F010FBE6E70169B1F5E01F3C
:100ED00006D90B221E4B23481A8105F005FBDCE7DF
:100EE000438B41F28932934207D00C201849088184
:100EF00019461D4805F0F8FACFE71C4A024402F1F2
:100F000010039942E5D3103920468E1A134905F093
:100F100075FE05F1180107463246204605F06EFEC3
:100F2000AB689F4202D1EB6898420AD00D22084B71
:100F30001A813B4600900E48EA68A96805F0D4FA89
:100F4000AAE70C48012405F0CFFAA6E7004C0020E0
:100F50002C270020FC3A0108DCFF1B0000000408DD
:100F6000343B0108403B0108523B01080800FCF7F4
:100F7000703B0108993B01082DE9F04FADB0804668
:100F80000E4606AF08F04EFC044600286AD1337EB8
:100F9000022B18D1F38A012B15D105F011FB8146E4
:100FA000FFF79EFD4FF4C87309F51679C04DB0FBED
:100FB000F3F202FB1300F37E19FA80F028608BB97C
:100FC0000022BC4B1A709C37BD46BDE8F08F3B1D1C
:100FD00008224FEAC90130461C44002300944C46C5
:100FE00008F00EFDB38A5FFA84F9013BA3420BD9E6
:100FF00004F10109B9F1110FE9D1AF4B4FF4A1711F
:10100000AE4AAF4812F020FB07F11400FFF780FD55
:10101000224607F11401381D12F0F4FB03460028A4
:10102000CED1B9F1100F07D0A24B83F800902B68F6
:10103000A3F516732B60C6E707F19802014602F884
:10104000950D30460092072208F0DAFCF9787F29E6
:1010500004DD9C4B40F25911984AD2E7404608F013
:10106000C5FBB0E7F38A052B00F0348106D8012BCD
:10107000A9D131464046FFF739FEA4E7282B3AD0E4
:10108000302BA0D1737EE9468F4C0133627BDBB2FB
:10109000934240F00581F27E237B9A4240F000812A
:1010A00007F198034FF0000A1022304623F884AD70
:1010B00051460093012308F0A3FCB58A023DADB26E
:1010C000EB1C23F003030A3323F00703ADEB030DFE
:1010D0000DF1180853460AF1010A991C9BB29D4272
:1010E0004FEAC10171DD43440822304600930023DA
:1010F00008F086FCEEE7B38A013B9BB2C92B3FF6B2
:1011000062AF714D2022FF21704800F053FB2C7B11
:101110004CBB05F10C0308222146304600932346C0
:1011200008F06EFCB38A04F10109E4B2013B4FEA16
:10113000C9019C4209DA0E340023082230462C44AF
:1011400000944C4608F05CFCECE700230022C5E963
:1011500000230023AB6085F8D730C5F8D8302B7B4F
:101160000BB9F37E2B73002407F114053B1D0822F5
:10117000214628467C60BC60FC6008F0DBFD3B7AC1
:1011800004F10109A3424FEAC90107D9FB6808220B
:10119000284623444C4608F0CDFDF0E7C1F3CF01CB
:1011A0000023F07E193605910495014603934046CD
:1011B000737801960293282300933BA3D3E900237D
:1011C00008F08AFBFFF7B4FCFDE694F8D70000F0C6
:1011D0005FFAD4F8D83082461BB994F8D70000F0F3
:1011E00067FAD4F8D8302B449A4504D294F8D70043
:1011F000013000F05DFA4FEA950B0026B1B2594577
:101200001BDA94F8D73088007BB9D4E90023121890
:1012100043EBE073002B08BF202A06D258F8213098
:101220002A4A42F821300136E8E7236808EB00013A
:101230000122184400F0C6FAF5E7D4E90023D4F8F7
:10124000D860521994F8D7002E4443F10003C4F833
:10125000D860C4E9002300F01BFA86420AD394F850
:10126000D730013384F8D730D4F8D830A3EB0A0351
:10127000C4F8D830FF2D0CDC00200822134920735D
:1012800000F0A0FA00F026FAFFF7FEFD08B1FFF724
:1012900061FB23680E4A9B0A013313810023A3607C
:1012A000CD4690E6AFF3008026417272DF25D7B7B6
:1012B000603700205D370020A83B0108543C01083E
:1012C000013C0108233C0108004C00203827002085
:1012D0002C270020BFF34F8F0549064BCA6802F444
:1012E000E0621343CB60BFF34F8F00BFFDE700BF49
:1012F00000ED00E00400FA0508B54FF000530C4A79
:10130000196891420BD1597D0A4A0B481170C922C4
:101310001B7D0E30094900F8023C00F013FAE02270
:1013200000214FF00050BDE8084000F043BA00BF74
:101330009AAD44C558270020004C0020160000201C
:1013400037B50223174D0122174918486B7101F078
:1013500025FD002316494FF4805216480193164B81
:101360000093164B08F00CFA154B197811B111487F
:1013700008F03CFA05F024F90446FFF7B1FB4FF4FE
:10138000C87304F51674B0FBF3F202FB13000D4BA7
:1013900014FA80F0186010F021FC08B10F232B81A3
:1013A00003B030BD2C27002040420F0088370020BA
:1013B0005C27002064370020F10B0008790F00083B
:1013C00058270020603700202DE9F047884C92B064
:1013D000884E0027DFF83C82204608F0C9FA024612
:1013E00068B300250146DFF830920E958DF8445021
:1013F0000F951095037B8DF844300FAB51F8040F17
:10140000496803C3136843F000430E9305F0DAF80C
:1014100082190095404641EB07030EA901F018FA26
:10142000A84205DD204608F0A7FA89F80050D3E766
:1014300099F80030072B3EDC013389F80030002397
:101440000BAD4FF000084FF00009DFF8C8A10A9378
:101450008DF834300B936B60002612AA012707A980
:1014600002F82B6D334650468DF81C70CDE900898B
:1014700001F0A8FF9DF81C300BB3314610220EA8D6
:1014800000F098F90DF11E0308AA0AA9504601F0D0
:101490007BFB0FAB95E8030083E803009DF8343035
:1014A0000EA920468DF844300A9B0E93DDE90823EF
:1014B00008F0A6FCD0E7204608F05EFABFE7204619
:1014C00008F0B0F90546002842D14B4E05F078F8F7
:1014D000336898423CD305F073F88046FFF700FB71
:1014E0004FF4C87308F516788DF82850B0FBF3F266
:1014F00002FB130018FA80F03060404E96F800802E
:10150000B8F1000F01D18DF82870C8F110050EA8B0
:10151000FFF7FEFA0EABEDB20DF1290003EB080167
:10152000062D28BF06252A46013500F00BF90AAB27
:1015300004952046039318230293314B0193012312
:10154000009327A3D3E9002308F06EF9002333703A
:1015500005F036F82B4A2C4D1368C31AB3F57A7F81
:1015600030D3106005F02EF802460B46204608F0F6
:1015700009FA204608F056F920B32B7B0EAF234E14
:10158000002B14BF03230223737105F019F84FF4E5
:101590007A733946B0FBF3F030603046FFF76CFBEE
:1015A0001823073003970293194BC0F3CF00019320
:1015B00040F255130490204600930BA3D3E9002377
:1015C00008F032F92B7B0BB1FFF7B2FA2B7B002B23
:1015D0007FF4FEAE12B0BDE8F08700BFAFF300802D
:1015E000401DA12026812A0BF1C6A7C1D068080F93
:1015F0006437002040420F00603700205D37002034
:101600005C370020E04C0020004C00202C270020FC
:10161000E44C002088370020E54C002010B5064C33
:101620000021204601F0EAFA2046044A0449BDE8B8
:10163000104011F0DBBF00BF883700202C6B00206A
:10164000BD0B0008F8B50A4C00250A4E0FF01AFE33
:10165000094F207030682378834207D90FF00EFEBF
:10166000336805440133BD423360F3D9F8BD00BF90
:10167000144D0020E84C0020FFFF03000FF0CEBE09
:1016800000F10060920000F580200FF057BE0000CE
:10169000054B1A68054B1B789B1A834202D91044EC
:1016A0000FF0ECBD00207047E84C0020144D0020E6
:1016B00038B5074D0446286820440FF0E5FD28B9E9
:1016C00028682044BDE838400FF0F0BD38BD00BFA9
:1016D000E84C0020064991F8243033B10023082259
:1016E000086A81F82430FFF7CBBF0120704700BFA4
:1016F000EC4C0020104B41F201015B888B429AB206
:1017000011D041F203018B420FD042F201039A4201
:101710000DD042F203039A420BD10323074A02EB96
:101720008303D87870470023F8E70123F6E7022304
:10173000F4E70020704700BF0010005C983C0108EF
:1017400070470000002310B5934203D0CC5CC45412
:101750000133F9E710BD000030B5441E14F9010F44
:101760000B4658B193F900500131854206D11AB9A0
:1017700093F90020801A30BD013AEFE7002AF7D133
:10178000104630BD013810B510F9013F0A4623B1AB
:1017900092F9004001319C42F6D092F90000181AEB
:1017A00010BD000002460346981A13F9011B0029D8
:1017B000FAD1704702440346934202D003F8011B5A
:1017C000FAE770472DE9F047234C0546884617464F
:1017D00094F8243083BB2E46DFF87C90C7B394F88E
:1017E00024302BB92022FF2148462662FFF7E2FF72
:1017F00094F824004146C0F1080504EB8000BD4286
:1018000028BF3D465FFA85FAAD00A7EB0A072A46D6
:101810002E44FFF797FF94F82430A844FFB29A446F
:101820005FFA8AFABAF1080F84F824A0D6D1FFF73C
:1018300051FF0028D2D108E0266A06EB8306B042A9
:10184000CAD0FFF747FF0028C5D10020BDE8F087C8
:101850000120BDE8F08700BFEC4C0020007B00F0C9
:10186000010070477047000081608280704700006F
:10187000826838B504465AB1037B13F0010507D1DD
:1018800043F0010303739047237B65F30003237345
:1018900038BD0000044B1B6810B50446586C036843
:1018A0001B699847204610BD24270020054B0021C6
:1018B0001B6810B50446586C03681B69984720469E
:1018C00010BD00BF24270020F8B50C4B0446016072
:1018D00017461D68686C0368DB6B9847064610B1B5
:1018E000AB6CA3F84270206803689B6898471EB1F0
:1018F000AB6C0022A3F842202046F8BD242700202C
:1019000010B5044600680368DB689847204610BDA0
:1019100070470000012070477FB500240546102263
:1019200000216846FFF746FF2B68A1B210346A46D3
:10193000DE6828461023B047B4F5804FF4D101206B
:1019400004B070BD00207047002070470020704731
:101950000020704700230B70704700000020704784
:10196000704700000020704770470000704700007B
:10197000002070477047000070470000704700006B
:1019800000207047002070474368C26893423CBF04
:101990008268D154436801334360012070470000DE
:1019A000F8B506460C468F180025BC4207D03368B0
:1019B000304614F8011B9B6898470544F5E7284614
:1019C000F8BD0000002070474FF0FF307047000066
:1019D00000207047002070477FB50D461446002652
:1019E00082B1013A0B4968460392089A02958DE844
:1019F0004200194600F0B2FA0198844203D92E54ED
:101A000004B070BDEEE7002CFAD02C4404F8016C51
:101A1000F6E700BFB03C010808B410B585B007ACCC
:101A200054F8043B00940394FFF7D6FF05B0BDE8DB
:101A3000104001B0704700002DE9F04107460E4606
:101A400001EB02080C46A51B4445ADB208D03B682B
:101A500038465B699847431C02D004F8010BF2E753
:101A60002846BDE8F08100000EB403B503AA036860
:101A700052F8041B5B680192984702B05DF804EBD2
:101A800003B0704700F06ABA70B5002504460E46F0
:101A90008560C56001200FF09BFDA84220602046B4
:101AA00008BF2E462574666070BD000010B5037C2B
:101AB000044613B900680FF08FFD204610BD0000EA
:101AC00070B5047C05460E46DCB9BFF35B8FC4607D
:101AD000BFF35B8FBFF35B8F8460BFF35B8F4368A3
:101AE0008B420CD000680FF077FD314601200FF0DB
:101AF0006FFD286010B96C60204670BD6E600124D7
:101B0000FAE70024F8E700000023BFF35B8FC3600F
:101B1000BFF35B8FBFF35B8F8360BFF35B8F704757
:101B2000BFF35B8F0068BFF35B8F704770B50646ED
:101B30000C30FFF7F5FF044606F108052846FFF7CD
:101B4000EFFF844206D276682846FFF7E9FF344467
:101B5000201A70BD2846FFF7E3FFF9E770B5054688
:101B60004068A0B105F10C0605F10800FFF7D8FFA9
:101B700004463046FFF7D4FF844204F1FF34304678
:101B800094BF6D680025FFF7CBFF2C44201A70BD71
:101B900038B50C460546FFF7C9FFA04210D305F142
:101BA0000800FFF7BDFF6B682044BFF35B8FB0FBFD
:101BB000F3F403FB1400A8600120BFF35B8F38BD72
:101BC000002038BD2DE9F041144680460D46FFF750
:101BD000C5FF844228BF0446DCB1474657F80C6B6A
:101BE0003846FFF79DFF304428603846D8F8046037
:101BF000FFF796FF301AA0423DBF6860241AD8F85C
:101C0000003001202FBF6C600220AB60EC60BDE8AB
:101C1000F0812046BDE8F08138B50C460546FFF757
:101C20009DFFA04210D305F10C00FFF779FF6B6810
:101C30002044BFF35B8FB0FBF3F403FB1400E860B8
:101C40000120BFF35B8F38BD002038BD2DE9F04384
:101C500085B0002688460746694601ADFFF7B2FF0A
:101C6000344681464E4505F108050CDA08EB0401BF
:101C700055F8082C55F80C0C0136FFF763FD55F8A4
:101C8000083C1C44EEE721463846FFF7C5FF2046D6
:101C900005B0BDE8F0830000F8B506460C300F46ED
:101CA000FFF73EFF06F1080504462846FFF738FF18
:101CB0008442284638BF7468FFF732FF201A386024
:101CC00020B134682846FFF72BFF2044F8BD000000
:101CD00073B5144606460D46FFF728FF844201906F
:101CE00028BF0446DCB101A93046FFF7D5FF019BB0
:101CF00033B93268AB60EB6085E8140001200CE07A
:101D0000A342286088BF01940198A0426860F5D280
:101D10003368241A0220AB60EC6002B070BD20462C
:101D2000FBE700002DE9FF4100240F466946FFF75D
:101D3000CFFF2546804644450BDA0DEBC4035DF822
:101D40003410781901345E6832463544FFF7FAFCE6
:101D5000F1E7284604B0BDE8F081000038B505463B
:101D6000FFF7E0FF044601462846FFF711FF204633
:101D700038BD000070B50C460546FFF7D7FEA042FF
:101D80000CD9284650F8086BFFF7CAFE6B68204450
:101D9000B0FBF3F403FB1400305C70BD4FF0FF3078
:101DA00070BD000038B505460C4659B10021FFF75B
:101DB000E1FF002806DB207001212846BDE83840FD
:101DC000FFF7E6BE002038BD2DE9F04F85B0904604
:101DD000072981468DED030A9DF80F20A8BF072132
:101DE0009DF90E30D60903985200002BC0F316005F
:101DF0000F46D2B2BCBF0132D2B272B9A0B946F01E
:101E00000206302289F80060431CC0B2B84200F3D9
:101E10009C80484442701846F6E7FF2A02D150BB26
:101E200046F0040640F40000D310494902F00702CE
:101E30000024CD564749C2F10F02A34651F8233082
:101E4000A0FB0301FEF754FACDE90001424845F634
:101E5000F3214FF0300ADDE90023121A63EB01038E
:101E6000002A73F1000E09DB0AF1010ACDE9002313
:101E70004FFA8AFAEFE746F00806D3E70A22002372
:101E8000FEF750FABBF1000F16D1BAF1300F02D1B4
:101E9000013D6DB2DFE7B8F1000F30D06B1C08F1E7
:101EA000FF385BB2012BACBF984408F1010808F081
:101EB000FF084745A8BF47460134BAF1390FE4B2DD
:101EC00020DCBC4209F804A04FF0010BC1DB0A275B
:101ED000A0FB072307FB0133DDE900015B104FEA9C
:101EE0003202801A61EB030100280B4673F10003F4
:101EF0000DDA28B289F8006005B0BDE8F08F01372F
:101F0000FFB2D9E709EB0403392299450DD109EB5A
:101F100004023020002CECD01146013A0B7801333A
:101F20005BB23A2B04D00B70E3E703F80129ECE72E
:101F3000012C06D13123013546F010060B706DB22D
:101F4000D7E7013C5070E4B2E4E70020D4E700BFDB
:101F5000543D0108D43C010800407A102DE9F04FAF
:101F6000064692462DED028B8DB00B78002B00F0CB
:101F7000C182252B08D04A1C03923268194630468C
:101F8000926890470399F0E78B1C03934B78252BBD
:101F9000F3D00025A9462C461F2C35DC2B2B28D04E
:101FA0001AD8202B27D0232B2BD0A3F13002D2B26A
:101FB000092A32D867064DBF05EB850544F0200499
:101FC00009EB890902EB450556BF02EB490905F00B
:101FD000FF0509F0FF0905E02D2B0FD0302BE4D1D0
:101FE00044F00104039A12F8013B0392002BD3D171
:101FF00022E044F0020444F00404F3E744F008044F
:10200000F0E744F01004EDE77F2CCEDD220613D577
:102010006C2B11D144F48074E4E72E2B05D16006BB
:1020200000F1688244F04004DCE76C2B02D144F0FC
:102030008004D7E7682BD5D0A3F14502022A33D814
:10204000203344F01004DBB20AF1070A14F0400F09
:1020500024F0C0042AF0070208BF0625652BA4B2AD
:1020600002F1080A92ED008BB7EEC88B25D144F03F
:10207000400427060DD5F0EEC87A9FED9C7AF4EE69
:10208000C77AF1EE10FAC2BF4FF63F73234043F018
:10209000400414F080031AD03B2D62DC05F10108E6
:1020A0005FFA88F8072717E0A3F16502022A00F219
:1020B000758124F01004A4B2C6E7662B02D144F067
:1020C0008004D6E7002DD4D0013DEDB2D1E70A2D32
:1020D0004ADD0A2598462F461722002106A80293BA
:1020E000FFF768FB4246394606A8B0EE480AFFF7FC
:1020F0006BFE9DF81830834603F009020193029BA2
:10210000012A34D0A00734D414F0040F0CBF0022ED
:102110002022019911F00C073ED0002A14BF042799
:102120000327B94527DC002722B133681146304622
:102130009B689847019B04F010046D4D13F0080F45
:102140006C4B08BF1D46013D15F8011F002900F02A
:102150007D820CB12039C9B2336830469B689847FC
:10216000F2E74FF03C089DE72F469846B4E72D2252
:10217000CFE72B22CDE7A9EB07072107FFB2D3D486
:102180003368013F029220219B683046984717F040
:10219000FF07029AF4D1C6E7CDF808B0002B37D07C
:1021A000019BD844DB065FFA88F807D59DF8193003
:1021B000312B04BF08F1FF385FFA88F84FFA88F333
:1021C000002B45DDB8F1080F28BF4FF0080814F0C8
:1021D0008003049341D0BBF1000F40DD0BF10103FC
:1021E00002B101330DB1691C0B444B45BCBFA9EBD7
:1021F0000307FFB214F0090F33D197B33368013FDF
:10220000059220219B6830469847059AFFB2F4E773
:102210006006DCD4AB4504DC1BF1040FA8BF44F01E
:102220008004AB1C06A90B4435B113F8011D3029FD
:1022300002D1013DEDB2F7E72106C8D505F101084D
:10224000AB455FFA88F806DAA5EB0B05EDB2BEE701
:102250004FF00108BBE70025B9E70523C0E70123DC
:10226000BEE722B13368114630469B689847220783
:1022700008D43FB13368013F302130469B68FFB23C
:102280009847F6E7049B002B36D02BEAEB740BF152
:10229000010906ABABEB0808A9EB04099944631CE0
:1022A00004D133682E2130469B6898475C4511DC89
:1022B00044450FDD99F80010013C6B429C42C0F28E
:1022C000B98109F10109002940F0CB81A34540F013
:1022D000BD81B1E13021EFE7019BDC0600F1B38164
:1022E000312133689B6830469847AFE17F96184BA1
:1022F000783D0108743D01089DF8191030463129D8
:102300001EBF019B03F0EF03019333689B6898475E
:10231000E5B914F0100F3368304614BF452165212C
:102320009B689847BBF1000F28DACBF100032D2101
:102330000293336830469B6898473021029B092BF3
:1023400022DD01310A3BC9B20293F7E73368023557
:102350002E2130469B68EDB2984702230CAA03F168
:10236000010830461A4433685FFA88F89B6812F80F
:10237000181C984745454346F0D1CAE702D1019B56
:10238000D806D2D42B21D4E7336830469B689847CF
:102390000299336830319B68C9B2A4E7632B38D007
:1023A000732B52D0642B01D0692B7AD114F4807F27
:1023B00006AF24F0900264D00AF1070A94B22AF022
:1023C0000703D3E9000103F1080A002871F10003B3
:1023D00004DA404244F0800461EB41010A233A46AA
:1023E00000F0AAF9C01B5FFA80FB630640F1A880E9
:1023F00024F00108AB451FFA88F880F2C98004F088
:102400001403102B03D124F011041FFA84F82F4673
:1024100098E0DAF800300DF130080AF1040A4FF0C4
:10242000010B08F8183D21071FD5C3444F46D84576
:1024300000F00C813368304618F8011B9B68984700
:10244000002FF4D0013FFFB2F1E7DAF8008014F07A
:10245000400F0AF1040714BF29464FF0FF314046F0
:10246000BA4611F087FA8346DDE7CB45DDD2336803
:1024700009F1FF39202130469B685FFA89F99847B6
:10248000F3E7DAF8000094B20AF104030A22002804
:1024900039469A46BCBF404244F0800400F0E6F85A
:1024A000A0E7752B1DD124F010040A231FFA84F82D
:1024B00018F4807F0DF1180BDBB237D00AF1070A50
:1024C0005A462AF0070101F1080AD1E9000100F09B
:1024D00033F9A0EB0B0B28F080045FFA8BFBA4B25E
:1024E00083E724F006086F2B1FFA88F81CD006D863
:1024F000582B12D00DB0BDEC028BBDE8F08F702BC5
:1025000008D0782BF6D118F0100F01D048F004084D
:102510001023CDE748F01008F5E7E20601D548F0B2
:1025200006084FF40473C3E70823C1E70AF1040265
:10253000DAF80000594692461A4600F097F8C8E7C4
:102540005F46A04618F0100F2CD00CAB5B4413F87C
:10255000193C302B1ED128F016081FFA88F818F005
:10256000080F23D118F0010F08D04F45B7BF0BEB70
:1025700009055D46EF1BFDB2B8BF4F464F4539DA3E
:1025800033680137202130469B68FFB29847F5E752
:102590005F46D7E718F0040F01D1013700E002379A
:1025A000FFB2DCE718F0860FD9D0F6E74F4521DA05
:1025B000A9EB0707FFB218F0100F33681CD09B6817
:1025C00030213046984718F0040F09D018F0020F58
:1025D000336818BF58219B6808BF78213046984758
:1025E0005D4517DD3368013D302130469B68EDB213
:1025F0009847F5E70027DEE718F0860FF0D018F0CF
:10260000020F9B6814BF2B21202118F0800F18BFE8
:102610002D21E3E70BF1FF3B06AB0DF1170453FA55
:102620008BFB336830461BF801199B689847A3451C
:10263000F7D10BE0A34506D19DF81930352B3FF7B4
:102640004FAE3FF449AE00297FF44BAE002F3FF46C
:1026500099AC3368013F202130469B68FFB2984710
:10266000F4E7336830469B68984718E6082A2DE956
:10267000F04F85B00AD100F00703C00803F1300322
:10268000F9D10B70084605B0BDE8F08F102A0CD1C7
:1026900000F00F0202F13003392B88BF02F137033B
:1026A000000901F8013BF3D1ECE70646002726F0CC
:1026B0000102F0B2023200F1300047F100035D0880
:1026C0004FEA3204A4185D41224624092B4644EA0D
:1026D000057400942C090194DDE90045A4185D41BE
:1026E0004FEA142A4AEA056A4FEA152B14EB0A024C
:1026F0004FF0000445EB0B034FEA1248039448EAFD
:1027000003484FEA134912EB080243EB0903029313
:10271000DDE90245A4185D41260946EA05762F0940
:10272000C6EB4613C6EB830300EB430056EA0703F0
:1027300001F8010BBBD1A5E7082B2DE9F04F85B0BF
:1027400010D1C40800F00703CD0844EA41743033C7
:102750002946204650EA0104F3D11370104605B013
:10276000BDE8F08F102B13D100F00F0404F13003FB
:10277000392B88BF04F137030C0902F8013B030928
:1027800043EA01732146184650EA0103ECD1E5E71C
:1027900020F00104C3B2023403F1300341F100051B
:1027A0006F084FEA340636196F41344636093D4604
:1027B00046EA077600963E090196DDE9006736197C
:1027C0006F414FEA162A4AEA076A4FEA172B16EBBF
:1027D0000A044FF0000647EB0B054FEA1448039636
:1027E00048EA05484FEA154914EB080445EB09058A
:1027F0000295DDE9026736196F41300940EA07703A
:102800003909C0EB4014C0EB840403EB440302F825
:10281000013B50EA0103BBD1A0E70000202383F372
:10282000118862B670470000002383F3118862B6F6
:10283000704700000120704700207047704700007B
:1028400041F24943C05C704741F24243C05C70476B
:10285000F8B541F24C441F461646BDF818200359FE
:10286000013303510B6813F0005461D10B7B082B2B
:102870005EDCFFF7D3FFC369D3F8C450AD024ED47A
:102880000D68D3F8C440002D4369C4F30444B4BFB9
:1028900045F08045AD0403EB04131D600D686D0029
:1028A00042BF1D6845F000551D60250691F80CE0FB
:1028B00045EA0E455D604D689D608D68DD600123D1
:1028C000C569A340C5F8D03004F1820301F10C05BD
:1028D00000EB4313C3E9006700EB441303F5825395
:1028E000083351F8046BA94243F8046BF9D1097815
:1028F00000EB441041F25805197041190B7944510D
:10290000012062F30003C2F3400262F3410303F0CB
:10291000FB0343F010036FF3C3030B7105E041F2B7
:1029200050428358013383502046FFF77DFFF8BDA6
:1029300041F250428358013383504FF0FF30F8BDCD
:102940005020704708B5FFF769FF41F26C4341F230
:102950006842C3588258134441F264428258134477
:1029600041F250428258134441F25C42825813446F
:1029700041F2584280581844FFF756FF08BD000046
:1029800000232DE9F0411C461D46DEB296420DDAC9
:1029900001EBC60751F83660002E02DB7E68002E80
:1029A00002DB01350133F0E70134FBE7FFF736FFC7
:1029B000C669B36943F00103B361C3699E69F60751
:1029C000FCD59E6946F002069E61C369ECB9D3F856
:1029D000804044F00204C3F880405024C369002DB5
:1029E0004FD1D3F8802042F00102C3F88020484B39
:1029F000484A1B6803F1805303F52C539B00934214
:102A000083617ED9444803F0D3FD4F2C70D8DFF8A2
:102A100000E12704DFF80481DEF8006047EA86075A
:102A2000C3F8847006F180532644002703F52C5325
:102A3000C4F15004CEF80060BE469B00C6694360F6
:102A4000D6F8803043F03003C6F88030D0F804C0A8
:102A5000FBB29A42C2DD01EBC30651F83330002BC2
:102A60000DDB7668002E0ADA06F07F0608EA0343DB
:102A700046F0084633434CF82E300EF1010E013774
:102A8000E6E7B5EB540F33D2214F2E043C6846EAFB
:102A9000840604EB4505C3F8886004F180533D606B
:102AA0000C2403F52C5300259B002E468360C3693C
:102AB000C3F880408768EBB29A4298DD51F8334002
:102AC00001EBC30E002CDEF8043001DB002B0DDB24
:102AD00024F0604423F0604344F0005443F000438A
:102AE00047F8364007EBC604013663600135E2E77C
:102AF0009A6922F001029A61FFF796FE0020BDE874
:102B0000F081C269936923F001039361F4E700BF88
:102B1000244D0020FCB500407C3D01080000FF076B
:102B200008B5FFF77BFE41F23403C058FEF7ECFF17
:102B3000BDE80840FFF778BE38B5044600680D468A
:102B4000FFF70CF81F2809D9202229462068FFF733
:102B50007DF8A0F120035842584138BD002038BD0F
:102B600000220260027342608260704700220023EC
:102B700010B5C0E90023002304460C3020F8043CC3
:102B8000FFF7EEFF204610BD2DE9F04188B0064664
:102B900041F234050C4690461F46FFF73FFE68465B
:102BA000FFF7E4FF7059FEF7C1FF1F2805D800208A
:102BB000FFF73AFE08B0BDE8F0812022694670595F
:102BC000FFF7CCF82028F2D103AA234605AD14461E
:102BD000083303CCAC4243F8080C43F8041C2246EB
:102BE000F5D120681860012022791A71DDE90023EF
:102BF000C8E90023BDF808303B80D9E72DE9F0474C
:102C0000224B06460446894646F8203B00F581578C
:102C1000354628462035FFF7A9FFBD42F9D14FF4CC
:102C2000805341F228022E6041F234016B60002390
:102C300004F5A25A6018A35041F22C020AF1080AC6
:102C40000026A3500122002798462A74655004F5F7
:102C50008255027108352846203545E90A67FFF795
:102C60007FFF45F8108C5545F5D141F24843B9F145
:102C7000010F04F8039002DD054803F099FC054BB1
:102C8000204653F82930E361BDE8F087C43D0108D0
:102C9000A83D0108A03D01082DE9F04179B1274F79
:102CA000274BB7FBF1F4994294BF10230923581C1A
:102CB000B4FBF0FE00FB1E4038B1022B02DC00200A
:102CC000BDE8F081013BDBB2F1E70EF1FF36B6F56E
:102CD000806FF4D2C3EBC30C4FF47A780CF103008D
:102CE000C010C5B201305C1B08FB00F8E4B2204400
:102CF00098FBF0F080B2B0F5617F08D90CF1FF3598
:102D00004FF0080C95FBFCF5EDB25B1BDCB22B1908
:102D100003FB0EEEB7FBFEFE7145D0D1691EC9B2B2
:102D20000F29CCD8631EDBB2072BC8D80020168031
:102D3000D170907001201371BDE8F08180F0FA022B
:102D40003F420F0038B5124CC1692268930043F42A
:102D5000D013C1F8A03002F1805302F16801C569B7
:102D600003F52C53E83289009B00226041F00051AA
:102D7000084AC360C5F8C01003F5D07103F5687345
:102D800041619342836102D9034803F011FC38BDCD
:102D9000244D0020FCB500407C3D010841F2484331
:102DA0002DE9F041C35C88B004460E46022B00F3C7
:102DB000DC806F4A52F8231009B942F823006D49AC
:102DC0000B78C3B9FFF72AFD6B4BD3F8EC2042F424
:102DD0008072C3F8EC20D3F8942042F48072C3F8D8
:102DE0009420D3F8942022F48072C3F89420012315
:102DF0000B70FFF719FD41F24143E35CA3B9FFF704
:102E00000DFD41F24843E35C002B70D102211320F9
:102E10000BF060FE022115200BF05CFE012241F256
:102E20004143E254FFF700FDFFF7F8FCE2699369C4
:102E300023F010039361E3699A691107FCD49A693E
:102E400042F001029A61E3699A69D207FCD59A6956
:102E5000002542F00202A8469A61E3695D65FFF72A
:102E6000E3FC41F23403E058FEF74EFE202200213D
:102E70006846FEF79FFC02A8FFF772FE05F5825335
:102E80000DF1200E6A4623444EF8088D174608338C
:102E900003CF774543F8080C43F8041C3A46F5D1B4
:102EA000386820351860B5F5806F3A791A71DDD130
:102EB000002504F5A2536A4631461D7041F2434392
:102EC0002046ADF80050E5548DF802508DF80350BF
:102ED0008DF80450FFF7E0FEE269064680B9936979
:102EE00023F001039361304608B0BDE8F081012B67
:102EF00094D1022114200BF0EDFD022116208BE766
:102F00009DF8033020469DF802101B0243EA4163FE
:102F10009DF804100B43BDF8001043EA0143D36150
:102F2000E369C3F8BC50FFF70DFF41F249436FF06E
:102F30004042E554E3691A65104AE3695A654FF067
:102F40000222E3699A654FF0FF32E369C3F8E0209B
:102F50000322E369DA65E269936923F0010393616F
:102F6000012241F24243E254BDE70026BBE700BF25
:102F7000184D0020204D0020004402585502000248
:102F80002DE9F04700F5A25A88B0054616461F46BF
:102F90004FF0000841F258090AF1140AB8F1200F65
:102FA0004AD0EB69D3F8D83023FA08F3D80740D5D4
:102FB0004FEA48142A194A441379190739D4DAF820
:102FC00000300133CAF80030137943F0080313715D
:102FD000DB0725D541F24343EB5C0BB36846FFF7B3
:102FE000C5FD04F5825303AA08332B4403F1080EF0
:102FF0001868083353F8041C1446734503C422466A
:10300000F6D118686946206005F581501B791430A7
:1030100023710123CDE90067ADF80830FFF78CFD7F
:1030200041F24443EB5823B141F27042AB580133B3
:10303000AB5008F10108B1E708B0BDE8F087000027
:103040002DE9F0478A468CB0044603F0BBFA0646E9
:103050000F46BAF1000F41D1E369D3F8A02012F472
:10306000FE0F03D100200CB0BDE8F087D3F8A420F8
:10307000920141BF41F26841625801326250D3F877
:10308000A4205506EED0D3F8A430E568C3F3052894
:1030900005EB08156846FFF763FDE9462B685A0003
:1030A0004ABF23F06042C3F38A4242F000429B00D1
:1030B00000920DF1030242BF009B43F08043009356
:1030C000EB8803F00F038DF80C30EB1D0F35AB428E
:1030D00020D013F8011F02F8011FF8E7BAF1010F21
:1030E000C0D1E369D3F8B02012F4FE0FBAD0D3F800
:1030F000B420900141BF41F26841625801326250F0
:10310000D3F8B4205106ADD0D3F8B4302569C3F359
:103110000528BDE7BAF1000F1CD1E369C3F8A88008
:1031200004A807ADFFF722FD99E80F0007C504F5D5
:1031300081502B70002304A91430ADF81830CDE96C
:103140000467FFF7F9FC60B104F5A3542368013369
:10315000236088E7BAF1010FE2D1E369C3F8B880D0
:10316000DEE741F264420120A3580133A3507AE71D
:10317000F8B500F5A25504460F4601260335394639
:103180002046FFF75DFF08B12E70F8E741F2444397
:10319000E35823B141F27042A3580133A350F8BD64
:1031A000C369F0B51B6CC3F307432BB300F5A25101
:1031B000002241F2580501261C31540103192B4409
:1031C0001F7917F0020F14D07F0712D42C44C7695F
:1031D0000459D7F8CCE006FA04F414EA0E0F08D02C
:1031E000C7F8D4401C7944F004041C710B68013307
:1031F0000B600132202AE0D1F0BD000001282D4BE8
:1032000070B5044603DC2C4D55F82000E8B953F89E
:10321000243001221A6510221A654FF480521A6573
:1032200070BD53F82460336DDA0734D4336D5B0717
:1032300031D4336DD80634D4336D590631D455F8B2
:103240002400BDE87040FFF7ABBF0029E9D053F878
:103250002460336D9A0511D54FF40073336503F084
:10326000B1F902460B4652EA030103D012F1FF32D4
:1032700043F1FF3355F82400FFF782FE336D9B01C5
:10328000DDD54FF0007355F824200121336541F25C
:103290004943D154D3E7052300213365FFF768FF85
:1032A000C7E75023012155F824003365FFF760FF7D
:1032B000C5E700BFA03D0108184D002008B5FFF785
:1032C000ADFAFFF76DFFBDE80840FFF7ADBA0000AB
:1032D000C369D3F8C00010F07C5005D0D3F8C40007
:1032E00080F40010C0F340507047000008B5FFF7AD
:1032F00095FA41F23403C058FEF718FCFFF794FA30
:103300001F288CBF0020012008BD000041F2494267
:10331000835C5BB1C1698B6923F001038B6141F26E
:103320006C414358013343500023835470470000DD
:103330002DE9F84F90469946FFF770FA00F5A25133
:1033400000F58257002241F2580E4FF0010C18315F
:1033500000EB421373441C7965070FD4E4060DD5C6
:10336000BE69C5690CFA06F6D5F8CC40264205D0F0
:10337000D7E900ABCB4508BFC24507D301322037A0
:10338000202AE5D1BDE8F84FFFF74EBAC5F8D46062
:103390001C7944F004041C710B6801330B60EDE7E9
:1033A000F8B51E4600230F46054613701446FFF776
:1033B0009DFF80F0010038701EB12846FFF788FF9E
:1033C0002070F8BD2DE9F74F0D4698460B7804465E
:1033D000164692F80090019303F0F0F82B780BB9A1
:1033E0003378C3B14FF0000B0246824620465B465D
:1033F000FFF79EFF2046FFF761FF2046FFF786FF9D
:103400004346324629462046FFF7CAFF2B7833B1A0
:10341000019B23B10123184603B0BDE8F08F337838
:1034200013B1B9F1000FF5D104F5A2570437DDE966
:103430000C239B4508BF9245ECD238680028E9D0A0
:103440000368D968DDE90C23B2EB0A0263EB0B03D6
:1034500088474346324629462046FFF7A1FF2B788E
:1034600013B1019B002BD5D1337813B1B9F1000F03
:10347000D0D103F0A3F84FF0000B8246D7E700004D
:1034800008B50DF0F7F800210846FFF7B7FEBDE8D4
:10349000084009F0D3BD000008B50DF0EBF801219C
:1034A0000020FFF7ABFEBDE8084009F0C7BD0000F3
:1034B00008B50DF0DFF800210120FFF79FFEBDE801
:1034C000084009F0BBBD000008B50DF0D3F801219C
:1034D0000846FFF793FEBDE8084009F0AFBD0000C5
:1034E0002DE9F7430446051D03F06CF8266A804673
:1034F0008946FEB1D6E90423994508BF904517D304
:10350000D6E90423994508BF904506D3F1685218BF
:1035100043F10003C6E90423F2E73D22294601A84E
:10352000FEF7D2F97068B368984701A8FEF7E8F98A
:103530003668DEE703F046F8D4F820E000220023E6
:10354000BEF1000F13D052EA0306DEE9046703D090
:103550009F4208BF964207D28F4232463B4608BF81
:1035600086423CBF02460B46DEF800E0E8E78B42AD
:1035700008BF824216D3161A4FF000094CF24F389A
:1035800063EB0107B94508BFB0450BD3111A642995
:1035900038BF6421054B89B21B68586C03689B686F
:1035A0009847A1E74CF25031F4E700BF24270020F0
:1035B00038B504460D46043001F00AFA04F134002F
:1035C00084F8245000220A210EF04CFA04F138004D
:1035D00000220A210EF046FA204638BD2DE9FF41AF
:1035E00002AE04460F46DDF8288086E80C0090F80D
:1035F0002C3043BB0123C0F8308080F82C300720EA
:103600000DF09AFF98F80830054603F00702012AEA
:1036100010D0022A14D094F82420294600944FF4A4
:103620002360154B0EF008F8A06260B929461348D4
:1036300002F0BEFFDB08124A072102F013FFEAE79F
:10364000DB08104AF8E718200FF0DAFF0546031DE3
:1036500096E8030083E80300EF6002F0B3FFC019AF
:10366000236A41F1000125622B60C5E90401284667
:1036700004B0BDE8F08100BFE1340008043E010859
:10368000F83D0108FE3D010838B5094B15460C46CA
:103690009A69836A9A4209D1CD6002F093FF40197A
:1036A00041F10001C4E90401012038BD002038BD0A
:1036B000C0850020F8B51E461B6805460C46174617
:1036C0001BB9236863B9012408E0BDF8182031460E
:1036D000806B0EF0E1F90028F3D100242046F8BDFC
:1036E00021463A46686B0EF00DFA04460028EAD1EE
:1036F0003368002BF1D0A86B0EF038FAEEE700002B
:1037000038B50D46044611461AB11A46806B0EF0C4
:10371000EBF92DB12946606BBDE838400EF01EBABA
:1037200038BD0000704700000A4B1A7882420DD065
:103730001A7E82420CD1012221B1182101FB0231F3
:10374000487830B1182000FB023070470022F3E7C0
:1037500000207047284D00200B4B1B6893B193F954
:1037600002200A4BD2B2997821B19142D4BF0021F4
:1037700001215970997E21B19142D4BF00220122CA
:103780005A7670470822ECE750720020284D00203E
:1037900008B508460121FFF7C7FF40B1436823F091
:1037A0000F0203F00F031069D84000F0010008BDBC
:1037B00008B508460121FFF7B7FF48B14268012369
:1037C00022F00F0102F00F024869934043404B6121
:1037D00008BD000000797047436823F00F0203F032
:1037E0000F031069D84000F00100704710B542681F
:1037F000CB4301F0010102F00F0003F0010322F0BE
:103800000F0200F110048140A3401943916110BDE3
:103810004268012322F00F0102F00F024869934031
:1038200043404B617047000000B100477047000003
:1038300038B5084601211546FFF776FF044610B358
:1038400045B9037C23B1437C202B1CD0402B1AD0DC
:103850002B4600E0012363743BB160680EF08EF8E4
:1038600000F00500052808BF60746068B5FA85F5AA
:103870000121627C00F00F036D0920F00F009940D8
:1038800009F0DAFF257438BD10B508460121144649
:10389000FFF74AFFF0B1027C43687AB1012C03F0D4
:1038A0000F010CBF2022402242740120BDE81040CD
:1038B00000FA01F123F00F0009F0BEBF012023F050
:1038C0000F0203F00F0300FA03F39BB20CB953830A
:1038D00010BD138310BD000040680A46012100F0AE
:1038E0000F0320F00F00994009F0A6BF10B5C8B231
:1038F0000121FFF719FF044638B108200FF080FEC0
:103900006368024A80E80C0010BD10BD2C3E01081F
:1039100070B5044602F052FE034684B1E56875B105
:103920006168AC46A06821F00F0201F00F01126936
:10393000CA40217802F00102BDE87040604770BDC6
:1039400010B52023044683F311880CF0BFFE0CB1A0
:1039500063692BB90CF0C0FE002383F3118810BDFE
:10396000002104F114000DF091F8F3E7014B03601E
:10397000704700BF443E01082DE9F8439DF8204000
:103980000F4691461D46022C05D0032C04D0012C75
:103990001DD1022400E0012407F00F06114B53F85B
:1039A0003630BBB1D5B92C4627F00F08314640461A
:1039B00009F0F2FF2A46494638460BF0B1F8404676
:1039C0002246314609F0AEFF0120BDE8F8832BB94D
:1039D0001C46E1E7002D08BF0024E5E70020BDE814
:1039E000F88300BF5C7900202DE9F74307460846BD
:1039F000012190469946FFF797FE054690B3202394
:103A000083F311880CF056FE6E6946B100240CF069
:103A100057FE84F31188204603B0BDE8F083CDF84B
:103A200000802B46104A38466968FFF7A5FF044618
:103A300010B90CF045FEECE7494605F114000DF015
:103A400017F8CDF800803346324669680446384698
:103A5000FFF792FF0CF034FE86F31188B4FA84F479
:103A60006409D8E70446D6E741390008F7B51F4690
:103A700004460D461646202383F311880CF01AFEE7
:103A80009DF8203032462946009320463B46FFF7FA
:103A900073FF04460CF014FE002383F311882046C4
:103AA00003B0F0BD13B5054C00931346002A14BFB4
:103AB00022460022FFF7DAFF02B010BD29380008C5
:103AC00070B504460846002115461E46FFF72CFE39
:103AD00038B133462A4641682046BDE87040FFF7BA
:103AE000E1BF70BD7FB502AD06460846002185E8FE
:103AF0000C00FFF719FE044618B90023184604B05D
:103B000070BD039B4168002B9DF82030084A00934C
:103B100008BF002203463046FFF7A8FF03460028EF
:103B2000EBD0083495E8030084E80300E6E700BF23
:103B30001139000870B50B4C1826002101253246BA
:103B40002046FDF737FE084B2570324663600021A2
:103B50006570A019FDF72EFE022365762376034BD0
:103B6000E36170BD284D002006080258070802587E
:103B700070470000B0F94C0070470000806D70473E
:103B8000012380F85430704780F85C1070470000C3
:103B900090F8543013B190F83000704718467047D1
:103BA0000120704737B590F854500446A5B100F194
:103BB00034014E2201A8FDF787FE0023226DD4E9CF
:103BC0000A01C4E90A23994208BF904201A814BF20
:103BD00001250025FDF794FE284603B030BD000006
:103BE00073B590F8544005460E463CB190F830301D
:103BF000122BA8BF1223994203DB0024204602B0F7
:103C000070BD00F134016E2201A805EB4605FDF7F9
:103C10005BFE01A8AC88FDF773FEEFE773B590F883
:103C2000543005460E461446A3B1122A00F1340161
:103C30004FF0840201A8A8BF1224FDF745FE291DFC
:103C400030466200FDF77EFD01A8FDF759FE2046D3
:103C500002B070BD1C46FAE77047000070470000D4
:103C60000020704713B500F10C048DE806009DE8B4
:103C7000030084E8050002B010BD00000023C3600B
:103C80000361704782B002AB03E9060002B07047DF
:103C90007047000000207047704700000020704708
:103CA0000020704713B50446636A8DE80600183398
:103CB0009DE8030083E80500E060216102B010BDCB
:103CC0000023426A9361D361C360036170470000BF
:103CD00019B1012904D001207047436BC362FAE790
:103CE000036BFBE7006A0430704700007047000078
:103CF0001FB502AC84E80C000090006A94E80C0048
:103D0000FFF76CFC04B010BD006AFFF7BDBC0000FB
:103D100010B50446806B0DF05FFC044BE069236036
:103D200008B10FF06BFC204610BD00BFA83E010893
:103D300010B50446FFF7ECFF20460FF05DFC20466F
:103D400010BD000070B504460D4688B0B521FFF7E0
:103D50002FFC84F8405004F168000CF061FA114B1C
:103D6000142004940593104B069407930FF048FC1D
:103D700094F8402008A90D4B054603EBC20311E956
:103D800003005E799A7901AB83E80300059B314615
:103D900028460093049B02F013FA2046E56108B020
:103DA00070BD00BFED3C0008E93D0008083F010878
:103DB00038B500F16805044628460CF081FA94F8FD
:103DC00064304BB1074B94F8402053F832000BF0AD
:103DD00003FD002384F864302846BDE838400CF029
:103DE000A9BA00BF083F0108FFF7E2BF2DE9FF476E
:103DF0001E46036803910121029204465B6B90F812
:103E00003CA09847074680B11FFA86F902AB03A988
:103E1000206ACDF800904A46FFF74CFC074640B9AF
:103E20002368514620465B6B9847384604B0BDE88E
:103E3000F087202383F311880CF03CFC314A324D8B
:103E400013689046996C0B6B01330B630399636A9B
:103E500000293AD11B790322314655F833301A70C4
:103E6000636A029A1B7955F833000AF021FC636AF1
:103E700006F271211B79490155F8330008300CF026
:103E8000F7FD06460CF01CFC002383F31188013675
:103E900014D1D8F80030586C03685B69984730B982
:103EA00002F0D4FED4224FF4804102F0BBFE636ADC
:103EB00000271B7955F833000BF0ACFC4B46029AF7
:103EC0000399206AFFF71CFCAAE71B79029A55F8B0
:103ED000333052B9032231461A70636A039A1B7950
:103EE00055F833000AF0AAFBC1E7032231461A70E5
:103EF000636A039A1879029B55F830000AF06EFB4A
:103F0000B5E700BF24270020083F01082DE9F84F3E
:103F10008246006A00AF8B46043015469846BC6A5C
:103F200000F062FD064660B9234BDAF808201B68F2
:103F30002249586B03681B6898473046BD46BDE868
:103F4000F88FA54201D1C34505D0BBF1000F02D0C7
:103F5000B8F1000F0AD1002C14BF23462B4642466D
:103F600059465046FFF742FF0646E6E72E19F31D75
:103F700023F00703ADEB030DE94625B12A46594668
:103F80006846FDF7DFFB2CB12246002109EB050056
:103F9000FDF710FC33464A4649465046FFF726FFD8
:103FA00006460028C9D0002CC7D0224609EB0501DF
:103FB0004046FDF7C7FBC0E724270020203F01084B
:103FC0002DE9F0410546006A1C4600AF04308846E2
:103FD000164600F013FDE31D2246414623F0070379
:103FE000ADEB030D6846FDF7ADFB284623466A4658
:103FF0006946FFF7FBFE054620B12246694630467A
:10400000FDF7A0FB2846BD46BDE8F0810138C3B2EC
:10401000052B96BF094B0A4B53F820304FF0000098
:1040200098BF5B088B4204D9072802D05B08013097
:10403000F8E7000740F00700704700BFF03E0108B6
:1040400000E1F505436A1A79024B03EBC2031879C4
:10405000FFF7DCBF083F01080023F7B515460371E1
:10406000C360022203610446037A0E4662F3020330
:104070000372164B03602162154B456291F8402094
:1040800003EBC203027A1B7963F3C70202726B79F6
:1040900043722969FFF7D6FF074620632046696906
:1040A000FFF7D0FFE762606304F138006A7996F8A1
:1040B0004030009207492A6802F006FA636A2046F7
:1040C0009A69DB69E260236103B0F0BD643F0108D7
:1040D000083F0108383F0108F8B5164D06460F465F
:1040E00011462868FDF74EFB40B97C682B7944B136
:1040F00094F840209A4211D02468F8E700233360F6
:1041000015E07C200FF07CFA29790446FFF71AFEAF
:104110007B6823602B797C6084F8403040200FF06E
:104120006FFA0546034A2146FFF796FF3560304691
:10413000F8BD00BF584D002010B504462022481C91
:10414000012102F053FD636AC0B25969B1FBF0F17D
:104150002046FFF777FF606310BD00002DE9F041B6
:104160000446006A0F469046043000F047FC94F87D
:104170003C6035461FB10EB32846BDE8F081002EE5
:10418000FAD03E4AB8F1000F0AD1636A1B7952F89F
:1041900033305B68D8689968012383409BB20B83F6
:1041A000636A1B7952F833000BF05CFB002384F840
:1041B0003C30236AD86902F06DF8DDE7236A2F4DA1
:1041C000D86902F005F9636A1B7955F833000BF0E2
:1041D00045FB236A9E64636A226A9B6823F00F038F
:1041E000D364636A226A9B6803F00F031365236A32
:1041F000E26A5A65626A236AD2689A65266AF36D32
:1042000043B904200DF09CF9F065236A4FF0FF32AA
:10421000DB6D1A60266A336E1BB904200DF090F92D
:104220003066236A93F864304BB1636A1B7955F8A2
:1042300033000BF0D1FA236A002283F86420636A0A
:10424000216A1B79443155F833000BF0B5FA226A24
:10425000012382F86430B8F1000F09D1626A127943
:1042600055F8322052689168D26893409BB24B83D4
:1042700001233D4684F83C307EE700BF083F01083B
:104280000022FFF76BBF0000084B094A1A600122A9
:104290001A715A71074A9A604FF04072DA60064A02
:1042A0001A615A6100229A61DA617047584D002004
:1042B000E43E01080814025840420F00F8B590F897
:1042C0003C5004460F46006A144EDDB94368294647
:1042D00004301B689847012220461146FFF73EFF35
:1042E000636A39461B7956F833000BF0A3FA0122B2
:1042F00029462046FFF732FF206A043000F022FBF7
:104300000120F8BD043000F079FB636A39461B795F
:1043100056F833000BF08EFAF2E700BF083F0108B1
:104320000161704713B504460121DC300CF01EF921
:1043300004F1E80001210CF019F900940F4BB522AB
:104340004FF423610E480CF017FB0094C4F8C8002A
:10435000B1220C4B4FF4A6610B480CF00DFB0B4B3C
:104360003A224FF42361C4F8CC00009408480CF0C2
:1043700003FBC4F8D00002B010BD00BF1548000810
:10438000D85C002055450008A8570020B94800080F
:10439000784D002010B503680446DB6B984740B1A8
:1043A000637D33B10023B4206375BDE8104002F093
:1043B000D7B910BD70B5437D04460D461BB90368DF
:1043C000DB6B984730B92368294620469B68BDE8D7
:1043D00070401847B62002F0C3F9012363752375B6
:1043E000F1E7000008B502F055FA034B9B691B1A70
:1043F0005842584108BD00BFC08500202DE9F84350
:104400000D4604464FF0000902F0DCF81FFA85F86B
:1044100006460F4602F0D6F8801B4FF47A724FF032
:10442000000361EB0701FBF7CDFF494508BF40459D
:1044300013D223684FF47A7120469B689847A3886B
:10444000AB42E7DC23682046DB6B98470028E1D0CD
:10445000236820469B6C9847DCE7BDE8F8830000A2
:1044600010B52023044683F311880CF023F9A368C8
:10447000002B02DC20460CF0D9F80CF06DF80CF0A3
:104480001FF9002383F3118810BD0000F7B500F178
:10449000DC0604466D4630468DE806000CF082F8D6
:1044A00094F87C30DDF800E00021019FCAB29A4206
:1044B0000DDA04EBC202D06B70451DD1126CBA420A
:1044C0001AD1304603B0BDE8F040FFF7C9BF072B53
:1044D0000ADC04EBC30201333C3295E8030082E8B6
:1044E000030084F87C30ECE7044B05491B68586BEB
:1044F00003681B689847E4E70131D7E724270020C9
:104500001440010808B50E4B0C461B68186C036874
:10451000DB6B98470B4B0C48002C08BF18460DF07E
:104520001BFA72B6BFF34F8F0849094BCA6802F4F1
:10453000E0621343CB60BFF34F8F00BFFDE700BFC6
:1045400024270020020007B0010007B000ED00E0C2
:104550000400FA0538B50D4B04460D4A9B699A6173
:10456000A37B33B9236844F6206120469B689847B3
:10457000F6E7084D236820464FF47A719B68984708
:104580002B68D86BFFF768FBF4E700BFC0850020FD
:10459000B03F01082427002008B5437B13B103482E
:1045A00002F006F80123437308BD00BFC03F0108B5
:1045B0000CF042B908460CF055B90000F0B585B0D2
:1045C00008201E4602AD9DF82C7085E806000CF010
:1045D000B3FF044658B30023164A95E8030084E865
:1045E000030012F813005900B8421BD10A449DF988
:1045F000303002215078FF22184402F0F7FAC2B29C
:104600000A9B3146009403F233200B4B20F0070045
:104610000DF012F8054658B920460CF0DDFF28468B
:1046200005B0F0BD01330B2BDBD13A22E8E7F7E709
:104630000120F5E7844001082549000811B108462A
:104640000CF00ABA7047000010B5437B04465BB11A
:10465000806950B101F0B4FFA369C01AE3699842C0
:104660008CBF0020012010BD012010BDF7B500F166
:10467000E80604466D4630468DE806000BF092FFD2
:1046800094F8C030DDF800E00021019FCAB29A42E0
:104690000FDA04EBC202D2F8800070451FD1D2F8C5
:1046A0008420BA421BD1304603B0BDE8F040FFF78A
:1046B000D7BE072B0BDC03F11002013304EBC2025F
:1046C00095E8030082E8030084F8C030EBE7054B6F
:1046D00005491B68586B03681B689847E3E701317D
:1046E000D4E700BF24270020FC3F010838B50A4B5F
:1046F0000446402540F8243B00F06AF92A46002190
:1047000004F13C00FDF756F82A46002104F1800030
:10471000FDF750F8204638BD34400108037D0BB149
:10472000002202751846704710B504460DF036FA9F
:1047300001F046FFC4F8C40010BD000037B503689F
:1047400004460D46DB6B9847A0B12046FFF7ECFF0F
:1047500040F2552204F1240101A8FDF7B5F85DB936
:10476000236A0BB1013B2362236A03B9A36101A849
:10477000FDF7C6F803B030BD01F022FFA3693BB1DD
:10478000C31AE269934203D2D31A9D4238BF1D4631
:10479000236AA06120460133E561236223689B6997
:1047A0009847E4E738B5036804460D46DB6B984745
:1047B00028B129462046BDE83840FFF7BFBF38BDC5
:1047C00009C81847F8B590F87D30044603F0FF0596
:1047D000F3B9012300F1DC0680F87D3030460BF0A0
:1047E000E1FE304604F13C0694F87C70FFF738FE99
:1047F000AF4207DD736813B13046FFF7E1FF0135C3
:104800000836F5E7236903B19847002384F87D3023
:10481000F8BD000038B5134B0446134A9B699A61F2
:10482000A37B33B923684FF47A7120469B6898477D
:10483000F6E70E4D23684FF47A7120469B6898473F
:104840002046FFF7BFFF2B68186C03685B6D984725
:10485000236820465B6998470028EBD02046FFF785
:1048600063FFE7E7C0850020B83F01082427002048
:10487000F8B590F8C130044603F0FF05DBB9012319
:1048800000F1E80680F8C13030460BF08BFE304670
:1048900004F1800694F8C070FFF7E2FDAF4207DD37
:1048A000736813B13046FFF78BFF01350836F5E723
:1048B000002384F8C130F8BD174B184A2DE9F041A8
:1048C00004469B699A61A37B33B923684FF47A71DC
:1048D00020469B689847F6E701F072FE104F0546A8
:1048E00040F6B83823684FF47A7120469B689847A1
:1048F0002046FFF7BDFF3B689B6C93F89C30002B74
:10490000F0D101F05DFE431B06464345EAD901F0B4
:104910002DFC3546E6E700BFC0850020AC3F01080E
:104920002427002010B50446FFF74AFF2046BDE8C3
:1049300010400CF051BE0000036800211B681847AE
:104940007047000008B504300BF0F4FC012008BDEE
:1049500004300BF0DDBC000010B504460EF04CFE38
:10496000204610BD2DE9F04707460D4631B9043009
:104970000BF0A6FC01263046BDE8F08703685B68B3
:1049800098470028F6D101F01DFE4FF47A740F4BC2
:1049900080466C4389460025D3F800A0DAF844002D
:1049A000C82103689B6898473B6838465B6898470E
:1049B00006460028DED101F005FEB0EB080061EBF1
:1049C0000901A94208BFA042E8D3D4E72427002068
:1049D000044B10B5044640F8043B0BF021FC204684
:1049E00010BD00BFA4400108034BC0689B69C31AF7
:1049F00058425841704700BFC085002070470000F2
:104A000090F8C9007047000043681B792BB94069D2
:104A10004FF41053B0FBF3F07047C820704700000C
:104A2000054B1B6810B55B6B1A6854680A46014653
:104A30001846A047012010BD24270020036810B4A9
:104A40009C6A0023A4461A465DF8044B60470000A8
:104A500090F8AE007047000080F8AD10704700007D
:104A600000207047C36813B18B4200D042B903697C
:104A700013B19A4200D01AB9C16002610120704797
:104A80000020704780F8FD1001207047F8B590F8BD
:104A9000C8200C46456900EBC202D2E92E676DB111
:104AA0004268127952B903681B6998470549204446
:104AB000B1FBF5F14843361A67F100073046394635
:104AC000F8BD00BF8096980090F8E40070470000A1
:104AD000184B2DE9F04100269A69174F174B1A60C1
:104AE0004FF47A714FF0FF300BF06AFB054601F08E
:104AF00065FD831B0024B3F57A7F24BF4FF0FF359B
:104B0000064605F4805857F8240078B190F8AE3086
:104B100063B125FA04F3DB0705D490F8FC302BB120
:104B2000B8F1000F02D003681B6F98470134092CBD
:104B3000D6D0E8E7C0850020086700202C67002059
:104B4000202383F311880BF0B5BD000008B50BF0EE
:104B5000B7FD002383F3118808BD0000C3680BB1C3
:104B60000CF078B87047000038B500230446114DAA
:104B700080F8AE3094F8AC3033B12B680121586C1A
:104B800003685B689847F5E763681A7918686AB143
:104B90000AF0D4FC002104F15000FCF791FF04F16D
:104BA00064000021BDE83840FCF78ABF0AF0D2FB60
:104BB000F0E700BF2427002043681A7912B1186873
:104BC0000AF052BD7047000090F8AE3013B1643067
:104BD000FCF7C4BF184670472DE9F8431746044652
:104BE0000D46DFF85C9001F0EBFC064600EB070891
:104BF000236820461B699847A84216D24FF480606C
:104C00000BF08CFAD9F81830A587A36301F0D8FC13
:104C1000831BBB4209D2A8EB00004FF47A714143D9
:104C20004FF480600BF0CCFAE2E7236820461B6962
:104C3000984785428CBF00200120BDE8F88300BF63
:104C4000C085002070B543680446DA69002A70D038
:104C50001A79002A6DD11D6880F8C91090F8AE004D
:104C6000002866D0012936D002D302292FD070BD8A
:104C7000D869012600F00F01324620F00F0006FA35
:104C800001F108F0D9FD6368DB6923F00F0203F03E
:104C90000F0306FA03F39BB2538384F8CA60FFF74D
:104CA0004FFF6B6D9A6812F4407F0CD01A6822F0A7
:104CB00001021A606A6D936823F4407393606A6D11
:104CC000136833431360BDE87040FFF73FBFC4F87B
:104CD000D020C4F8CC20D869012600F00F0132465C
:104CE00020F00F0006FA01F108F0A6FD6368DB6909
:104CF00023F00F0203F00F0306FA03F39BB2538372
:104D000084F8CA60FFF71CFF6B6D9A6802F440726A
:104D1000B2F5007FD7D01A6822F001021A606A6DDE
:104D2000936843F4007393606A6D936823F480730F
:104D3000C4E770BD037A33B1D0F890301A681368B5
:104D400023F001031360704743681A7932B11B687E
:104D5000D3F88C341B681B78042B02D15030FCF73D
:104D6000E5BE00207047000090F8AE201AB103693C
:104D70000BB9FFF7E9BF00207047000003690BB1D2
:104D80008B4201D1FFF7E0BF4FF0FF3070470000CA
:104D900038B5436804460D461A79AAB918680AF06E
:104DA000D9FA012D11D0022D13D0636804F11C0132
:104DB00018680AF0BBFA237A33B163681B685A6D2E
:104DC000136823F02003136038BDD4F8DC3063622D
:104DD000EBE7D4F8DC3043F40053F8E773B516463C
:104DE000C26804460D460AB19A4213D104F1780113
:104DF00040F2EA2201A8FCF767FD04F164003246A4
:104E00002946FCF723FF044601A8FCF779FD20465C
:104E100002B070BD0024FAE738B5436804460D4679
:104E20001A79002A31D118680AF094FA012D34D089
:104E30002CD3022D35D0636804F11C0118680AF0E8
:104E400075FA94F8143133B1636804F58071186809
:104E500004300BF045F9002D14BF0123002384F822
:104E6000143109D063684FF4006204F5807118684A
:104E7000202304300BF01CF9237A33B163681B68DC
:104E80005A6D136823F02003136038BD236A23F0A2
:104E9000805323F4B0532362CDE7236A43F4B05325
:104EA000F9E7236A23F4007343F4A053F3E7000007
:104EB00010B52023044683F311880BF007FC94F807
:104EC0004030FBB9D4F894301A68136823F01F03FC
:104ED0001360D4F8943019680A68D207FCD45A6871
:104EE000197B3D238B401360D4F89430D4F8B00084
:104EF0001B685A68238B9B1A2383012384F8403054
:104F000001F0E8F90BF0E8FB002383F3118810BDF2
:104F100038B50446202383F311880BF0D7FB94F8AF
:104F20004030B3B904F198000125FFF717FE01F0F6
:104F300045FB94F8FD30C4F8CC0084F8405023B110
:104F400004F16400FCF7F2FD48B9D4F8B00001F0B8
:104F5000C1F90BF0C1FB002383F3118838BDA17A9E
:104F6000034B05FA01F118680BF0F0F8EDE700BF0C
:104F70002C670020134B01EBC10210B503600446FF
:104F8000114B503000F8461C002103EB820340F81F
:104F90004C3C4FF4614340F83C3CFCF775FD00216C
:104FA00004F16400FCF770FD04F17800FFF710FDD8
:104FB0000023A27A204684F8C930044B43F82240EB
:104FC00010BD00BF88410108BC40010808670020EF
:104FD00013B5074C236843B900903C22054B4FF4AE
:104FE000236005490CF028FB206002B010BD00BF13
:104FF0002C670020D14A00084C41010810B5D0F8B8
:1050000094300446E3B9FFF79BFD606823460D4AE0
:105010000C21407B08F056FBC4F89400FFF796FD86
:10502000D4F894301A6863681B685B6D283393600A
:105030006368D4F894001969BDE8104008F0ECBB2F
:1050400010BD00BF114F0008FFF7D8BF90F84130E6
:1050500083F0010380F84130D0F890301A6890F85E
:10506000413000EB83035B6CD3604022D0F890307A
:105070001B685A6040F21642D0F890301B681A60E4
:10508000D0F890301A68136843F00103136070473A
:1050900010B50446FFF754FDD4F8940008F084FBE3
:1050A0000023C4F89430BDE81040FFF74FBD000066
:1050B000FFF7EEBF10B50446FFF742FD94F840300D
:1050C000B3B9D4F894301B681A68D20710D45B685F
:1050D00073B9012384F8403001F070FAC4F8CC00B1
:1050E00004F19800FFF73AFDD4F8B00001F0DEF8C3
:1050F000BDE81040FFF72ABD73B5044640F23132D7
:105100000E4600F1780101A8FCF7DEFB2046FFF710
:10511000D1FF94F84030DBB1218B04F16405D4F861
:10512000D43028460B44C4F8D430FCF731FD402E6F
:105130003246E16C28BF40222846FCF7F3FD80B2DE
:10514000208328B1D4F8B00001F050F928B92083A9
:1051500001A8FCF7D5FB02B070BDD4F8B030DB7C01
:1051600053B16269FA235343284AB3FBF2F3228B0B
:105170000133934238BF2383D4F894301A681368FC
:1051800023F01F031360D4F8942011680B6813F008
:105190000103FBD1107B04F1980651683D22824047
:1051A0000A6084F84030E06C218B0CF047FCD4F8A6
:1051B0009430E26C1B68DA60D4F89430228B1B6860
:1051C0005A6040F25642D4F894301B681A60D4F802
:1051D00094301A68136843F001031360258BA91CEF
:1051E0000B4D4D436169B5FBF1F505F5FA75FFF718
:1051F000A7FC3046FFF7B2FC2346064A2946304654
:105200000BF0ECFCFFF7A2FCA2E700BF40420F004E
:1052100080969800B14E000838B590F8FC300446EE
:10522000ABB9E8300AF086FF012384F8FC306368EC
:105230001D6828460AF08EF8A36A04F11C0128466E
:1052400023F00803A362BDE838400AF06FB838BD08
:105250002DE9F04F87B004460D4640F2663200F16A
:10526000780101A8FCF730FB94F8E63023B1012D5A
:1052700002D92046FFF7D0FF0DF1080904F1640AB6
:105280002A46002549465046FCF722FD4F468346F4
:105290002E465D4524DA626813791068E3B103682D
:1052A000D3F81C8000237A6859F83510C0470028CD
:1052B000804615DB05D0464401F080F9C4F8CC00E7
:1052C000B6B2083741465046FCF762FC57F8043C3A
:1052D000984505D10135DCE70268D2F81C80E2E789
:1052E000D4F8D43001A81E44C4F8D460FCF708FBFD
:1052F00007B0BDE8F08F000010B5437A04460BB14B
:10530000FFF7D8FE04F16400FCF710FC014600280A
:1053100044D0637A2046ABB1FFF7EEFE94F8C93073
:10532000022B3BD1D4F8D0301BB901F047F9C4F8B7
:10533000D000637A4BB1D4F8CC3093B1012384F818
:10534000C93010BDFFF784FFE8E763681B689A6BFC
:10535000D4F8D430C2F500729A4202D29B1A082BBC
:10536000ECD801F02BF9D4F8D030C01A0C4B98428D
:1053700014D90C4B62681B680B49586B0B4BD21A43
:105380000B4B92105A430368D2B21B6898472368AC
:10539000204600219B6DBDE81040184710BD00BF9E
:1053A00020A107002427002058410108BC40010823
:1053B000398EE3382DE9F34190F8AE5004460E469D
:1053C0001746ADB1C3687BBB90F8AD30A3B190F880
:1053D000FD308BB90F4488464745A8EB060507D03A
:1053E0002368204618F8011B9B6898470128F3D0D2
:1053F000284602B0BDE8F08140F2C62204F17801EF
:1054000001A8FCF761FA3A46314604F16400FCF762
:105410001DFC94F8FD30054613B12046FFF76CFFE4
:1054200001A8FCF76DFAE3E70025E1E710B5436852
:105430000446DB693BB390F8C93023B35030FCF726
:105440008DFB94F8CA3080B27BB10F281BD80023A3
:1054500084F8CA306368DA69012322F00F0102F090
:105460000F0293409BB20B8310BD20280BD9012360
:10547000626884F8CA30D26922F00F0102F00F028C
:1054800093409BB24B8310BD38B5046905469CB967
:105490000B4B426B9B699A420CD190F8AE404CB1D9
:1054A00005F15000FCF730FB95F8CA3033B92846B7
:1054B000FFF7BCFF204638BD0024FBE71C46F9E798
:1054C000C085002038B5036905463BB90C4B406BDD
:1054D0009B69984202D195F8AE3013B94FF0FF3076
:1054E00038BD05F15000FCF739FC044628B195F8A9
:1054F000CA3013B92846FFF799FF204638BD00BFD0
:10550000C085002013B5036904461BB14FF0FF307E
:1055100002B010BD0C4B426B9B699A42F6D190F8D9
:10552000AE30002BF2D00DF1070104F15000FCF772
:1055300039FC0028EAD094F8CA3013B92046FFF7A6
:1055400075FF9DF80700E3E7C085002013B50369E8
:1055500004462BB18B4203D04FF0FF3002B010BD98
:1055600094F8AE30002BF7D00DF1070104F1500094
:10557000FCF718FC0028EFD094F8CA3013B9204685
:10558000FFF754FF9DF80700E8E7000038B590F8F2
:10559000C840054601F016F884F0010405EBC40488
:1055A000C4E92E0195F8C83083F0010385F8C830AE
:1055B00038BD000070B5037A0446002B4CD0D0F8FB
:1055C00090301B685D6890F841601A68C5F140052D
:1055D000F6B222F01F02ADB21A60D0F8903019680E
:1055E0000A68D207FCD4197B20465A683D238B40B9
:1055F0001360FFF72BFD75B104EB86062946706C2E
:105600000CF00AFA2A46716C04F15000FCF71EFBFC
:105610002046FFF7BBFFA36B33B104F15000FCF74A
:1056200085FAA38F984207D294F8CA30A3B12046D6
:10563000BDE87040FFF7FABE202383F311880BF01A
:1056400045F84FF48061A06B0AF080FD0BF044F840
:10565000002383F31188E7E770BD00002DE9FF47C1
:1056600090F8AE300446002B00F0BD8090F8FC307E
:105670002BB1E8300AF05EFD000700F1BB80237A11
:10568000002B43D0D4F89030002B3FD0FFF758FACE
:10569000D4F890301B681A68D10735D45D68C5F11D
:1056A000400515F0FF051AD094F84130294604EB67
:1056B0008303586C0CF0B0F994F841302A4604F199
:1056C000500004EB8303596CFCF7C0FA2046FFF747
:1056D0005DFF94F8CA3013B12046FFF7A7FED4F857
:1056E00090301A68136823F01F031360D4F89030C9
:1056F00019680A68D207FCD4197B20465A683D23F2
:105700008B401360FFF7A2FCFFF720FA63681A7959
:105710005AB11B68D3F88C341B681B78042B62D1F8
:10572000404B01221B689B6B1A710123257A84F878
:10573000AC30002D3BD104F150086F4604F5807A5F
:105740004046FCF70BFA694602464046FCF73AFA37
:105750008146A9452BDD62681379106823B303687D
:105760001E6A00237A685DF83510B04700280646A7
:105770001DDB94F814313BB150460AF0DBFC10F00D
:10578000200F18BF4FF0FF3694F8FC3033B9314684
:105790004046FCF741FA2046FFF7F8FE7B680837E1
:1057A000B34204D80135D4E70268166ADAE7A36B7E
:1057B00033B104F15000FCF7B9F9A38F98422BD212
:1057C00094F8FD3093B140F25A4204F178016846F2
:1057D000FCF77AF82046FFF78FFD6846FCF790F853
:1057E000002384F8AC3004B0BDE8F0872046FFF712
:1057F00083FDF5E763681D68284609F0ABFDA36AE1
:1058000004F11C01284643F00803A36209F08EFD51
:10581000002384F8FC3032E74FF48061A06B0AF07B
:10582000BFFCCDE72427002038B50446C8060D4646
:1058300005D56368986910B102210CF0DDF869069E
:1058400005D56368586910B102210CF0D5F8AA0695
:1058500005D56368986910B101210CF0CDF82B06CD
:1058600007D56368586920B10121BDE838400CF0C4
:10587000C3B838BD2DE9F84F436804460D461A7980
:1058800022B1B1FA81F04009BDE8F88FA4F8E41024
:1058900011F0080AD3F80080D3F814B09869D8F84A
:1058A00054201CBF5B468346566818BF184697684D
:1058B000CB07126802F0010968D5D4F8DC3046F451
:1058C000803643F48033C4F8DC3010B102210CF090
:1058D00093F8A80760D5D4F8DC3046F4003643F4DA
:1058E0000033C4F8DC30BBF1000F03D0022158466E
:1058F0000CF082F8BAF1000F55D0D4F8DC3046F441
:10590000004643F40043C4F8DC3069074ED5D4F8B0
:10591000E03047F0080743F00803C4F8E03094F89B
:10592000E63063B963684FF4805204F1E801186807
:10593000082304300AF0BCFB012384F8E630237A04
:1059400093B1D4F890307BB11A68136823F01F0329
:105950001360D4F8903019680A68D207FCD4197B18
:105960005A683D238B4013600023637223722946DB
:105970002046FFF759FFD8F854305A68964218D19C
:105980009A68974215D10120BDE8F88F26F4803639
:1059900000289ED001219AE726F40036BBF1000FC3
:1059A000A8D00121A3E726F40046AEE727F00807B8
:1059B000DDE7B9F1000F03D01A6822F001021A6086
:1059C000D8F854305E60D8F854309F60B9F1000FB9
:1059D000D9D0D8F85420136843F001031360D2E7FC
:1059E000174B10B51A784ABB0122164C16481A708C
:1059F00009F058FD2146144809F080FD134809F0CC
:105A000051FD1349114809F079FD246840F2DC503A
:105A1000D4F89020D2F8043843F00203C2F80438D6
:105A20000BF01AF80B49204609F048FFD4F89020F3
:105A3000D2F8043823F00203C2F8043810BD00BFC6
:105A40003067002028480308D0880020608D00209F
:105A500030480308584803082DE9F041044688B04F
:105A600015461F460E46FFF7B3FA62681368002B0F
:105A700000F0D0804FF4C8731279DFF8BC82B6FB17
:105A8000F3F3B3F5007F38BF4FF40073002A0CBF67
:105A90004FF480624FF480529742B8BF17469AB2D3
:105AA0009542B8BF154694F8AC303BB1D8F80030F9
:105AB0000121586C03685B689847F4E7626D954272
:105AC00006D084F8AE30294604F15000FBF7F8FF09
:105AD000002E4AD1002594F8E630EBB9B4F8E43052
