:020000040800F2
:1000000000070030F1050008D52F0008D92F00089F
:1000100031300008D92F000805300008F30500082A
:10002000F3050008F3050008F30500080D3E00087D
:10003000F3050008F3050008F3050008F3050008C0
:10004000F3050008F3050008F3050008F3050008B0
:10005000F3050008F3050008A5750008D175000830
:10006000FD7500082976000855760008F30500089C
:10007000F3050008F3050008F3050008F305000880
:10008000F3050008F3050008F3050008752C0008C7
:10009000F3050008852C0008F305000881760008A8
:1000A000F3050008F3050008F3050008F305000850
:1000B000F3050008F3050008F3050008F305000840
:1000C000F3050008F3050008F3050008F305000830
:1000D000F3050008597700086D770008817700085C
:1000E000E5760008F3050008F3050008F3050008AD
:1000F000F3050008F3050008F3050008F305000800
:10010000F3050008F305000895770008F3050008DB
:10011000F3050008F3050008F3050008F3050008DF
:10012000F3050008F3050008F3050008F3050008CF
:10013000F3050008F3050008F3050008F3050008BF
:10014000F3050008F3050008F3050008F3050008AF
:10015000F3050008F3050008F3050008F30500089F
:10016000F3050008F3050008F3050008F30500088F
:10017000F3050008A16C0008F3050008F30500086A
:10018000F3050008F3050008F3050008F30500086F
:10019000F3050008F3050008F3050008F30500085F
:1001A000F3050008F3050008F3050008F30500084F
:1001B000F3050008F3050008F3050008F30500083F
:1001C000F3050008F3050008F3050008F30500082F
:1001D000F30500088D6C0008F3050008F30500081E
:1001E000F3050008F3050008F3050008F30500080F
:1001F000F3050008F3050008F3050008F3050008FF
:10020000F3050008F3050008F3050008F3050008EE
:10021000F3050008F3050008F3050008F3050008DE
:10022000F3050008F3050008F3050008F3050008CE
:10023000F3050008F3050008F3050008F3050008BE
:10024000F3050008F3050008F3050008F3050008AE
:10025000F3050008F3050008F3050008F30500089E
:10026000F3050008F3050008F3050008F30500088E
:10027000F3050008F3050008F3050008F30500087E
:10028000F3050008F3050008F3050008F30500086E
:10029000F3050008F3050008F3050008F30500085E
:1002A0005D1A0008952C0008152D000800000000BC
:1002B000D0400B1CD1409C46203AD34018435242B8
:1002C00063469340184370479140031C90409C46FE
:1002D000203A9340194352426346D3401943704732
:1002E00053B94AB9002908BF00281CBF4FF0FF319D
:1002F0004FF0FF3000F07AB9ADF1080C6DE904CE93
:1003000000F006F8DDF804E0DDE9022304B07047F0
:100310002DE9F0478C460D460446089E002B51D12E
:100320008A4217466DD9B2FA82FEBEF1000F0BD099
:10033000CEF1200C01FA0EF520FA0CFC02FA0EF7B1
:100340004CEA050C00FA0EF44FEA174A250CBCFBE8
:10035000FAF81FFA87F90AFB18CC45EA0C4508FBA6
:1003600009F3AB420AD9ED1908F1FF3280F023817D
:10037000AB4240F22081A8F102083D44ED1AA4B23C
:10038000B5FBFAF00AFB105544EA054400FB09F9F5
:10039000A14509D9E41900F1FF3380F00A81A14594
:1003A00040F2078102383C44A4EB090440EA0840CB
:1003B0000021002E61D024FA0EF400233460736013
:1003C000BDE8F0878B4207D9002E54D0002186E883
:1003D00021000846BDE8F087B3FA83F1002940F018
:1003E0008E80AB4202D3824200F2FA80841A65EB1F
:1003F00003050120AC46002E3FD086E81010BDE872
:10040000F08712B90127B7FBF2F7B7FA87FEBEF102
:10041000000F34D1EB1B3A0C1FFA87FC0121B3FB10
:10042000F2F8250C02FB183345EA03450CFB08F3F0
:10043000AB4207D9ED1908F1FF3002D2AB4200F20E
:10044000D1808046ED1AA3B2B5FBF2F002FB105545
:1004500043EA05440CFB00FCA44507D9E41900F16C
:10046000FF3302D2A44500F2B8801846A4EB0C0476
:1004700040EA08409DE731463046BDE8F087CEF1BE
:10048000200405FA0EF307FA0EF720FA04F83A0CE6
:1004900025FA04F448EA0308B4FBF2F14FEA1845E0
:1004A00002FB11441FFA87FC45EA044501FB0CF3EB
:1004B000AB4200FA0EF409D9ED1901F1FF3080F0DA
:1004C0008A80AB4240F2878002393D44EB1A1FFA22
:1004D00088F5B3FBF2F002FB103345EA034500FB5D
:1004E0000CF3AB4207D9ED1900F1FF386FD2AB42E4
:1004F0006DD902383D44EB1A40EA01418FE7C1F162
:10050000200722FA07F88B4005FA01F448EA0303B2
:1005100020FA07FE4FEA134CFD404EEA040EB5FBED
:10052000FCF94FEA1E440CFB19551FFA83F844EA04
:10053000054509FB08F4AC4202FA01F200FA01FA9F
:1005400008D9ED1809F1FF3043D2AC4241D9A9F1E5
:1005500002091D442D1B1FFA8EFEB5FBFCF00CFB9F
:1005600010554EEA054400FB08F8A04507D9E418E9
:1005700000F1FF3529D2A04527D902381C4440EAB2
:100580000940A4EB0804A0FB02894C45C6464D4631
:1005900015D312D056B1BAEB0E0364EB050404FA7E
:1005A00007F7CB401F43CC40376074600021BDE8A3
:1005B000F0871846F8E69046E0E6C245EAD2B8EB86
:1005C000020E69EB03050138E4E72846D7E7404609
:1005D00091E78146BEE7014678E702383C4445E7AB
:1005E000084608E7A8F102083D442BE7704700BF22
:1005F00002E000F000F8FEE772B63A4880F308889F
:10060000394880F3098839484EF60851CEF2000186
:10061000086040F20000CCF200004EF63471CEF2D9
:1006200000010860BFF34F8FBFF36F8F40F20000EF
:10063000C0F2F0004EF68851CEF200010860BFF320
:100640004F8FBFF36F8F4FF00000E1EE100A4EF6B0
:100650003C71CEF200010860062080F31488BFF3DD
:100660006F8F05F0D5FD05F075FD06F075FD4FF0B7
:1006700055301F491B4A91423CBF41F8040BFAE731
:100680001C49194A91423CBF41F8040BFAE71A4948
:100690001A4A1B4B9A423EBF51F8040B42F8040B16
:1006A000F8E700201749184A91423CBF41F8040B73
:1006B000FAE705F093FD06F0CFFD144C144DAC4263
:1006C00003DA54F8041B8847F9E700F041F8114CAD
:1006D000114DAC4203DA54F8041B8847F9E705F0E2
:1006E0007BBD000000070030002300300000000840
:1006F0000001003000070030C07D000800230030FA
:100700006423003068230030E8790030A00200083C
:10071000AC020008AC020008AC0200082DE9F04F62
:100720002DED108AC1F80CD0D0F80CD0BDEC108A99
:10073000BDE8F08F002383F311882846A0470020EE
:1007400004F06AFFFEE704F073FE00DFFEE700003E
:10075000F8B501F0B7FA30B1284B00220C211A721B
:100760005A729972DA7205F079FC064605F0ECFCD3
:10077000044678BB224B9E422CD001339E422CD0A3
:1007800026F0FF021F4B9A422AD1274642F21075EB
:10079000F0B200F0B5FD00F0C5FF00F0B7FD18B3F2
:1007A00034B1194B9E4203D0002505F0C5FC2F46FD
:1007B000002005F05DFC0FB100F070F801F026FBA1
:1007C00000F0D4FF01F0C6F9284600F02BF900F044
:1007D00065F8F9E727460025DDE705460127DAE752
:1007E000074641F28835D6E714B1074B9E42DBD16C
:1007F0000020002505F03CFCE0E700BF00230030AE
:10080000010007B0000008B0263A09B008B501F0B1
:100810006DF9A0F120035842584108BD054B07B5BA
:100820001B88022101A8ADF8043001F07DF903B066
:100830005DF804FBE078000810B5202383F31188ED
:100840001248C3680BB104F0C3FF0023104A4FF4F1
:100850007A710E4804F07EFF002383F311880D4C5B
:10086000236813B12368013B2360636813B1636895
:10087000013B6360084B1B7833B9636823B90220DE
:1008800001F034FA3223636010BD00BF68230030EA
:1008900039080008842400307C230030574B584925
:1008A0002DE9F04153F8042F013201D1BDE8F08168
:1008B0008B42F7D1534C544B22689A4240F29C80B1
:1008C000524B9B6803F1006303F580239A4280F04A
:1008D000938005F005FC05F017FC002001F056F9A7
:1008E00002204B4B187001F0F9F94A4BD3F8E8207D
:1008F0000022C3F8E820D3F81011C3F81021D3F870
:100900001011D3F8EC10C3F8EC20D3F81411C3F88D
:100910001421D3F81411D3F8F010C3F8F020D3F851
:100920001811C3F81821D3F81811D3F8801041F02A
:100930000061C3F88010D3F8801021F00061C3F883
:100940008010D3F88010D3F8801041F00071C3F804
:100950008010D3F8801021F00071C3F88010D3F814
:10096000803072B62C4B2D490B601D682468BFF394
:100970004F8FBFF36F8F2A4BC3F88420BFF34F8F85
:100980005A6922F480325A61BFF34F8FD3F8802026
:1009900043F6E07EC2F3C906C2F34E32B7075201F6
:1009A00002EA0E0838463146013948EA000C00F1E7
:1009B0004040B1F1FF3FC3F874C2F5D1203A12F1C3
:1009C000200FEDD1BFF34F8FBFF36F8FBFF34F8F6A
:1009D000BFF36F8F5A6922F400325A610022C3F8C4
:1009E0005022BFF34F8FBFF36F8F202383F3118803
:1009F000AD4685F308882047BDE8F081FCFF030879
:100A00001C00040804000408FFFF03080023003052
:100A10007C230030004402580000040808ED00E088
:100A200000ED00E02DE9F04F99B0B94D2022FF21F3
:100A3000009010A8AC6801F08BF9B64A01951378C4
:100A4000A3B90121B4481170C360202383F3118836
:100A5000C3680BB104F0BCFE0023B04A4FF47A71B6
:100A6000AD4804F077FE002383F31188009BAC4A65
:100A700003B113600026AB4B009DB2463746B1462A
:100A80001E7056600293012001F028F9002D00F03D
:100A90002582A34B1B68002B40F0208219B0BDE8D3
:100AA000F08F0220FFF7B2FE002840F01082009B7A
:100AB00002210BA8002E08BF1D469B4B1B88ADF8DA
:100AC0002C3001F031F8DEE74FF47A7001F00EF8C7
:100AD000B0F10008EBDB0220FFF798FE0028E6D01B
:100AE00008F1FF38B8F1040F00F2F381DFE808F0F5
:100AF000031E2124270018A80523042140F8343DB3
:100B000001F012F801234FF0000903FA08F848EA4F
:100B10000A0A5FFA8AFA01F06FF927B10AF00B03AB
:100B20000B2B08BF0025FFF779FEACE704217848BE
:100B3000E6E704217D48E3E704217D48E0E74FF044
:100B40001C09484609F1040901F022F804210B9020
:100B50000BA800F0E9FFB9F12C0FF2D1D2E7002F7A
:100B6000A5D00AF00B030B2BA1D10220FFF74EFEFC
:100B7000804600289BD001206A4E01F007F800272C
:100B80000220307001F0AAF85FFA87FB584601F0A6
:100B90000DF8054688B15846013701F017F80028CE
:100BA000F2D146460025634B02210BA847461B881D
:100BB000ADF82C3000F0B8FF65E701232C46022089
:100BC000337001F081F8019B9B689C4206D220465D
:100BD00000F0DEFF0130E4D10434F4E70024029B8E
:100BE000464647461C7025464D4B5C6093E7002FF8
:100BF0003FF45DAF0AF00B030B2B7FF458AF0220DC
:100C0000029B187001F06AF8322000F06FFFB0F11B
:100C1000000BFFF64CAF1BF003087FF448AF019BBD
:100C200004EB0B0299688A423FF641AFBBF5807F27
:100C30003FF63DAF404AD84503920FDA4FF47A7041
:100C400000F054FF049004990029FFF630AF049996
:100C5000039A08F8021008F10108ECE7C820FFF732
:100C6000D5FD804600283FF422AF1F2C11D8C4F1D7
:100C7000200710AB24F003002F495F45184428BF1C
:100C80005F463A4601F03CF83A46FF212A4801F017
:100C90005FF84FEAAB0328492046DAB2039301F02C
:100CA0005FF8074600283FF47EAF039B04EB830404
:100CB00031E70220FFF7AAFD00283FF4F8AE00F06C
:100CC0009FFF00283FF4F3AE4FF000084346019A1F
:100CD0009268904532D2B8F11F0F12D8109A0132A3
:100CE0000FD028F0030218A90A4452F8202C0B92C6
:100CF000184604220BA908F1040802F0B7F90346CC
:100D0000E5E74046039300F043FF039B0B90EFE7BA
:100D100000230030802400306823003039080008A8
:100D2000842400307C230030E27800080423003063
:100D300008230030E47800088023003018A804213C
:100D400040F84C3D00F0F0FEE5E618A800236421D1
:100D500040F8343D00F0DEFE00287FF4A8AE02200B
:100D6000FFF754FD00283FF4A2AE0B9800F040FFBF
:100D700018AB43F8480D04211846E3E718A80023F0
:100D8000642140F8343D00F0C5FE00287FF48FAEAA
:100D90000220FFF73BFD00283FF489AE0B9800F0DE
:100DA00029FF18AB43F8440DE5E70220FFF72EFDBD
:100DB00000283FF47CAE00F033FF18AB43F8400D41
:100DC000D9E70220FFF722FD00283FF470AE0BA9FF
:100DD000142000F02BFF804618A8042140F83C8D19
:100DE00000F0A2FE41460BA8ACE7322000F07EFEE8
:100DF000B0F10008FFF65BAE18F0030F7FF457AEBA
:100E0000019A08EB0903926893423FF650AE022024
:100E1000FFF7FCFC00283FF44AAE28F00308C84462
:100E2000C1453FF478AE484609F1040900F0B0FE30
:100E300004210A900AA800F077FEF1E74FF47A70D7
:100E4000FFF7E4FC00283FF432AE00F0D9FE0028A2
:100E500042D0109B01330BD0082210A9002000F0D3
:100E60007FFF002838D02022FF2110A800F070FF5B
:100E7000FFF7D4FC384804F0D5FB0FE6002F3FF411
:100E800016AE0AF00B030B2B7FF411AE18A800234B
:100E9000642140F8343D00F03DFE804600287FF498
:100EA00006AE0220FFF7B2FC00283FF400AE03902C
:100EB000FFF7B4FC41F28830454604F0B3FB0B98D1
:100EC00000F0E4FF00F098FF039B1F46DBE50746B8
:100ED00021E64FF00009EAE5B84664E6002000F09C
:100EE00005FE0490049B002B01DA00F083FC049BB8
:100EF000002BFFF6CBAD012000F0E6FE049B213B6A
:100F0000122B3FF6C0AD01A252F823F0A30A00084D
:100F1000C90A00085F0B0008870A0008870A000852
:100F2000870A0008EF0B0008EB0D0008B30C00085F
:100F30004B0D00087D0D0008AB0D0008870A000866
:100F4000C30D0008870A00083D0E0008170B0008B3
:100F5000870A00087D0E0008A0860100094949F2B1
:100F600069000B689AB21B0C00FB0233064A0B6047
:100F700044F25061136898B21B0C01FB0030106002
:100F800080B27047102300300C23003010B50021D0
:100F90001022044600F0DCFE034B03CB20606160AE
:100FA0001868A06010BD00BF00E8F11FF0B51F4C2D
:100FB000BBB002F057F8A368C31AF92B2FD906ADBE
:100FC0002346A06028220021284602F0CFFC04F12D
:100FD0000E0000F0B5FE0023C6B2591D5F1CDBB247
:100FE000C900B34207DA0E3308222846234402F030
:100FF000BDFC3B46F1E70123207BC1F3CF01049503
:1010000003930823059101460293094B0948019374
:101010003023009303A3D3E9002302F0E1FA3BB0AD
:10102000F0BD00BF78F6339F93CACD8D484900309C
:1010300055490030A43400300B4B0C4A10B51A60EF
:1010400003F5825212784AB941F23C029C582CB105
:10105000204601F07FFE204606F0FCFB0448BDE878
:10106000104001F077BE00BFC8340030087A000895
:10107000F044003070B50D4614461E4602F058FA92
:1010800050B9022E0ED1012C0CD112A3D3E90023AA
:10109000C5E90023012070BD052C14D003D8012C14
:1010A00009D0002070BD282C09D0302CF9D10BA319
:1010B000D3E90023ECE70BA3D3E90023E8E70BA374
:1010C000D3E90023E4E70BA3D3E90023E0E700BF63
:1010D000AFF30080401DA12026812A0B78F6339FB4
:1010E00093CACD8D9E6AC421818A46EE26417272D2
:1010F000DF25D7B7F017304A39059E5638B50D466B
:101100000446034620222846002102F02FFC2279C3
:1011100023462846032A4FF0200128BF032203F864
:10112000042F022202F022FC627923462846072A75
:101130004FF0220128BF072203F8052F032202F0F7
:1011400015FCA27923462846072A4FF0250128BF1F
:10115000072203F8062F032202F008FC284604F1B8
:1011600008031022282102F001FC382038BD0000BD
:101170002DE9F04FFFB040F2791280460F461FAEC6
:101180000CAD00210DF15209304600F0E1FD48227E
:101190000021284600F0DCFD01F064FF4FF47A7274
:1011A000554BB0FBF2F0186093E8070001232B7455
:1011B000002385E807000DF152006B74FFF7E6FE8F
:1011C00004234E4985F820300E2385F8213006ABE4
:1011D000184606F07DFB172228643146284685F81C
:1011E0003C20FFF78BFF10AB044601460822304637
:1011F00002F0BCFB08220DF141033046A11804F1B6
:10120000880A02F0B3FB0DF14203082204F1100139
:10121000304604F5847B02F0A9FB11AB202204F1D7
:101220001801304602F0A2FB12AB402204F1380153
:10123000304602F09BFB14AB082204F178013046E3
:1012400002F094FB0DF15103082204F180013046B5
:1012500002F08CFB51460AF1080A4B460822304640
:1012600009F1010902F082FBD345F3D104F588743A
:101270004FF0000919AB08225946304602F076FBC0
:1012800095F834304B4510D84FF0000995F83C30B4
:101290004B4515D92B6C2146082230464B44083467
:1012A00002F064FB09F10109F0E7AB6B214608226B
:1012B00030464B44083402F059FB09F10109DFE7DD
:1012C000E31DF97E04961937C3F3CF034046059317
:1012D000002303937B78019702930123009304A3D7
:1012E000D3E9002302F07CF97FB0BDE8F08F00BFA6
:1012F0009E6AC421818A46EE8C24003084790008DD
:10130000014B1870704700BF98240030334BF0B584
:101310001C7B85B034B10E22314B1A81002420464B
:1013200005B0F0BD2F4A02AB1068516803C3082313
:101330002D492E480DEB030206F0ACFA054630B9F4
:101340000A22274B2A481A8101F0F4FCE6E70169DA
:10135000B1F5E01F06D90B22214B26481A8101F076
:10136000E9FCDCE7438B40F20E42934207D00C20AD
:101370001B4908811946204801F0DCFCCFE71F4AD1
:10138000024402F11003994204D21022144B1C486B
:101390001A81E4E7103920468E1A144901F066FEDE
:1013A00005F1180107463246204601F05FFEAB68A2
:1013B0009F4202D1EB6898420AD00D22084B1A8155
:1013C0003B4600900F48EA68A96801F0B3FCA5E726
:1013D0000D48012401F0AEFCA1E700BF48490030F0
:1013E0008C240030E8780008DCFF1B0000000408B3
:1013F000F0780008FC7800080E7900080800FCF777
:101400002C79000849790008727900082DE9F04F1D
:10141000ADB080460C4606AF02F08AF806460028BA
:101420005AD1237E022B19D1E38A012B16D101F068
:1014300019FE0546FFF792FD4FF4C87305F51675C2
:10144000B24AB0FBF3F101FB1300E37E914615FABB
:1014500080F0106033B90022AD4B1A709C37BD4646
:10146000BDE8F08FA38AF5B20136013BAB420CD93F
:101470003B1D691C082220461D44C900002300951D
:1014800001F0F80102F044F9ECE707F11400FFF76E
:101490007DFD2A4607F11401381D06F0EBF90346DD
:1014A0000028D8D10F2D08D8994B1D70D9F80030DD
:1014B000A3F51673C9F80030D0E707F1980201468A
:1014C00002F8950D20460092072202F021F9F978E2
:1014D000404602F025F8C1E7E38A052B00F00381BE
:1014E00006D8012BBAD121464046FFF741FEB5E7A9
:1014F000282B3BD0302BB1D1637EE946854D01339B
:101500006A7BDBB2934240F0EC80E27E2B7B9A4216
:1015100040F0E78007F1980300261022204623F8C8
:10152000846D31460093012302F0F2F8B4F8148080
:10153000A8F102081FFA88F808F1030323F0030357
:101540000A3323F00703ADEB030D0DF1180A334600
:10155000B11C01369BB2C90098456CDD534408228A
:1015600020460093002302F0D3F8F0E7A38A013B62
:101570009BB2C92B3FF672AF664E357B4DBB06F171
:101580000C0308222946204600932B4602F0C0F89F
:10159000A38A05F10109EDB2013B4FEAC9019D4261
:1015A00009DA0E35002308222046354400954D46C1
:1015B00002F0AEF8ECE700230022C6E90023002386
:1015C000B36086F8D730C6F8D830337B0BB9E37EEA
:1015D0003373002507F114063B1D082229463046C7
:1015E0007D60BD60FD6002F0C1F93B7A05F1010943
:1015F000AB424FEAC90107D9FB68082230462B44A9
:101600004D4602F0B3F9F0E7C1F3CF010023E07ECD
:10161000193405910496014603934046637801947A
:1016200002932823009337A3D3E9002301F0D8FFC6
:10163000FFF7BCFC12E795F8D70000F0B7FAD5F831
:10164000D83006461BB995F8D70000F0BFFAD5F898
:10165000D83043449E4204D295F8D700013000F0C0
:10166000B5FA4FEA980B0024A0B20134584508DAC5
:1016700080002B6801220AEB0001184400F070FB87
:10168000F2E7D5E90023D5F8D84012EB080295F827
:10169000D700444443F10003C5F8D840C5E900230E
:1016A00000F084FA844209D395F8D730013385F8E5
:1016B000D730D5F8D8309E1BC5F8D860B8F1FF0FE9
:1016C00008DC00232B7300F09BFAFFF71FFE08B124
:1016D000FFF7E4F82B68104A9B0A013313810023BB
:1016E000AB60CD46BAE6BFF34F8F0C490C4BCA68CE
:1016F00002F4E0621343CB60BFF34F8F00BFFDE7FE
:10170000AFF3008026417272DF25D7B7A0340030D6
:101710009D340030484900308C24003000ED00E05A
:101720000400FA0508B54FF040530C4A196891427D
:101730000BD1597D0A4A0B481170C9221B7D0E300E
:10174000094900F8023C00F0DBFAE02200214FF0EA
:101750004050BDE8084000F0FBBA00BF9AAD44C558
:1017600098240030484900301600003037B5022375
:10177000174D0122174918486B7100F0D3FE002362
:1017800016494FF4805216480193164B0093164B9E
:1017900001F09EFE154B197811B1114801F0C0FE01
:1017A00001F060FC0446FFF7D9FB4FF4C87304F561
:1017B0001674B0FBF3F202FB13000D4B14FA80F029
:1017C000186004F0C1FC08B10F232B8103B030BDB9
:1017D0008C24003040420F00C83400309C2400307C
:1017E000A4340030751000080D140008982400304F
:1017F000A03400302DE9F04F8C4C93B08C4E002774
:10180000DFF84C82204601F035FF024668B3002520
:101810000146DFF840920E958DF844500F951095D3
:10182000037B8DF844300FAB51F8040F496803C3B4
:10183000136843F000430E9301F016FC82190095E3
:10184000404641EB07030EA900F058FBA84205DD16
:10185000204601F013FF89F80050D3E799F80030D3
:10186000072B46DC013389F8003000230BAD4FF025
:1018700000084FF00009DFF8D8A1DFF8DCB10A93C7
:101880008DF834300B936B60002612AA012707A94C
:1018900002F82B6D334650468DF81C70CDE9008957
:1018A00001F08CF99DF81C303BB3DBF81430314665
:1018B00010220EA883F00803CBF8143000F048FA89
:1018C0000DF11E0308AA0AA9504600F00DFD0FAB4A
:1018D00095E8030083E803009DF834300EA9204604
:1018E0008DF844300A9B0E93DDE9082302F086F858
:1018F000CAE7204601F0C2FEB7E7204601F018FE15
:101900000546002842D14B4E01F0ACFB33689842AB
:101910003CD301F0A7FB8046FFF720FB4FF4C873D0
:1019200008F516788DF82850B0FBF3F202FB13008F
:1019300018FA80F03060404E96F80080B8F1000F41
:1019400001D18DF82870C8F110050EA8FFF71EFB15
:101950000EABEDB20DF1290003EB0801062D28BFF7
:1019600006252A46013500F0CBF90AAB049520463E
:10197000039318230293314B01930123009327A370
:10198000D3E9002301F0D6FD0023337001F06AFB98
:101990002B4A2C4D1368C31AB3F57A7F30D31060ED
:1019A00001F062FB02460B46204601F071FE204624
:1019B00001F0BEFD20B32B7B0EAF234E002B14BFD6
:1019C00003230223737101F04DFB4FF47A73394600
:1019D000B0FBF3F030603046FFF790FB1823073080
:1019E00003970293194BC0F3CF00019340F25513B4
:1019F0000490204600930BA3D3E9002301F09AFD45
:101A00002B7B0BB1FFF7D2FA2B7B002B7FF4F6AECA
:101A100013B0BDE8F08F00BFAFF30080401DA120E0
:101A200026812A0BF1C6A7C1D068080FA434003064
:101A300040420F00A03400309D3400309C34003010
:101A4000284A0030484900308C2400302C4A0030AD
:101A5000C83400302D4A00300004025808B505484B
:101A600000F0D2FC044A05490020BDE8084005F01A
:101A7000EBBE00BFC8340030AC4C00303910000859
:101A80002DE9F84F4FF47A7507460E46002455436A
:101A9000DFF85080DFF8509098F900305FFA84FA50
:101AA0005A1C01D0A34210D159F8240032463946BD
:101AB0000368D3F820B02B46D847864205D1084B9F
:101AC000012083F800A0BDE8F88F0134042CE3D195
:101AD0004FF4FA7003F0A6FD0020BDE8F88F00BFB8
:101AE000744A0030142300309C79000807B50022A6
:101AF00002AB012103F8012D02461846FFF7C0FF93
:101B000020B19DF8070003B05DF804FB4FF0FF30F3
:101B1000F9E700000A46042108B5FFF7B1FF80F09D
:101B20000100C0B2404208BD074B30B41A78074BE1
:101B300053F822400A46014623682046DD69044BDB
:101B4000AC4630BC604700BF744A00309C79000846
:101B5000A0860100F8B50A4C00250A4E04F05EF894
:101B6000094F208030682388834207D904F052F857
:101B7000336805440133BD423360F3D9F8BD00BF7B
:101B8000764A0030304A0030FFFF030004F014B9F9
:101B900000F1006000F580200068704700F10060EF
:101BA000920000F5802004F095B80000054B1A68FB
:101BB000054B1B889B1A834202D9104404F02AB8B3
:101BC00000207047304A0030764A003038B5074D63
:101BD00004462868204404F023F828B928682044E3
:101BE000BDE8384004F02EB838BD00BF304A0030A0
:101BF00000207047014BC058704700BF00E8F11F3C
:101C0000064991F8243033B100230822086A81F88C
:101C10002430FFF7C3BF0120704700BF344A0030B3
:101C2000014B1868704700BF0010005C234BF0B5F3
:101C3000234C1B682788C3F30B0665681B0C94F9BB
:101C40000820BE4228D0A789BE4206D101220C2519
:101C500005FB0244656894F9082041F20104A3429F
:101C60001CD041F20304A3421AD042F20104A34261
:101C700018D042F20304A34208BF5622441E013D7D
:101C80000B460C44A34217D215F9016F581C5EB1E4
:101C9000034600F8016CF5E70022D8E75A22EDE789
:101CA0005922EBE75822E9E72C2584421D7001D91F
:101CB000981C5A70401AF0BD1846FBE70010005CF3
:101CC0001823003000207047022803D14FF400226F
:101CD000014B9A61704700BF00040258022802D1EC
:101CE0000822014B9A61704700040258022804D16F
:101CF000024A536983F00803536170470004025895
:101D0000002310B5934203D0CC5CC4540133F9E7EF
:101D100010BD000030B5441E14F9010F0B4658B138
:101D200093F900500131854206D11AB993F9002088
:101D3000801A30BD013AEFE7002AF7D1104630BDD6
:101D400002460346981A13F9011B0029FAD170477D
:101D500002440346934202D003F8011BFAE770479E
:101D60002DE9F047234C05468846174694F8243061
:101D700083BB2E46DFF87C90C7B394F824302BB990
:101D80002022FF2148462662FFF7E2FF94F8240054
:101D90004146C0F1080504EB8000BD4228BF3D4626
:101DA0005FFA85FAAD00A7EB0A072A462E44FFF733
:101DB000A7FF94F82430A844FFB29A445FFA8AFA45
:101DC000BAF1080F84F824A0D6D1FFF719FF002834
:101DD000D2D108E0266A06EB8306B042CAD0FFF7EC
:101DE0000FFF0028C5D10020BDE8F0870120BDE825
:101DF000F08700BF344A0030024B1A78024B1A7049
:101E0000704700BF744A003014230030F8B5194CF5
:101E1000194802F02DFC2146174802F055FC2468B1
:101E20001648D4F89020164DD2F80438154E43F0D9
:101E30000203114FC2F8043803F0F4FB20461249A4
:101E400002F054FDD4F890200024D2F8043823F096
:101E50000203C2F804384FF4E1332B6056F8240033
:101E6000B84202D0294602F069FB0134042CF5D1B6
:101E7000F8BD00BF2C7B0008005C003040420F0022
:101E80005C4A00309C790008547B000838B50B4B45
:101E900005461A780A4B53F822400A4B9C420CD054
:101EA000094B002118221846FFF752FF0560014632
:101EB0002046BDE8384002F041BB38BD744A0030CE
:101EC0009C790008005C00305C4A0030202383F3DA
:101ED000118862B670470000002383F3118862B650
:101EE00070470000704700007047000041F2514306
:101EF000C05C704741F24A43C05C7047F8B5164673
:101F000041F254421F46BDF81850835801338350A4
:101F10000B6813F0005406D10B7B082B03DC41F255
:101F20004A43C35C83B941F258428358013383501A
:101F30004FF0FF30F8BD41F25842835801338350CF
:101F40002046FFF7C9FFF8BDFFF7C0FF436AD3F88B
:101F5000C4209202EFD40A68D3F8C440002AC369AF
:101F6000C4F30444B4BF42F08042920403EB041370
:101F70001A600A68520042BF1A6842F000521A60A2
:101F8000220691F80CE042EA0E425A604A689A60D2
:101F90008A68DA600123426AA340C2F8D03000EBBD
:101FA000441301F10C0203F58253C3E9026700EB0D
:101FB000441303F58253103351F8046B914243F8F4
:101FC000046BF9D10A781A7004F183025201811866
:101FD0000B798450012065F30003C5F3400565F3D8
:101FE000410303F0FB0343F010036FF3C3030B71D2
:101FF000A7E700005020704708B5FFF767FF41F2E0
:10200000744341F27042C3588258134441F26C4207
:102010008258134441F258428258134441F26442B8
:10202000825800F5A350134400681844FFF754FF8A
:1020300008BD000038B5044641F24C450846FFF79C
:1020400045FF61510B6807491B689847605941F289
:1020500050430121E25C036891405B689847FFF7B9
:102060003BFF38BD844A003008B5FFF72FFF41F22F
:102070003C03C05800F078FEBDE80840FFF72CBFD5
:102080002DE9F84341F24A430446C55C002D40F077
:10209000F880037A032B40F08A802B4628462E4690
:1020A000DFB297420EDA01EBC70E51F83770002FFE
:1020B00003DBDEF80470002F02DB01360133EFE7AB
:1020C0000130FBE7FFF702FF636AF0B9D3F8800045
:1020D00040F00200C3F880005020636A002E69D1EE
:1020E000D3F8802042F00102C3F88020664B674A93
:1020F0001B6803F1805303F52C539B00934223622A
:1021000040F2A880624800F0A7FF4F283DD8DFF8D2
:1021100078C14FEA004EDFF87C91DCF800704EEA9F
:10212000870EC3F884E007F1805307444FF0000E98
:1021300003F52C53C0F15000CCF80070F4469B001E
:10214000676AE360D7F8803043F03003C7F8803027
:10215000D4F80C805FFA8EF39A42BEDD01EBC30720
:1021600051F83330002B0DDB7F68002F0ADA07F0BF
:102170007F0709EA034347F008473B4348F82C3000
:102180000CF1010C0EF1010EE4E79A6922F0010254
:102190009A6100F067FF0646636A9B69D90704D518
:1021A00000F060FF801BFA28F6D9FFF795FE28465D
:1021B000BDE8F883B6EB500F3BD2DFF8CCE0370434
:1021C000DEF8000047EA800700EB4606C3F8887097
:1021D00000F18053606A03F52C53CEF800600026AE
:1021E0009B0037462361D0F8803043F00C03C0F8E1
:1021F0008030D4F810E0F3B29A427FF777AF51F80D
:10220000330001EBC30C0028DCF8043001DB002BA9
:102210000DDB20F0604023F0604340F0005043F0BD
:1022200000434EF837000EEBC7000137436001361C
:10223000E1E79A6922F001029A6100F013FF064675
:10224000636A9B69DA07B0D500F00CFF801BFA289F
:10225000F6D9AAE7626A936923F00103936100F05B
:1022600001FF0646636A9B69DB0705D500F0FAFEAD
:10227000801BFA28F6D998E7012541F24A43E55434
:1022800093E7002593E700BF804A0030FCB500408B
:10229000C87900080000FF0738B5044600680D46FD
:1022A00000F08CFD1F2809D920222946206800F063
:1022B000FDFDA0F120035842584138BD002038BD33
:1022C0000022026002734260826070470022002395
:1022D00010B5C0E90023002304460C3020F8043C6C
:1022E000FFF7EEFF204610BD2DE9F04188B005460E
:1022F00041F23C060C4690461F46FFF7E7FD684654
:10230000FFF7E4FFA85900F041FD1F2805D8002081
:10231000FFF7E2FD08B0BDE8F08120226946A85928
:1023200000F04CFE2028F2D141F24A43EB5C002B36
:10233000EDD003AA234605AD1446083303CCAC42C6
:1023400043F8080C43F8041C2246F5D120681860B5
:10235000012022791A71DDE90023C8E90023BDF8C4
:1023600008303B80D4E700002DE9F047234B0646B8
:1023700000F58157044646F8283B8946354608371C
:1023800028462035FFF7A2FFBD42F9D141F22803CC
:1023900041F2300241F23C0104F5A25AE6504FF4FA
:1023A000805360180AF1100A6B6000230026002792
:1023B000A35041F234029846A35001222A7465507A
:1023C00004F58255027110352846203545E90A6723
:1023D000FFF776FF45F8108C5545F5D141F2504393
:1023E00004F80390B9F1000F02D0054800F034FE64
:1023F000044B20466362BDE8F08700BF087A0008FE
:10240000EC79000800A00040044B10B51978044690
:102410004A1C1A70FFF7A8FF204610BD7D4A003005
:102420002DE9F04179B1274F274BB7FBF1F49942E1
:1024300094BF10230923581CB4FBF0FE00FB1E4080
:1024400038B1022B02DC0020BDE8F081013BDBB299
:10245000F1E70EF1FF36B6F5806FF4D2C3EBC30C93
:102460004FF47A780CF10300C010C5B201305C1B48
:1024700008FB00F8E4B2204498FBF0F080B2B0F51D
:10248000617F08D90CF1FF354FF0080C95FBFCF586
:10249000EDB25B1BDCB22B1903FB0EEEB7FBFEFEAD
:1024A0007145D0D1691EC9B20F29CCD8631EDBB2E9
:1024B000072BC8D800201680D170907001201371AE
:1024C000BDE8F08100A24A043F420F0038B5124C2B
:1024D000416A2268930043F4D013C1F8A03002F19E
:1024E000805302F16801456A03F52C53E8328900F4
:1024F0009B00226041F00051084A4361C5F8C010BA
:1025000003F5D07103F56873C1619342036202D988
:10251000034800F0A1FD38BD804A0030FCB5004002
:10252000C879000841F250432DE9F041C35C88B0FE
:1025300004460F46012B16464ADC854A52F8231002
:1025400009B942F82300834967600B782672C3B942
:10255000FFF7BCFC804BD3F8EC2042F48072C3F848
:10256000EC20D3F8942042F48072C3F89420D3F87E
:10257000942022F48072C3F8942001230B70FFF79B
:10258000ABFC41F24945635D6BB9FFF79FFC02214B
:10259000132001F025FE0221152001F021FE012368
:1025A0006355FFF799FCFFF791FC626A936923F08A
:1025B0001003936100F056FD0546636A9A6910079F
:1025C00008D500F04FFD401BFA28F6D9FFF784FC30
:1025D0000027B9E09A6942F001029A6100F042FDD9
:1025E0000546636A9A69D10705D400F03BFD401B9C
:1025F000FA28F6D9EAE79A69002542F00202A846CD
:102600009A61636A5D65FFF767FC41F23C03E0583D
:1026100000F0AAFB202200216846FFF799FB02A8E0
:10262000FFF74EFE05F582530DF1200C6A46083384
:102630004CF8088D234496460833BEE80300E6456F
:1026400043F8080C43F8041C7246F4D1DEF800008D
:1026500020351860B5F5806F9EF804201A71D9D125
:10266000002541F2484339466A46E55441F24B435E
:102670002046ADF80050E5548DF802508DF8035017
:102680008DF80450FFF7CCFED4F824E0074690B94B
:10269000DEF8183023F00103CEF8183000F0E2FC29
:1026A0000546636A9B69DA0792D500F0DBFC401BA4
:1026B000FA28F6D98CE79DF803309DF802201B021A
:1026C0009DF80400BDF8001043EA42620904024389
:1026D0000B430A4343EA00132046CEF81C20626AEB
:1026E000D360636AC3F8BC50FFF7F0FE41F2514378
:1026F0006FF04042E554636A1A65184A636A5A6586
:102700004FF00222636A9A654FF0FF32636AC3F8A2
:10271000E0200322636A9642DA6515D0626A936903
:1027200023F00103936100F09DFC0546636A9B69F9
:10273000DB0705D500F096FC401BFA28F6D947E7E1
:10274000012241F24A43E254384608B0BDE8F08124
:10275000784A00307C4A003000440258550200029A
:102760002DE9F04300F5A25989B0044616461F46EC
:10277000002509F11C09DFF8B880202D54D0636AC8
:10278000D3F8D830EB40D9074CD505F1830304EBDF
:1027900043131A79120745D4D9F800200132C9F839
:1027A00000201A7942F008021A71D30729D541F2A4
:1027B0004B43E35C2BB36846FFF788FD03AA04EBA9
:1027C000451303F5825303F1180C103318680833CE
:1027D00053F8041C96466345AEE803007246F5D1F3
:1027E00018686946CEF8000004F581501B791C304A
:1027F0008EF804300123CDE90067ADF80830FFF70B
:102800004BFD41F24C43E35863B141F27842012160
:102810004046A3580133A35041F25043E35C994032
:1028200000F06CFA0135A8E709B0BDE8F08300BFFD
:10283000844A00302DE9F0478A468CB0044600F007
:1028400013FC06460F46BAF1000F41D1636AD3F874
:10285000A02012F4FE0F03D100200CB0BDE8F087D9
:10286000D3F8A420920141BF41F270416258013275
:102870006250D3F8A4205506EED0D3F8A430656991
:10288000C3F3052805EB08156846FFF719FDE9466F
:102890002B685A004ABF23F06042C3F38A4242F0D9
:1028A00000429B0000920DF1030242BF009B43F0E7
:1028B00080430093EB8803F00F038DF80C30EB1D81
:1028C0000F35AB4220D013F8011F02F8011FF8E7C3
:1028D000BAF1010FC0D1636AD3F8B02012F4FE0F31
:1028E000BAD0D3F8B420900141BF41F27041625890
:1028F00001326250D3F8B4205106ADD0D3F8B430D1
:10290000A569C3F30528BDE7BAF1000F1CD1636ABE
:10291000C3F8A88004A807ADFFF7D8FC99E80F001A
:1029200007C504F581502B70002304A91C30ADF8B5
:102930001830CDE90467FFF7AFFC60B141F268429F
:10294000A3580133A35088E7BAF1010FE2D1636ABB
:10295000C3F8B880DEE741F26C420120A35801338E
:10296000A3507AE7F8B500F5A25504460F460126B4
:102970000B3539462046FFF75DFF08B12E70F8E7AA
:1029800041F24C43E35873B141F2784201210648C9
:10299000A3580133A35041F25043E35C9940BDE892
:1029A000F84000F0ABB9F8BD844A0030426AF0B597
:1029B000136CC3F3074343B341F27C43126C00F53D
:1029C000A3510125C2500023043103F1830200EB1F
:1029D00042121479A60715D5640713D45C01466A20
:1029E00004F58354D6F8CC70045905FA04F43C423B
:1029F00008D0C6F8D440147944F0040414710A686D
:102A000001320A600133202BDFD1F0BD38B5274DEC
:102A1000274C2A68C2B901222265102222654FF490
:102A20008052226538BD216DC80730D4236D590707
:102A30002DD4236DDB0631D4236D58062ED428689F
:102A4000BDE83840FFF7B2BF0028ECD0226D9105F9
:102A500010D54FF40072226500F006FB02460B46CB
:102A600052EA030103D012F1FF3243F1FF33286829
:102A7000FFF776FE0E4B1A6D9201E0D54FF0007213
:102A800001211A6541F251432A68D154D7E7052341
:102A9000002110462365FFF765FFCAE75022044B6B
:102AA00001211A652868FFF75DFFC8E7784A003002
:102AB00000A0004008B5FFF709FAFFF777FFBDE86F
:102AC0000840FFF709BA0000436AD3F8C00010F0CD
:102AD0007C5005D0D3F8C40080F40010C0F34050FF
:102AE0007047000008B5FFF7F1F941F23C03C05808
:102AF00000F04CF9FFF7F0F91F288CBF00200120EF
:102B000008BD000041F25142835C5BB1416A8B69B0
:102B100023F001038B6141F2744143580133435068
:102B200000238354704700002DE9F84F90469946E2
:102B3000FFF7CCF900F5825300224FF0010E083365
:102B400000F5A35702F1830100EB41110C796507F1
:102B50000FD4E4060DD59E69456A0EFA06F6D5F83F
:102B6000CC40264205D0D3E900ABCB4508BFC245D7
:102B700007D301322033202AE4D1BDE8F84FFFF714
:102B8000ABB9C5F8D4600C7944F004040C71396811
:102B900001313960EDE70000F8B51E4600230F460D
:102BA000054613701446FFF79DFF80F00100387052
:102BB0001EB12846FFF788FF2070F8BD2DE9F74FBA
:102BC0000D469B460B780446164692F800A00193EA
:102BD00000F04AFA2B788046894613B93378002BE7
:102BE00046D042464B462046FFF79EFF2046FFF761
:102BF00061FF2046FFF786FF5B46324629462046A6
:102C0000FFF7CAFF2B782BB1019B1BB1012003B04A
:102C1000BDE8F08F337813B1BAF1000FF6D104F5A7
:102C2000A2570C37DDE90C23994508BF90451FD208
:102C30003868E8B10368D968DDE90C23B2EB080213
:102C400063EB090388475B46324629462046FFF777
:102C5000A3FF2B7813B1019B002BD7D1337813B18D
:102C6000BAF1000FD2D100F0FFF980468946D9E7CA
:102C70000020CCE708B50020FFF7C8FEBDE80840FB
:102C800001F0FEB808B50120FFF7C0FEBDE808401E
:102C900001F0F6B8034A0449134643F8041B536095
:102CA000704700BF844A0030447A0008F0B587B00E
:102CB00004461F4616460C98043403681B6998475F
:102CC00001A94FF0FF3302460546204602F0E2F923
:102CD00056EA070328460CBF0021314602F036FAB7
:102CE000054601A9204602F0E9F9B5FA85F0400948
:102CF00007B0F0BD043002F01DBA000008B5202373
:102D000083F31188043002F001FA002383F3118861
:102D100008BD0000054B002203F508715A612033FD
:102D200043F8082C8B42F9D1704700BF8C4A003021
:102D3000FFF706B80FB4064B07B504A91B6851F896
:102D4000040B0191984703B05DF804EB04B07047A1
:102D50003023003010B5037C044613B9006803F03B
:102D6000FFF8204610BD00000023BFF35B8FC36057
:102D7000BFF35B8FBFF35B8F8360BFF35B8F7047E5
:102D8000BFF35B8F0068BFF35B8F704770B506467B
:102D90000C30FFF7F5FF044606F108052846FFF75B
:102DA000EFFF844206D276682846FFF7E9FF3444F5
:102DB000201A70BD2846FFF7E3FFF9E770B5054616
:102DC0004068A0B105F10C0605F10800FFF7D8FF37
:102DD00004463046FFF7D4FF844204F1FF34304606
:102DE00094BF6D680025FFF7CBFF2C44201A70BDFF
:102DF00038B50C460546FFF7C9FFA04210D305F1D0
:102E00000800FFF7BDFF6B682044BFF35B8FB0FB8A
:102E1000F3F403FB1400A8600120BFF35B8F38BDFF
:102E2000002038BD2DE9F041144680460D46FFF7DD
:102E3000C5FF844228BF0446DCB1474657F80C6BF7
:102E40003846FFF79DFF304428603846D8F80460C4
:102E5000FFF796FF301AA0423DBF6860241AD8F8E9
:102E6000003001202FBF6C600220AB60EC60BDE839
:102E7000F0812046BDE8F08138B50C460546FFF7E5
:102E80009DFFA04210D305F10C00FFF779FF6B689E
:102E90002044BFF35B8FB0FBF3F403FB1400E86046
:102EA0000120BFF35B8F38BD002038BD2DE9F04312
:102EB00085B0002688460746694601ADFFF7B2FF98
:102EC000344681464E4505F108050CDA08EB04014D
:102ED00055F8082C55F80C0C0136FEF711FF55F883
:102EE000083C1C44EEE721463846FFF7C5FF204664
:102EF00005B0BDE8F0830000F8B506460C300F467B
:102F0000FFF73EFF06F1080504462846FFF738FFA5
:102F10008442284638BF7468FFF732FF201A3860B1
:102F200020B134682846FFF72BFF2044F8BD00008D
:102F300073B5144606460D46FFF728FF84420190FC
:102F400028BF0446DCB101A93046FFF7D5FF019B3D
:102F500033B93268AB60EB6085E8140001200CE007
:102F6000A342286088BF01940198A0426860F5D20E
:102F70003368241A0220AB60EC6002B070BD2046BA
:102F8000FBE700002DE9FF4100240F466946FFF7EB
:102F9000CFFF2546804644450BDA0DEBC4035DF8B0
:102FA0003410781901345E6832463544FEF7A8FEC5
:102FB000F1E7284604B0BDE8F081000038B50546C9
:102FC000FFF7E0FF044601462846FFF711FF2046C1
:102FD00038BD0000FEE7000000B59BB0EFF30981AB
:102FE00068226846FEF78CFEEFF30583044B9A6B6C
:102FF000DA6A9A6A9A6A9A6A9A6A9A6A9B6AFEE78F
:1030000000ED00E000B59BB0EFF30981682268464F
:10301000FEF776FEEFF30583044B9A6B9A6A9A6A81
:103020009A6A9A6A9A6A9B6AFEE700BF00ED00E01E
:1030300000B59BB0EFF3098168226846FEF760FE99
:10304000EFF30583034B5A6B9A6A9A6A9A6A9A6AF3
:103050009B6AFEE700ED00E00FB408B5029802F0AD
:103060003DFAFEE702F0B8BF02F0A2BF30B50A4455
:10307000074D91420BD011F8013B09245840013C07
:10308000F7D040F300032B4083EA5000F7E730BD50
:103090002083B8ED2DE9F047089E01F0070500EB0D
:1030A000D1004FF47F494FEAD60C2A4406F00706B8
:1030B000954201D1BDE8F08705F0070E06F0070A3A
:1030C000511BEC08D6457746045D0CEBD60838BF9B
:1030D000574604FA0EF4C7F1080724FA0AF48F429F
:1030E00028BF0F4613F8081029FA07FE4C403D444C
:1030F0003E445FFA8EFE4EFA0AFE04EA0E04614078
:1031000003F80810D4E700000246006848B10368DD
:1031100011891360D38801339BB29942D38038BFA1
:103120001381704770B588B004460D4620220021F7
:103130006846FEF70DFE20460495FFF7E5FF0546BD
:1031400060B16B46044608AE1A46083403CAB24260
:1031500044F8080C44F8041C1346F5D1284608B07E
:1031600070BD00002DE9F041056885B90160BDE83A
:10317000F081002B29DA930CB34229D1A54201D169
:103180000D60F3E7C8F800100C60BDE8F0814B68F3
:10319000A8462C4623F060474FEAD37EC3F3807CD9
:1031A000BE0C16EA230638BF3E466368BEEBD37FEB
:1031B00023F06042DDD1974203D1C3F380739C4575
:1031C0000AD1974205E01C46EFE7B24206D013460B
:1031D0009E422CBF00230123002BCFD12368A046A1
:1031E000002BF0D12160BDE8F08100002DE9F04115
:1031F00006460F4600254FF6FF7441F221082A4685
:1032000030463946FDF754F80823C0B284EA00245A
:1032100014F4004F4FEA440403F1FF33A4B218BF83
:1032200084EA080413F0FF03F2D10835402DE6D1FB
:103230002046BDE8F081000010B54B6833B9CA8A5A
:10324000002063F30902CA82002110BDC4681A6815
:103250001C60C360438A013B43824A60EDE7000083
:1032600010B50A4441F22104914200D110BD11F879
:10327000013B80EA0320082310F4004F4FEA40008E
:1032800003F1FF3380B218BF604013F0FF03F3D1A6
:10329000EAE700002DE9F04F85B081469346BDF87E
:1032A0003C408DE80A00002A00F0838024B10E9B88
:1032B000002B7ED0072C2AD809F10C00FFF724FF41
:1032C000054628B96FF00205284605B0BDE8F08F25
:1032D00014220021FEF73CFD22460E9905F108005C
:1032E000FEF70EFD631C2C4429462B7409F11C00CB
:1032F0009BF8003003F01F0363F03F032372009B31
:1033000043F000436B600125FFF72CFFDCE7019BD6
:103310004FF000084FF0800A1B0A464645460293CC
:1033200000F10C0303930398FFF7EEFE0746002815
:10333000C8D014220021FEF70BFDC6BB9DF8043057
:1033400002223B729DF808307B72711E0E9B19445D
:10335000B4420AD9B818013211F801EF0136D2B2DD
:1033600080F808E0B6B2072AF2D19BF80010B44208
:1033700008BF4FF0400AB818013201F01F010135B3
:1033800041EA481188F001082DB24AEA01033946A2
:103390004FF0000A037209F11C00009B3A7443F0DD
:1033A00000437B60FFF7DEFEB442BCD18CE7002215
:1033B000CBE76FF0010587E72DE9F0471E46CB8A82
:1033C00091468046C3F309020F46062A19D01346D8
:1033D0000021B0B28DB25A1992B2052A09D9A84279
:1033E00010D8FA8A034463F30902FA820120BDE887
:1033F000F087A842F3D919F801403A440131947694
:10340000E8E70025FB8A7C68C3F309001C23821FC0
:10341000B2FBF3FA03FB1A2A1FFA8AF27CB30121EA
:103420002368002B39D1B31F03441C20B3FBF0F3F6
:1034300001339BB299420CD2BAF1000F09D1404638
:10344000FFF762FE08B1C0F800A0206008B3044690
:103450000022B6B24FF0000AB54230D2691E1346C0
:103460004944E018013311F801EF01359BB280F8AF
:1034700004E0ADB21C2B14D0AE42F2D8ECE74046CB
:10348000FFF742FE044608B1002303607C60002C75
:10349000DED16FF00200BDE8F08701311C4689B231
:1034A000BEE7AE42D8D94046FFF72EFE08B1C0F8BD
:1034B00000A020600028ECD004460022CCE7FB8A64
:1034C000C3F30902164466F30903FB828EE700008A
:1034D000F8B515460E462422002104461F46FEF785
:1034E00037FC069B6A090020636004F10C05079B0A
:1034F000A76023624FF6FF7320709A4228BF1A46D6
:10350000034697B29A4205D100232B60278263823B
:10351000A382F8BD2E60013335462036F2E7000065
:1035200003781BB94BB2002BC8BF01707047000075
:10353000007870472DE9F7430D9E0746194610465F
:10354000BDF828900B9D9DF83040BDF8388016B925
:10355000B8F1000F40D11F2C3ED83B78D3B9B8F159
:10356000070F36D839F0030336D1424631464FF6BD
:10357000FF704FEA0929FFF773FE20F0010009F4FC
:103580004079400449EA0464400C44EA40244FF680
:10359000FF730DE043EA0923B8F1070F43EA04641F
:1035A000F5D9FFF723FE42463146FFF759FE0346A1
:1035B0002A46214638468DE84001FFF76BFE2B78FE
:1035C0000133DBB21F2B88BF00232B7003B0BDE893
:1035D000F0836FF00300F9E76FF00100F6E70000F9
:1035E0002DE9F7430E9F81460B9D9DF830009DF815
:1035F0003480BDF83C6007B9AEBB1F2833D899F8BA
:1036000000E0BEF1000F31D00C029DF82810072E0B
:1036100044F0800444EAC83444EA014444EA0E0415
:1036200044EA00641CD919461046FFF7DFFD324614
:103630003946FFF715FE034601962A4600972146B4
:103640004846FFF727FEB8F1010F06D12B7801336A
:10365000DBB21F2B88BF00232B7003B0BDE8F083C3
:103660004FF6FF73E8E76FF00100F6E76FF0030035
:10367000F3E70000C06900B104307047C3691A68FD
:10368000C261C2681A60C360438A013B43827047CB
:103690002DE9F047D0F818A0054616461F465446B7
:1036A000DFF868804FF000090CB9BDE8F087D4E975
:1036B0000223B21A67EB0303994508BF904523D252
:1036C000AB69214628469C420FD1FFF7B5FDAB6997
:1036D0001B68AB61EB6823606B8AEC60013BAC69F3
:1036E0006B822346A2461C46DEE7FFF7A5FD236852
:1036F000CAF80030EB6823606B8AEC605446013BEB
:103700006B82DAF80030EDE72368EBE780841E0077
:103710002DE9F04F8BB00E46144683460793DDF833
:103720005080002800F01081B8F1000F00F00C81EB
:10373000531E3F2B00F20881012A03D1079B002B67
:1037400040F00281BBF814500023ED000893099368
:10375000AE4204D3002630460BB0BDE8F08F3319DB
:103760009D42DBF80C3036BFAD1B2546EDB223B9C8
:10377000DBF81030002B00F093802F2E64D8C6F1B8
:10378000300700233146BD42009308ABDBF8080048
:103790002CBFFFB22F46A5EB07093E443A465FFA1D
:1037A00089F9FFF777FCBBF81430302103F100539F
:1037B000063BDB000493DBF80C300393039B13B14F
:1037C000B9F1000F43D1DBF8100040B1B9F1000F9F
:1037D00005D008AB4A46711A0097FFF75BFC2EB282
:1037E000002DB7D060070AD00AAB624203EBD401C8
:1037F00002F0070211F8083C134101F8083C082CBC
:1038000055D9102C55D9202C8CBF08230423079A96
:10381000002A00F09F80B4EBC30F00F09E80082CBC
:1038200049D89DF82030621E23FA02F2D10706D54E
:103830004FF0FF3202FA04F423438DF820309DF854
:10384000203088F8003086E7A9460027ABE7049BC4
:10385000E02B28BFE02306930B44B342059316D90F
:10386000A3EB060A00970398711AD14508AB00F143
:1038700004002CBF5FFA8AFACA465744A9EB0A092A
:1038800056445246FFB25FFA89F9FFF703FC049BE6
:10389000069A05999B1A0493039B1B6803938DE773
:1038A00000932A4608AB3146DBF8080095E7012370
:1038B000ADE70223ABE7102C12D8BDF82030621E12
:1038C00023FA02F2D20706D54FF0FF3202FA04F4CF
:1038D0002343ADF82030BDF82030A8F800303AE797
:1038E000202C0FD8089A631E22FA03F3DB0705D5B4
:1038F0004FF0FF3303FA04F414430894089BC8F80C
:10390000003028E7402C22D0621EDDE908AB50468B
:103910005946FCF7CDFC002100F0010050EA0103FC
:103920000DD0224601200021FCF7CEFC404261EB85
:10393000410140EA0A0041EA0B01CDE90801DDE955
:103940000823C8E9002306E76FF0010603E76FF0DC
:10395000080600E7012C3FF472AF082C7FF66FAF2A
:10396000102CB8D9202CEAD8C8E70000402A30B57E
:1039700085B01FD8002A08BF01220024012A029422
:10398000039419D11B788DF8083053070AD004AB83
:10399000544203EBD20504F0070415F8083CA34099
:1039A00005F8083C00910346002102A8FFF772FBCE
:1039B00005B030BD4022E0E7082AE3D9102A03D839
:1039C0001B88ADF80830E0E7202A02D81B68029374
:1039D000DBE7D3E90045CDE90245D6E710B5CB6872
:1039E0001BB98B600B618B8210BDC4681A681C60A8
:1039F000C360438A013B4382CA60F0E72DE9F04F80
:103A0000D1F800908FB004460D46C9F3C016CDE939
:103A10000223002E50D0C9F3C03AC9F30626B9F1EB
:103A2000000F80F2CB8119F0C04F40F0C7812B7B93
:103A3000002B00F0C381BAF1020F03D02278B2420A
:103A400040F0BF8109F07F02BAF1020F059236D132
:103A500019F07F0FC9F30F2B01D10BF0030B2B448F
:103A60007606059A46EA0A4693F8038046EA8246B5
:103A70005FEAD81346EA0B06049300F0A180002207
:103A800000230EA96768204661E90823059B5A4672
:103A900000935346B847002800F08F80A7698FB97C
:103AA000314604F10C00FFF73DFB0746D0B96FF03B
:103AB00002000FB0BDE8F08F4FF0020AAFE7C9F384
:103AC000074BCCE73B699E420DD03F68002FF9D1F0
:103AD000314604F10C00FFF725FB07460028E6D02D
:103AE000A3693B60A761DDE90601FFF77FFBB882B0
:103AF000F97D08F01F06C9F30469C1F38401891B2D
:103B000089B20FFA81FEBEF1000FD7E90223BCBFD4
:103B100001F1200E0FFA8EFE52EA030100F05D81E2
:103B2000DDE90201801A61EB03010246B6480B464B
:103B30000021994208BF9042C0F04F81049B002BA6
:103B400048D0BEF1010F00F3488118F0400F41D07A
:103B5000002106A8DDE90223C7E902232022FEF79F
:103B6000F7F8ADF82EB08DF830A006A98DF83160C9
:103B700020468DF83290DDE90223CDE906232B1D86
:103B800008932B7B013BDBB2ADF82C309DF8143051
:103B90008DF83330A3689847FB7DC3F3840201326C
:103BA00062F38603FB75FB8A6FF30903FB821B0A32
:103BB0006FF3C713FB7500207BE76FF00B0078E70E
:103BC000A76917B96FF00C0073E73B699E428FD06D
:103BD0003F68F6E7FB7DC8F34012B2EBD31F40F01D
:103BE000F380C3F38403B34240F0F18004994FEAB9
:103BF00098122B7B00293BD012F001085CD1032BDB
:103C000040F2E880AE1D394604F10C00DDE90223E4
:103C1000C7E902232B7B3246033BDBB2FFF7CCFB29
:103C2000002814DA39462046FFF706FBFB7DC3F374
:103C30008402013262F38603FB75FB8A68F3090391
:103C4000FB821B0A68F3C713FB75032031E7AB88BF
:103C50003B832A7B033AD2B2B88A3146FFF700FB96
:103C6000FB7DB882DA43C2F3C01262F3C713A1E747
:103C700012BB2E1D013B394604F10C00DBB232466B
:103C8000FFF79AFB002814DA39462046FFF7D4FAEA
:103C9000FB7DC3F38402013262F38603FB75049A51
:103CA000FB8A62F30903FB821B0A049A62F3C713BF
:103CB000CAE72A7B013ACEE7F98A013BC1F3090141
:103CC000DAB205295AD8281D00239A420AD907EBEF
:103CD000010E013110F801CB013306298EF81AC00C
:103CE000DBB2F2D1DDE902019342CDE9060107F131
:103CF0001A0134BF04330023089138BF5B19796877
:103D00000A930991291DFB8AADF82EB0C3F309036C
:103D10008DF830A08DF831601A449DF814308DF87C
:103D200032908DF833300023ADF82C207B602A7B55
:103D3000B88A013AFFF794FA3B8BB882834203D1E9
:103D4000A36806A920469847204606A9FFF746FE25
:103D5000FB7DB88AC3F38402013262F38603FB75EC
:103D6000FB8A6FF30903FB821B0A6FF3C713FB7512
:103D70003B8B984214BF112000209AE6D7F804E04C
:103D8000BEF1000F18D00623DEF8000088B9C91A6A
:103D900005F1040800EB010CC3B2BCF11B0FA1D864
:103DA00093429FD218F8013BF44401308CF8043060
:103DB000F0E71C338646E7E7734693E76FF00900A8
:103DC00077E66FF00A0074E66FF00D0071E66FF0B1
:103DD0000E006EE66FF00F006BE6FB7D3946204665
:103DE00068F386036FF3C713FB75FFF725FA049B8F
:103DF000002B7FF4AAAEFB7DC3F38402013262F391
:103E00008603FB75DEE600BF80841E00EFF30983A6
:103E1000054968334A6822F001024A6083F3098841
:103E2000002383F31188704730EF00E0202080F3F7
:103E3000118862B60D4B0E4AD96821F4E06109047D
:103E4000090C0A430B49DA60CA6842F08072CA6002
:103E5000094A0A49C2F8B01F116841F00101116016
:103E60001022DA7783F82200704700BF00ED00E0EF
:103E70000003FA05F0ED00E0001000E055CEACC5FF
:103E800010B5202383F311880E4B5B6813F4006395
:103E900014D0F1EE103AEFF309844FF08073683CD0
:103EA000E361094BDB68236684F3098801F0B4FA07
:103EB00010B1064BA36110BD054BFBE783F31188DE
:103EC00010BD00BF00ED00E030EF00E04707000844
:103ED0004A070008024A136843F0C00313607047A2
:103EE00000100140024A136843F0C003136070479A
:103EF00000440040024A136843F0C0031360704757
:103F00000048004037B5274C274D204600F00CFBF9
:103F1000009404F10C0000234FF40072234900F0D8
:103F2000D5F900944FF40072214904F13000214B7F
:103F300000F04EFA204BA5656365204C204600F04A
:103F4000F3FA009404F10C0000234FF400721C49B2
:103F500000F0BCF900944FF400721A4904F13000EB
:103F6000194B00F035FA194BA5656365184C2046CE
:103F700000F0DAFA04F10C00009400234FF4007210
:103F8000144900F0A3F90094134B4FF40072134945
:103F900004F1300000F01CFA114BA565636503B015
:103FA00030BD00BFB04C003000E1F505DC4D003005
:103FB000DC530030D53E000800100140144D0030A5
:103FC000DC4F0030DC550030E53E00080044004086
:103FD000784D0030DC510030F53E0008DC570030F1
:103FE00000480040364B002908BF1946037A012BD0
:103FF00030B511D1334B98423BD1334BD3F8F0203D
:1040000042F01002C3F8F020D3F8182142F0100259
:10401000C3F81821D3F818310A68836D446D03EB97
:1040200052030166B3FBF2F34A68150442BF23F062
:10403000070503F0070343EA4503E3608B6843F099
:1040400040036360CB68510543F00103A36042F471
:10405000967343F0010323604FF0FF33236205D5CD
:1040600012F0102227D0B2F1805F26D080F85C30A9
:1040700030BD164B98420FD1134BD3F8E82042F4D1
:104080000032C3F8E820D3F8102142F40032C3F81C
:104090001021D3F81031BFE70D4B9842BCD10A4B29
:1040A000D3F8E82042F48022C3F8E820D3F81021A6
:1040B00042F48022EBE77F23D8E73F23D6E700BF17
:1040C000507A0008B04C003000440258144D0030C3
:1040D000784D00302DE9F047466D05463768F469A4
:1040E000200734621AD014F0080F0CBF0021802181
:1040F000E20748BF41F02001A3074FF0200348BF6B
:1041000041F04001600748BF41F4807183F311889A
:10411000281D00F0FBFF002383F31188E2050AD578
:10412000202383F311884FF40071281D00F0EEFF67
:10413000002383F311884FF020094FF0000A14F098
:10414000200831D13B0616D54FF0200905F1300A81
:10415000200610D589F31188504600F06DF900282B
:104160002FDA0821281D00F0D1FF27F080033360EB
:10417000002383F3118879060DD562060BD5202321
:1041800083F311886A6CAB6C9A4201D1AB6BEBB9CB
:10419000002383F31188E30620D52A6E1369EBB15F
:1041A0005069BDE8F047184789F31188736A2846BB
:1041B00095F85C10194000F0CFF98AF31188F46982
:1041C000BDE7B06288F31188F469C1E727F04007C2
:1041D0001021281D00F09AFF3760D9E7BDE8F0876D
:1041E00000F1604300F01F020901400903F561433B
:1041F000C9B2800083F80013012300F160409340AE
:1042000000F56140C0F8803103607047F8B515468D
:10421000826804460B46AA4200D28568A1692669D5
:10422000761AB54207D218462A46FDF769FDA369FA
:104230002B44A3610DE011D9AF1B32461846FDF7A0
:104240005FFD3A46E1683044FDF75AFDE2683A44C2
:10425000A261A36828465B1BA360F8BD18462A46E6
:10426000FDF74EFDE368E4E7836893422DE9F041F2
:1042700004460F46154600D2856860692669361ADD
:10428000B54207D22A463946FDF73AFD63692B4409
:1042900063610EE013D9A5EB060832463946FDF7F7
:1042A0002FFD4246B919E068FDF72AFDE268424455
:1042B0006261A36828465B1BA360BDE8F0812A46C3
:1042C0003946FDF71DFDE368E2E7000010B50A443A
:1042D0000024C361029B006040608460C160816112
:1042E00041610261036210BD08B58269436993426E
:1042F00001D1826882B98268013282605A1C4261AF
:104300001970426903699A4201D3C368436100216D
:1043100001F0AEF9002008BD4FF0FF3008BD0000ED
:1043200070B5202304460E4683F31188A568A5B115
:10433000A368A269013BA360531CA361157822699D
:10434000934224BFE368A361E3690BB12046984719
:10435000002383F31188284670BD3146204601F0C2
:1043600077F90028E2DA85F3118870BD2DE9F74F5F
:1043700005460F4690469A46D0F81C90202686F3B4
:1043800011884FF0000B144664B122463946284686
:10439000FFF73CFF034668B95146284601F058F93B
:1043A0000028F1D0002383F31188A8EB040003B0A8
:1043B000BDE8F08FB9F1000F03D001902846C8473F
:1043C000019B8BF31188E41A1F4486F31188DBE705
:1043D000C160816141611144C361009B0060406024
:1043E0008260016103627047F8B504460E461746C5
:1043F000202383F31188A568A5B1A368013BA360BE
:1044000063695A1C62611E70236962699A4224BF03
:10441000E3686361E3690BB120469847002080F3AD
:104420001188F8BD3946204601F012F90028E2DA79
:1044300085F31188F8BD0000836942699A4210B57E
:1044400001D182687AB98268013282605A1C826125
:104450001C7803699A4201D3C3688361002101F08B
:1044600007F9204610BD4FF0FF3010BD2DE9F74F82
:1044700005460F4690469A46D0F81C90202686F3B3
:1044800011884FF0000B144664B122463946284685
:10449000FFF7EAFE034668B95146284601F0D8F80E
:1044A0000028F1D0002383F31188A8EB040003B0A7
:1044B000BDE8F08FB9F1000F03D001902846C8473E
:1044C000019B8BF31188E41A1F4486F31188DBE704
:1044D0000C30FFF74BBF00004FF0FF330C30FFF7FD
:1044E00045BF00003030FFF7C1BF00004FF0FF3381
:1044F0003030FFF7BBBF00000C30FFF711BF0000EA
:104500004FF0FF310C30FFF70BBF00003030FFF7EA
:104510006BBF00004FF0FF323030FFF765BF000087
:1045200000207047FFF7EEBC0346034A43F8042B14
:104530004360012303727047687A000810B5202396
:10454000044683F31188FFF74DFD022323720023F5
:1045500083F3118810BD000038B5436904460D4649
:104560001BB90421084400F0D1FD294604F10C00D8
:10457000FFF7BAFE002806DA201D4FF48061BDE87F
:10458000384000F0C3BD38BD37B5446B41F69C05DB
:1045900063591A681178042914D1217A022911D19A
:1045A0001979012312898B4013420BD101A904F11F
:1045B000440002F0A7FC64590246019B217920685F
:1045C00000F002FA03B030BD0C3002F02BBC00004A
:1045D0004FF0FF330C3002F025BC0000443002F0F5
:1045E000FDBC00004FF0FF33443002F0F7BC000088
:1045F0000C3002F0F9BB00004FF0FF310C3002F03C
:10460000F3BB0000443002F0C9BC00004FF0FF32A1
:10461000443002F0C3BC000070B541F69C0605466C
:10462000825913681978042901D0012070BD017ADC
:104630000229FAD1527901205C8990400440F4D1DA
:1046400005F10C0002F08AFB02460028EDD0AD59BE
:104650004FF440732868697900F0A4F9204670BDD2
:10466000406BFFF7D9BF0000002070477047000083
:104670007FB50346114A0125042643F8042B04465E
:10468000436000F17C020E4B2946057202900C300B
:1046900001934FF44073009602F03CFB094B04F683
:1046A0008C422946019304F144004FF44073029474
:1046B000009602F003FC04B070BD00BF907A0008C1
:1046C00061460008894500080A68202383F31188A1
:1046D0000B790B3342F823004B79133342F8230054
:1046E0008B7913B10B3342F8230041F69C03C15080
:1046F00002230372002383F31188704738B5037DCA
:10470000044613B190F84C30ABB90125201D0221AD
:1047100000F0FCFC04F10C0025756FF0010100F0C5
:10472000B3FF84F84C5004F144006FF00101BDE880
:10473000384000F0A9BF38BD10B50121044604304F
:1047400000F0E4FC0023237584F84C3010BD000019
:1047500038B5044600250C3002F0F4FA04F14400A8
:10476000257502F0C3FB201D84F84C50012100F098
:10477000CDFC2046BDE83840FFF74EBF90F88030B2
:1047800003F06003202B19D190F88120212A0AD050
:10479000222A4FF000030ED0202A0FD1084A426788
:1047A0000722826704E0064B4367072383670023E1
:1047B000C3670120704743678367F9E700207047AC
:1047C0003423003073B541F69C05044643591A68FA
:1047D0001178042919D1017A022916D119790123F6
:1047E00012898B40134210D100F14406304602F08A
:1047F0003DFC50B101A9304602F084FB64590246E9
:10480000019B2179206800F0DFF802B070BD000044
:1048100001F10B03F7B550F8234005460E46F4B1FD
:10482000202383F3118805EB8607201D08214434DB
:1048300000F06CFCFB685B691B6813B1204602F05A
:104840006FFB01A9204602F05DFB024648B1019BC7
:104850003146284600F0B8F8002383F3118803B0EE
:10486000F0BDFB685A691268002AF5D01B8A013B2B
:104870001340F1D105F18002EAE70000133138B5A9
:1048800050F82140E4B1202383F3118841F69C03C2
:10489000E2581368527903EB8203DB689B695D6819
:1048A00045B10421601800F031FC294604F10C00E8
:1048B00002F05EFA2046FFF7AFFE002383F3118873
:1048C00038BD00007047000001F01EBD012300F15B
:1048D000300200F1500103700023436042F8043BB2
:1048E0008A42D361FAD103814381704738B50446C7
:1048F000202383F31188002500F10C0300F130021E
:10490000416043F8045B9342FBD1204601F01EFD59
:104910000223237085F3118838BD000070B500EBC9
:104920008103054650690E461446DA6018B1142218
:104930000021FDF70DFAA06918B114220021FDF73E
:1049400007FA31462846BDE8704001F011BE00006C
:10495000F8B50389044600F1100500F1300603F0B4
:10496000010300270381438903F0010343812B687E
:1049700073B1586920B16FF001010C3000F05EFE98
:104980002B68986920B16FF001010C3000F056FEE1
:1049900045F8047BB542EAD12046BDE8F84001F075
:1049A0007FBE0000F0B4012500EB81044789E46874
:1049B0008D40A4693D43458123600023A26063606C
:1049C000E360F0BC01F09ABEF0B4012500EB810475
:1049D0000789E4688D4064693D43058123600023B5
:1049E000A2606360E360F0BC01F018BF02232DE910
:1049F000F04103700023044600F10C0600F130077B
:104A00004FF020081D46A0F8883080F88A3080F8E2
:104A10008B300381438133689BB188F311883368FD
:104A2000586920B16FF001010C3000F007FE3368C7
:104A3000986920B16FF001010C3000F0FFFD85F3A3
:104A4000118846F8045BBE42E5D184F870502046D8
:104A500001F022FD63681B6823B120460021BDE8F8
:104A6000F0411847BDE8F081F8B50378044680F8B6
:104A70008C300523037043681B680BB104219847F1
:104A8000002304F10C052027303424F8283C1E466E
:104A900024F8263C2B689BB187F311882B68586952
:104AA00020B16FF001010C3000F0C8FD2B6898694F
:104AB00020B16FF001010C3000F0C0FD86F31188C9
:104AC0000435A542E6D1F8BD436890F88C201B68F8
:104AD00002700BB1052118477047000090F8703044
:104AE00070B5044613B1002380F8703004F18002E1
:104AF000204601F0F9FD63689B6863BB94F8805021
:104B000015F0600615D194F8813005F07F0545EA6F
:104B1000032540F202339D4200F00E815BD8022D46
:104B200000F0DC803FD8002D00F08780012D00F0E0
:104B3000CF800021204602F0C9F80021204602F073
:104B4000B9F863681B6813B106212046984706230D
:104B500084F8703070BD204698470028CED094F875
:104B6000872094F8863043EA0223A26F934238BF2D
:104B7000A36794F98030A56F002B4FF0200380F2DB
:104B8000FD80002D00F0EC80092284F8702083F372
:104B900011880021A36F626F2046FFF715FF0023E5
:104BA00083F3118870BDB5F5817F00F0B180B5F554
:104BB000407F49D0B5F5807FBBD194F88230012B7E
:104BC000B7D1B4F8883023F00203A4F888306667C0
:104BD000A667E667C3E740F201639D421ED8B5F5BC
:104BE000C06F3BD2B5F5A06FA3D1B4F88030B3F558
:104BF000A06F0ED194F88230204684F88A3001F0FC
:104C0000A9FC63681B6813B1012120469847032360
:104C1000237000236367A367E367A0E7B5F5106F10
:104C200032D040F602439D4252D0B5F5006F80D19C
:104C300004F18B036367012324E004F18803E56733
:104C400063670223A3678AE794F88230012B7FF41D
:104C500070AFB4F8883043F00203B6E794F88520CB
:104C60002046616894F884304D6843EA022394F842
:104C7000831094F88220A84700283FF45AAF436875
:104C800063670368A367A4E72378042B10D120236C
:104C900083F311882046FFF75BFE86F31188636873
:104CA000032184F88B601B6821700BB12046984764
:104CB00094F88230002BACD084F88B30042323701E
:104CC00063681B68002BA4D0022120469847A0E708
:104CD000374B63670223A36700239DE794F8841092
:104CE000204611F0800F01F00F010ED001F0EEFC14
:104CF000012806D002287FF41CAF2E4BA067636703
:104D000067E72D4BA567636763E701F0D1FCEFE729
:104D100094F88230002B7FF40CAF94F8843013F0B9
:104D20000F013FF476AF1A06204602D501F0E6FFE8
:104D30006FE701F0D7FF6CE794F88230002B7FF427
:104D4000F8AE94F8843013F00F013FF462AF1B0605
:104D5000204602D501F0BAFF5BE701F0ABFF58E750
:104D6000142284F8702083F311882B462A462946A2
:104D70002046FFF717FE85F3118870BD5DB115223F
:104D800084F8702083F311880021A36F626F20469E
:104D9000FFF708FE03E70B2284F8702083F31188E5
:104DA0002B462A4629462046FFF70EFEE3E700BFC2
:104DB000C07A0008B87A0008BC7A000838B590F8C4
:104DC00070300446152B29D8DFE803F03E28282848
:104DD00028283E28280B2939282828282828282848
:104DE0003E3E90F8871090F88620836F42EA0122B9
:104DF0009A4214D9C268128AB3FBF2F502FB153548
:104E00006DB9202383F311882B462A462946FFF7E4
:104E1000DBFD85F311880A2384F8703038BD142334
:104E200084F87030202383F31188002320461A462B
:104E30001946FFF7B7FD002383F3118838BDC36F10
:104E400003B198470023E7E7002101F03FFF00216D
:104E5000204601F02FFF63681B6813B1062120462E
:104E600098470623D8E7000090F87020152A38B537
:104E7000044622D80123934040F6416213421DD1DB
:104E800013F480150FD19B0217D50B2380F87030D7
:104E9000202383F311882B462A462946FFF794FDE9
:104EA00085F3118838BDC3689B695B682BB9C36FF4
:104EB00003B19847002384F8703038BD002101F019
:104EC00005FF0021204601F0F5FE63681B6813B161
:104ED0000621204698470623EDE700000548064BCB
:104EE0000C3040F80C3C002340F8083C40F8043CEF
:104EF00000F05EB9DC59003025710008CB1D083A7E
:104F00000C3023F00703591A521A10B4D2080024A7
:104F100040F8083C40F80C4C40F8044C1C605A60C7
:104F20005DF8044B00F044B92DE9F84F364ECD1D25
:104F30000F46002818BF0646082A4FEAD50538BF95
:104F4000082206F10C089146404600F075F906F17A
:104F5000040E09F1FF3AC9F1000BDEF800306BB91D
:104F6000404600F073F93468ACB308224946E800C3
:104F7000A04708B100E9C00004462CE003F1080195
:104F8000D3F804C001EB0A020CF1010402EA0B029F
:104F900003EBC404A2F10800A04233D2A21AD2103B
:104FA00095422FD8834219D2411A95424FEAE10126
:104FB000596009D26C1CED4300EBC4012A444A60DD
:104FC0001A6840F83420196004464760404644F8A7
:104FD000086B00F03BF92046BDE8F88F654519687D
:104FE00003D1CEF800101846EEE7013503EBC502F9
:104FF00043F8351002F10801641AE4105460CEF849
:105000000020F0E79E46A8E7DC590030F8B550F8DC
:10501000043C044650F8086CA0F108050733371D1E
:105020000C36DB0840F8043C304600F005F93B46FE
:10503000BB421A6801D0AB4229D20AB1954226D2AE
:1050400044F8082C1D6054F8042C54F8080C013264
:1050500005EBC201814207D14968114444F8041CA0
:1050600055F8322044F8082C5868411C03EBC10164
:105070008D4207D154F8042C013202445A6054F88E
:10508000082C1A603046BDE8F84000F0DFB813463F
:10509000CEE7000010B5202484F3118804680C606A
:1050A0000160054880698A6000224860CA600B611F
:1050B00082F3118810BD00BFFC590030202383F318
:1050C000118802461368984203D08B4205D10B68C1
:1050D0001360002383F3118870471A46F2E700003B
:1050E000C36A194390F820300A2BC16203D1436A86
:1050F000194205D170470B2B06D1436A8B4303D16C
:105100000023436200F0DEB87047000070B5064629
:105110000D460468B44200D170BDE3682B43E360E0
:1051200015B123691D4203D0A1686068FFF7D8FF5D
:105130002468EFE708B5202383F31188FFF7E6FF23
:1051400000F094F9002383F3118808BD0F4A70B56D
:1051500095690646202282F31188EC6A04400CD13E
:1051600019B984F31188204670BD68620A2000F0E6
:105170000FF90028F5DBEC6A3440EB6A23EA0403FC
:10518000EB62002383F31188EDE700BFFC59003088
:105190000B4610B51B68994205D15A6803604260FE
:1051A0001060586010BD9C6882689442F2D2F4E7A7
:1051B00000230060406083600361704770B51D4B41
:1051C000054684689E696CB3A64214D10369013315
:1051D000036170BDA36094F820308BB1062B17D10A
:1051E000204694E80C001A6022685360616AFFF759
:1051F000CFFF636A9C68B368A2689A42EAD307E06B
:1052000094E80C0020461A602268536000F05AF8B7
:1052100030462946FFF7BCFF75620620BDE87040A6
:1052200000F098B80369866001330361336BC36093
:10523000306370BDFC59003008B5202383F311881A
:10524000FFF7BCFF002383F3118808BD174A03460C
:1052500010B59069202282F311881969013919610A
:10526000A9B91C68DA689C4202631DD0416B92B9EF
:105270008160012218681A6102681A605360026B2B
:105280009860DA60036300F01DF800F0EFF8002387
:1052900083F3118810BD1468A24203D0A468A14210
:1052A00038BF2146D268E2E7A160F0E7FC59003040
:1052B000034B00221B605B609A601B615B6170475F
:1052C000FC5900300023826880F82030054B1B68B1
:1052D00099689142FBD25A6803604260106058603E
:1052E000704700BFFC59003008B5202383F31188B4
:1052F00090F820200023052A06D8DFE802F00B05ED
:105300000503120E426A13604FF0FF334362FFF74A
:10531000D9FF002383F3118808BD426A93680133E3
:10532000936090E80C001A6002685360ECE700009C
:105330000023826880F82030054B1B6899689142F1
:10534000FBD85A680360426010605860704700BF25
:10535000FC59003038B50D4C2268A56985F820004D
:1053600011684C6021600121A26182F82010EFF3E6
:105370000982643AE969914202D9284600F0AEFEFA
:105380002946A069BDE83840FBF7C8B9FC59003090
:105390004B1C30B5054687B00A4C10D0A36901A854
:1053A000094A00F0D7F92846FFF7D4FF049B13B150
:1053B00001A800F00DFAA369586A07B030BDFFF7E5
:1053C000C9FFF8E7FC590030E952000870B5114EEA
:1053D00004464162B36981689A68914203D8BDE886
:1053E0007040FFF76FBF1846FFF7A2FF0123054685
:1053F000B46184F82030EFF30983643BC2699A42B8
:1054000001D900F06BFE29462046BDE87040FBF74D
:1054100085B900BFFC590030044B1A689B6990683D
:105420009B68984294BF002001207047FC590030CF
:1054300038B50D4C2368A0691A68546022600122B7
:10544000A36183F82020FFF773FF0546EFF309837C
:10545000643BC2699A4201D900F040FE2946A06926
:10546000BDE83840FBF75AB9FC59003008B5FFF7E2
:10547000D3FF18B1BDE80840FFF7DABF08BD000050
:10548000FEE7000010B5114CFFF712FF00F054F9D1
:1054900001F02AFEFFF722FD00F036F980220C49C8
:1054A000204600F04DF80B4B44F8180CC361012363
:1054B00080F82030FEF7BAFC002383F3118862B62F
:1054C0000548BDE8104000F071B800BF2C5A00300C
:1054D000687C000800070030C47A000808B572B67E
:1054E000034BD86200F040FD00F0F6FDFEE700BF80
:1054F000FC59003000F0A8B9EFF3118020B9EFF3A8
:105500000583202282F311887047000010B558B936
:10551000EFF30584C4F3080414B180F3118810BDBF
:10552000FFF7A4FF84F3118810BD0000034B5968F6
:105530005A68521A9042FBD8704700BF001000E032
:10554000826042630122816180F82220094A10B5FD
:1055500002245169026180F820400024416180F8F2
:1055600021400463C4620861506100F12802826234
:1055700010BD00BFFC59003083684268016843F8E1
:105580001C2CA3F19C0243F82C2C026943F85C2CE0
:10559000426943F8582C044A43F83C2CC268A3F1F2
:1055A0003800FFF7CDBF00BF3507000882685521DE
:1055B000436810B59A420DD8202383F31188FFF772
:1055C000DBFF00210446FFF701FF002383F311886E
:1055D000204610BD03F8011BECE7000038B50D4B69
:1055E0009C6904F128056062A06AA8420CD194F875
:1055F000223023B9226963691A61226953610F203D
:10560000BDE83840FFF7A6BE0368A362FFF75AFE65
:10561000EAE700BFFC590030202383F31188FFF72D
:10562000DDBF000008B50146202383F31188082060
:10563000FFF7AEFE002383F3118808BD03682BB18A
:105640000022026018465962FFF73CBE7047000016
:1056500049B1064B42689B6918605A601360436009
:105660000420FFF795BE4FF0FF307047FC59003023
:105670000368984206D01A68026050601846596262
:10568000FFF720BE7047000038B504460D4620687D
:10569000844200D138BD036823605C604562FFF737
:1056A00011FEF4E74FF0FF33002203600023436054
:1056B0008360C3600023C0E904237047014B5B682B
:1056C00083607047001000E00D4A0E4B916EC26877
:1056D0005B680132C26082689B1A42685B1A30B50F
:1056E000D0E904458360E41845F10005934202685F
:1056F00088BF43609342C0E9044538BF036030BDB2
:10570000FC590030001000E030B587B00023094C90
:1057100004256846A366FFF7C5FF6846FFF7CEFF7E
:105720006846FFF7D1FF013DF7D1009BA36607B0A4
:1057300030BD00BFFC590030054B03F11C02DA619B
:105740001A624FF0FF325A6200229A62704700BF1D
:10575000FC590030F8B503610E46C260054601F001
:10576000BDFC1A4B19461F4651F81C2F8A420DD119
:105770009862022E2CBF80190230AE606A602A60E7
:105780001D62DD61BDE8F84001F092BC9B6A926841
:10579000C41A341928BF3446A24202D9181901F09C
:1057A00097FCFB699A6894420CD8AC6098685A6878
:1057B000041B2B606A6015605D609C604FF0FF33D6
:1057C0007B62F8BDA41A1B68ECE700BFFC590030EF
:1057D00038B51C4B0168DA691D4690420DD044680B
:1057E0002160002102685460C160916880680144B2
:1057F00091604FF0FF325A6238BD1A4642F81C1FC2
:105800004A600021DB69C160934203D1BDE83840A2
:1058100001F058BC9A6881680A449A60AC6A01F049
:105820005DFCEA69001B9268824209D9111A0129BC
:1058300098BF821CA86ABDE83840104401F048BCFB
:1058400038BD00BFFC5900302DE9F041184D00274C
:1058500005F11C06EC6901F041FCAA6AA368811AF3
:105860008B4216D81344D4F80C80AB6294E80C0039
:105870001A6022685360EB69E760B34201D101F01E
:1058800021FC87F311882069C047202383F3118806
:10589000E0E7EA69B24208D05B1ABDE8F041022BAA
:1058A0002CBFC018023001F013BCBDE8F08100BF6E
:1058B000FC59003000207047FEE7000070470000F0
:1058C0004FF0FF3070470000022906D0032906D0B0
:1058D0000129064818BF0020704705487047032A71
:1058E0009ABF044800EBC20000207047B07B00085C
:1058F000647B00084423003070B59AB00646084621
:10590000144601AD294600F0BDF82846FCF718FA08
:10591000C0B2431C5B0086E81800237003230234E6
:1059200004F8013C00231946DAB20234904201D84F
:105930001AB070BDEA5C013304F8011C04F8022CB3
:10594000F2E7000008B5202383F311880348FEF72F
:1059500039FF002383F3118808BD00BF005C0030CD
:1059600090F8803003F01F02012A07D190F88120BF
:105970000B2A03D100234367836712E003F060031F
:10598000202B11D1B0F8843073B990F88120212AEE
:1059900003D0222AEFD0202A06D1044A42670722E8
:1059A0008267C36701207047FEF7E8BE3B230030E3
:1059B00010B50446052916D8DFE801F016150316C0
:1059C000161D202383F311880E4A0121FEF7A6FF3E
:1059D00020460D4A0221FEF7A1FF0C48FEF7B8FE53
:1059E000002383F3118810BD202383F31188074817
:1059F000FEF784FEF4E7202383F311880348FEF7C3
:105A00009BFEEDE7E47A0008087B0008005C0030AC
:105A100038B50C4D0C4C2A460C4904F10800FFF730
:105A20006BFF05F1CA0204F110000949FFF764FF9A
:105A300005F5CA7204F118000649BDE83840FFF7C1
:105A40005BBF00BFDC74003044230030347B0008AF
:105A50003E7B0008497B000870B5044608460D46A9
:105A6000FCF76EF9C6B22046013403780BB918462C
:105A700070BD32462946FCF74DF90028F3D10120CC
:105A800070BD00002DE9F84F05460C46FCF758F9AB
:105A90002A49C6B22846FFF7DFFF08B1013EF6B239
:105AA00027492846FFF7D8FF08B11036F6B2632E13
:105AB0000DD8DFF88890DFF888A0224FDFF88CB08F
:105AC000DFF88C802E7846B92670BDE8F88F29461D
:105AD0002046BDE8F84F01F0FBBE252E2AD1072253
